{"abi":[{"inputs":[{"internalType":"uint256","name":"minimum","type":"uint256"},{"internalType":"address","name":"creator","type":"address"}],"stateMutability":"nonpayable","type":"constructor"},{"inputs":[{"internalType":"uint256","name":"id","type":"uint256"}],"name":"contributeAndDownloadFile","outputs":[{"internalType":"string","name":"","type":"string"}],"stateMutability":"payable","type":"function"},{"inputs":[{"internalType":"uint256","name":"id","type":"uint256"}],"name":"downloadFile","outputs":[{"internalType":"string","name":"","type":"string"}],"stateMutability":"view","type":"function"},{"inputs":[{"internalType":"uint256","name":"","type":"uint256"}],"name":"files","outputs":[{"internalType":"uint256","name":"id","type":"uint256"},{"internalType":"address payable","name":"uploader","type":"address"},{"internalType":"string","name":"description","type":"string"},{"internalType":"uint256","name":"minimumContribution","type":"uint256"},{"internalType":"uint256","name":"subscribersCount","type":"uint256"},{"internalType":"uint256","name":"timestamp","type":"uint256"}],"stateMutability":"view","type":"function"},{"inputs":[],"name":"filesCount","outputs":[{"internalType":"uint256","name":"","type":"uint256"}],"stateMutability":"view","type":"function"},{"inputs":[],"name":"getAllFiles","outputs":[{"components":[{"internalType":"uint256","name":"id","type":"uint256"},{"internalType":"address payable","name":"uploader","type":"address"},{"internalType":"string","name":"description","type":"string"},{"internalType":"uint256","name":"minimumContribution","type":"uint256"},{"internalType":"uint256","name":"subscribersCount","type":"uint256"},{"internalType":"uint256","name":"timestamp","type":"uint256"}],"internalType":"struct Resource.file[]","name":"","type":"tuple[]"}],"stateMutability":"view","type":"function"},{"inputs":[],"name":"getHeiDetails","outputs":[{"internalType":"uint256","name":"","type":"uint256"},{"internalType":"uint256","name":"","type":"uint256"},{"internalType":"uint256","name":"","type":"uint256"},{"internalType":"address","name":"","type":"address"}],"stateMutability":"view","type":"function"},{"inputs":[],"name":"getfilesCount","outputs":[{"internalType":"uint256","name":"","type":"uint256"}],"stateMutability":"view","type":"function"},{"inputs":[],"name":"manager","outputs":[{"internalType":"address","name":"","type":"address"}],"stateMutability":"view","type":"function"},{"inputs":[],"name":"minimumContribution","outputs":[{"internalType":"uint256","name":"","type":"uint256"}],"stateMutability":"view","type":"function"},{"inputs":[],"name":"subscribeToInstitution","outputs":[],"stateMutability":"payable","type":"function"},{"inputs":[{"internalType":"string","name":"description","type":"string"},{"internalType":"string","name":"hash","type":"string"},{"internalType":"uint256","name":"value","type":"uint256"},{"internalType":"address payable","name":"recipient","type":"address"}],"name":"uploadfile","outputs":[],"stateMutability":"nonpayable","type":"function"},{"inputs":[],"name":"userCount","outputs":[{"internalType":"uint256","name":"","type":"uint256"}],"stateMutability":"view","type":"function"},{"inputs":[{"internalType":"address","name":"","type":"address"}],"name":"users","outputs":[{"internalType":"bool","name":"","type":"bool"}],"stateMutability":"view","type":"function"}],"devdoc":{"kind":"dev","methods":{},"version":1},"evm":{"assembly":"    /* \"resourceHEI.sol\":429:3239  contract Resource {... */\n  mstore(0x40, 0x80)\n    /* \"resourceHEI.sol\":918:919  0 */\n  0x00\n    /* \"resourceHEI.sol\":898:919  uint256 fileIndex = 0 */\n  0x04\n  sstore\n    /* \"resourceHEI.sol\":1049:1168  constructor(uint256 minimum, address creator) {... */\n  callvalue\n  dup1\n  iszero\n  tag_1\n  jumpi\n  0x00\n  dup1\n  revert\ntag_1:\n  pop\n  mload(0x40)\n  sub(codesize, bytecodeSize)\n  dup1\n  bytecodeSize\n  dup4\n  codecopy\n  dup2\n  dup2\n  add\n  0x40\n  mstore\n  dup2\n  add\n  swap1\n  tag_2\n  swap2\n  swap1\n  tag_3\n  jump\t// in\ntag_2:\n    /* \"resourceHEI.sol\":1115:1122  creator */\n  dup1\n    /* \"resourceHEI.sol\":1105:1112  manager */\n  0x00\n  dup1\n    /* \"resourceHEI.sol\":1105:1122  manager = creator */\n  0x0100\n  exp\n  dup2\n  sload\n  dup2\n  0xffffffffffffffffffffffffffffffffffffffff\n  mul\n  not\n  and\n  swap1\n  dup4\n  0xffffffffffffffffffffffffffffffffffffffff\n  and\n  mul\n  or\n  swap1\n  sstore\n  pop\n    /* \"resourceHEI.sol\":1154:1161  minimum */\n  dup2\n    /* \"resourceHEI.sol\":1132:1151  minimumContribution */\n  0x01\n    /* \"resourceHEI.sol\":1132:1161  minimumContribution = minimum */\n  dup2\n  swap1\n  sstore\n  pop\n    /* \"resourceHEI.sol\":1049:1168  constructor(uint256 minimum, address creator) {... */\n  pop\n  pop\n    /* \"resourceHEI.sol\":429:3239  contract Resource {... */\n  jump(tag_6)\n    /* \"#utility.yul\":88:205   */\ntag_8:\n    /* \"#utility.yul\":197:198   */\n  0x00\n    /* \"#utility.yul\":194:195   */\n  dup1\n    /* \"#utility.yul\":187:199   */\n  revert\n    /* \"#utility.yul\":334:411   */\ntag_10:\n    /* \"#utility.yul\":371:378   */\n  0x00\n    /* \"#utility.yul\":400:405   */\n  dup2\n    /* \"#utility.yul\":389:405   */\n  swap1\n  pop\n    /* \"#utility.yul\":334:411   */\n  swap2\n  swap1\n  pop\n  jump\t// out\n    /* \"#utility.yul\":417:539   */\ntag_11:\n    /* \"#utility.yul\":490:514   */\n  tag_23\n    /* \"#utility.yul\":508:513   */\n  dup2\n    /* \"#utility.yul\":490:514   */\n  tag_10\n  jump\t// in\ntag_23:\n    /* \"#utility.yul\":483:488   */\n  dup2\n    /* \"#utility.yul\":480:515   */\n  eq\n    /* \"#utility.yul\":470:533   */\n  tag_24\n  jumpi\n    /* \"#utility.yul\":529:530   */\n  0x00\n    /* \"#utility.yul\":526:527   */\n  dup1\n    /* \"#utility.yul\":519:531   */\n  revert\n    /* \"#utility.yul\":470:533   */\ntag_24:\n    /* \"#utility.yul\":417:539   */\n  pop\n  jump\t// out\n    /* \"#utility.yul\":545:688   */\ntag_12:\n    /* \"#utility.yul\":602:607   */\n  0x00\n    /* \"#utility.yul\":633:639   */\n  dup2\n    /* \"#utility.yul\":627:640   */\n  mload\n    /* \"#utility.yul\":618:640   */\n  swap1\n  pop\n    /* \"#utility.yul\":649:682   */\n  tag_26\n    /* \"#utility.yul\":676:681   */\n  dup2\n    /* \"#utility.yul\":649:682   */\n  tag_11\n  jump\t// in\ntag_26:\n    /* \"#utility.yul\":545:688   */\n  swap3\n  swap2\n  pop\n  pop\n  jump\t// out\n    /* \"#utility.yul\":694:820   */\ntag_13:\n    /* \"#utility.yul\":731:738   */\n  0x00\n    /* \"#utility.yul\":771:813   */\n  0xffffffffffffffffffffffffffffffffffffffff\n    /* \"#utility.yul\":764:769   */\n  dup3\n    /* \"#utility.yul\":760:814   */\n  and\n    /* \"#utility.yul\":749:814   */\n  swap1\n  pop\n    /* \"#utility.yul\":694:820   */\n  swap2\n  swap1\n  pop\n  jump\t// out\n    /* \"#utility.yul\":826:922   */\ntag_14:\n    /* \"#utility.yul\":863:870   */\n  0x00\n    /* \"#utility.yul\":892:916   */\n  tag_29\n    /* \"#utility.yul\":910:915   */\n  dup3\n    /* \"#utility.yul\":892:916   */\n  tag_13\n  jump\t// in\ntag_29:\n    /* \"#utility.yul\":881:916   */\n  swap1\n  pop\n    /* \"#utility.yul\":826:922   */\n  swap2\n  swap1\n  pop\n  jump\t// out\n    /* \"#utility.yul\":928:1050   */\ntag_15:\n    /* \"#utility.yul\":1001:1025   */\n  tag_31\n    /* \"#utility.yul\":1019:1024   */\n  dup2\n    /* \"#utility.yul\":1001:1025   */\n  tag_14\n  jump\t// in\ntag_31:\n    /* \"#utility.yul\":994:999   */\n  dup2\n    /* \"#utility.yul\":991:1026   */\n  eq\n    /* \"#utility.yul\":981:1044   */\n  tag_32\n  jumpi\n    /* \"#utility.yul\":1040:1041   */\n  0x00\n    /* \"#utility.yul\":1037:1038   */\n  dup1\n    /* \"#utility.yul\":1030:1042   */\n  revert\n    /* \"#utility.yul\":981:1044   */\ntag_32:\n    /* \"#utility.yul\":928:1050   */\n  pop\n  jump\t// out\n    /* \"#utility.yul\":1056:1199   */\ntag_16:\n    /* \"#utility.yul\":1113:1118   */\n  0x00\n    /* \"#utility.yul\":1144:1150   */\n  dup2\n    /* \"#utility.yul\":1138:1151   */\n  mload\n    /* \"#utility.yul\":1129:1151   */\n  swap1\n  pop\n    /* \"#utility.yul\":1160:1193   */\n  tag_34\n    /* \"#utility.yul\":1187:1192   */\n  dup2\n    /* \"#utility.yul\":1160:1193   */\n  tag_15\n  jump\t// in\ntag_34:\n    /* \"#utility.yul\":1056:1199   */\n  swap3\n  swap2\n  pop\n  pop\n  jump\t// out\n    /* \"#utility.yul\":1205:1712   */\ntag_3:\n    /* \"#utility.yul\":1284:1290   */\n  0x00\n    /* \"#utility.yul\":1292:1298   */\n  dup1\n    /* \"#utility.yul\":1341:1343   */\n  0x40\n    /* \"#utility.yul\":1329:1338   */\n  dup4\n    /* \"#utility.yul\":1320:1327   */\n  dup6\n    /* \"#utility.yul\":1316:1339   */\n  sub\n    /* \"#utility.yul\":1312:1344   */\n  slt\n    /* \"#utility.yul\":1309:1428   */\n  iszero\n  tag_36\n  jumpi\n    /* \"#utility.yul\":1347:1426   */\n  tag_37\n  tag_8\n  jump\t// in\ntag_37:\n    /* \"#utility.yul\":1309:1428   */\ntag_36:\n    /* \"#utility.yul\":1467:1468   */\n  0x00\n    /* \"#utility.yul\":1492:1556   */\n  tag_38\n    /* \"#utility.yul\":1548:1555   */\n  dup6\n    /* \"#utility.yul\":1539:1545   */\n  dup3\n    /* \"#utility.yul\":1528:1537   */\n  dup7\n    /* \"#utility.yul\":1524:1546   */\n  add\n    /* \"#utility.yul\":1492:1556   */\n  tag_12\n  jump\t// in\ntag_38:\n    /* \"#utility.yul\":1482:1556   */\n  swap3\n  pop\n    /* \"#utility.yul\":1438:1566   */\n  pop\n    /* \"#utility.yul\":1605:1607   */\n  0x20\n    /* \"#utility.yul\":1631:1695   */\n  tag_39\n    /* \"#utility.yul\":1687:1694   */\n  dup6\n    /* \"#utility.yul\":1678:1684   */\n  dup3\n    /* \"#utility.yul\":1667:1676   */\n  dup7\n    /* \"#utility.yul\":1663:1685   */\n  add\n    /* \"#utility.yul\":1631:1695   */\n  tag_16\n  jump\t// in\ntag_39:\n    /* \"#utility.yul\":1621:1695   */\n  swap2\n  pop\n    /* \"#utility.yul\":1576:1705   */\n  pop\n    /* \"#utility.yul\":1205:1712   */\n  swap3\n  pop\n  swap3\n  swap1\n  pop\n  jump\t// out\n    /* \"resourceHEI.sol\":429:3239  contract Resource {... */\ntag_6:\n  dataSize(sub_0)\n  dup1\n  dataOffset(sub_0)\n  0x00\n  codecopy\n  0x00\n  return\nstop\n\nsub_0: assembly {\n        /* \"resourceHEI.sol\":429:3239  contract Resource {... */\n      mstore(0x40, 0x80)\n      jumpi(tag_1, lt(calldatasize, 0x04))\n      shr(0xe0, calldataload(0x00))\n      dup1\n      0x93df2738\n      gt\n      tag_15\n      jumpi\n      dup1\n      0xea97056a\n      gt\n      tag_16\n      jumpi\n      dup1\n      0xea97056a\n      eq\n      tag_11\n      jumpi\n      dup1\n      0xf1bfe13a\n      eq\n      tag_12\n      jumpi\n      dup1\n      0xf4c714b4\n      eq\n      tag_13\n      jumpi\n      dup1\n      0xff24b5d5\n      eq\n      tag_14\n      jumpi\n      jump(tag_1)\n    tag_16:\n      dup1\n      0x93df2738\n      eq\n      tag_8\n      jumpi\n      dup1\n      0xa87430ba\n      eq\n      tag_9\n      jumpi\n      dup1\n      0xdfb5e9ba\n      eq\n      tag_10\n      jumpi\n      jump(tag_1)\n    tag_15:\n      dup1\n      0x07973ccf\n      eq\n      tag_2\n      jumpi\n      dup1\n      0x1c6727f9\n      eq\n      tag_3\n      jumpi\n      dup1\n      0x395a09c6\n      eq\n      tag_4\n      jumpi\n      dup1\n      0x481c6a75\n      eq\n      tag_5\n      jumpi\n      dup1\n      0x62d5e486\n      eq\n      tag_6\n      jumpi\n      dup1\n      0x937e09b1\n      eq\n      tag_7\n      jumpi\n    tag_1:\n      0x00\n      dup1\n      revert\n        /* \"resourceHEI.sol\":837:861  uint256 public userCount */\n    tag_2:\n      callvalue\n      dup1\n      iszero\n      tag_17\n      jumpi\n      0x00\n      dup1\n      revert\n    tag_17:\n      pop\n      tag_18\n      tag_19\n      jump\t// in\n    tag_18:\n      mload(0x40)\n      tag_20\n      swap2\n      swap1\n      tag_21\n      jump\t// in\n    tag_20:\n      mload(0x40)\n      dup1\n      swap2\n      sub\n      swap1\n      return\n        /* \"resourceHEI.sol\":1437:1717  function subscribeToInstitution() public payable {... */\n    tag_3:\n      tag_22\n      tag_23\n      jump\t// in\n    tag_22:\n      stop\n        /* \"resourceHEI.sol\":3148:3237  function getfilesCount() public view returns (uint256) {... */\n    tag_4:\n      callvalue\n      dup1\n      iszero\n      tag_24\n      jumpi\n      0x00\n      dup1\n      revert\n    tag_24:\n      pop\n      tag_25\n      tag_26\n      jump\t// in\n    tag_25:\n      mload(0x40)\n      tag_27\n      swap2\n      swap1\n      tag_21\n      jump\t// in\n    tag_27:\n      mload(0x40)\n      dup1\n      swap2\n      sub\n      swap1\n      return\n        /* \"resourceHEI.sol\":769:791  address public manager */\n    tag_5:\n      callvalue\n      dup1\n      iszero\n      tag_28\n      jumpi\n      0x00\n      dup1\n      revert\n    tag_28:\n      pop\n      tag_29\n      tag_30\n      jump\t// in\n    tag_29:\n      mload(0x40)\n      tag_31\n      swap2\n      swap1\n      tag_32\n      jump\t// in\n    tag_31:\n      mload(0x40)\n      dup1\n      swap2\n      sub\n      swap1\n      return\n        /* \"resourceHEI.sol\":2232:2588  function contributeAndDownloadFile(uint id) public payable hasBalance(id) returns(string memory){... */\n    tag_6:\n      tag_33\n      0x04\n      dup1\n      calldatasize\n      sub\n      dup2\n      add\n      swap1\n      tag_34\n      swap2\n      swap1\n      tag_35\n      jump\t// in\n    tag_34:\n      tag_36\n      jump\t// in\n    tag_33:\n      mload(0x40)\n      tag_37\n      swap2\n      swap1\n      tag_38\n      jump\t// in\n    tag_37:\n      mload(0x40)\n      dup1\n      swap2\n      sub\n      swap1\n      return\n        /* \"resourceHEI.sol\":797:831  uint256 public minimumContribution */\n    tag_7:\n      callvalue\n      dup1\n      iszero\n      tag_39\n      jumpi\n      0x00\n      dup1\n      revert\n    tag_39:\n      pop\n      tag_40\n      tag_41\n      jump\t// in\n    tag_40:\n      mload(0x40)\n      tag_42\n      swap2\n      swap1\n      tag_21\n      jump\t// in\n    tag_42:\n      mload(0x40)\n      dup1\n      swap2\n      sub\n      swap1\n      return\n        /* \"resourceHEI.sol\":2594:2830  function downloadFile(uint id) public view returns(string memory){        ... */\n    tag_8:\n      callvalue\n      dup1\n      iszero\n      tag_43\n      jumpi\n      0x00\n      dup1\n      revert\n    tag_43:\n      pop\n      tag_44\n      0x04\n      dup1\n      calldatasize\n      sub\n      dup2\n      add\n      swap1\n      tag_45\n      swap2\n      swap1\n      tag_35\n      jump\t// in\n    tag_45:\n      tag_46\n      jump\t// in\n    tag_44:\n      mload(0x40)\n      tag_47\n      swap2\n      swap1\n      tag_38\n      jump\t// in\n    tag_47:\n      mload(0x40)\n      dup1\n      swap2\n      sub\n      swap1\n      return\n        /* \"resourceHEI.sol\":1000:1037  mapping(address => bool) public users */\n    tag_9:\n      callvalue\n      dup1\n      iszero\n      tag_48\n      jumpi\n      0x00\n      dup1\n      revert\n    tag_48:\n      pop\n      tag_49\n      0x04\n      dup1\n      calldatasize\n      sub\n      dup2\n      add\n      swap1\n      tag_50\n      swap2\n      swap1\n      tag_51\n      jump\t// in\n    tag_50:\n      tag_52\n      jump\t// in\n    tag_49:\n      mload(0x40)\n      tag_53\n      swap2\n      swap1\n      tag_54\n      jump\t// in\n    tag_53:\n      mload(0x40)\n      dup1\n      swap2\n      sub\n      swap1\n      return\n        /* \"resourceHEI.sol\":867:892  uint256 public filesCount */\n    tag_10:\n      callvalue\n      dup1\n      iszero\n      tag_55\n      jumpi\n      0x00\n      dup1\n      revert\n    tag_55:\n      pop\n      tag_56\n      tag_57\n      jump\t// in\n    tag_56:\n      mload(0x40)\n      tag_58\n      swap2\n      swap1\n      tag_21\n      jump\t// in\n    tag_58:\n      mload(0x40)\n      dup1\n      swap2\n      sub\n      swap1\n      return\n        /* \"resourceHEI.sol\":1723:2133  function uploadfile(... */\n    tag_11:\n      callvalue\n      dup1\n      iszero\n      tag_59\n      jumpi\n      0x00\n      dup1\n      revert\n    tag_59:\n      pop\n      tag_60\n      0x04\n      dup1\n      calldatasize\n      sub\n      dup2\n      add\n      swap1\n      tag_61\n      swap2\n      swap1\n      tag_62\n      jump\t// in\n    tag_61:\n      tag_63\n      jump\t// in\n    tag_60:\n      stop\n        /* \"resourceHEI.sol\":2836:3142  function getHeiDetails()... */\n    tag_12:\n      callvalue\n      dup1\n      iszero\n      tag_64\n      jumpi\n      0x00\n      dup1\n      revert\n    tag_64:\n      pop\n      tag_65\n      tag_66\n      jump\t// in\n    tag_65:\n      mload(0x40)\n      tag_67\n      swap5\n      swap4\n      swap3\n      swap2\n      swap1\n      tag_68\n      jump\t// in\n    tag_67:\n      mload(0x40)\n      dup1\n      swap2\n      sub\n      swap1\n      return\n        /* \"resourceHEI.sol\":975:994  file[] public files */\n    tag_13:\n      callvalue\n      dup1\n      iszero\n      tag_69\n      jumpi\n      0x00\n      dup1\n      revert\n    tag_69:\n      pop\n      tag_70\n      0x04\n      dup1\n      calldatasize\n      sub\n      dup2\n      add\n      swap1\n      tag_71\n      swap2\n      swap1\n      tag_35\n      jump\t// in\n    tag_71:\n      tag_72\n      jump\t// in\n    tag_70:\n      mload(0x40)\n      tag_73\n      swap7\n      swap6\n      swap5\n      swap4\n      swap3\n      swap2\n      swap1\n      tag_74\n      jump\t// in\n    tag_73:\n      mload(0x40)\n      dup1\n      swap2\n      sub\n      swap1\n      return\n        /* \"resourceHEI.sol\":2139:2227  function getAllFiles() public view returns (file[] memory){... */\n    tag_14:\n      callvalue\n      dup1\n      iszero\n      tag_75\n      jumpi\n      0x00\n      dup1\n      revert\n    tag_75:\n      pop\n      tag_76\n      tag_77\n      jump\t// in\n    tag_76:\n      mload(0x40)\n      tag_78\n      swap2\n      swap1\n      tag_79\n      jump\t// in\n    tag_78:\n      mload(0x40)\n      dup1\n      swap2\n      sub\n      swap1\n      return\n        /* \"resourceHEI.sol\":837:861  uint256 public userCount */\n    tag_19:\n      sload(0x02)\n      dup2\n      jump\t// out\n        /* \"resourceHEI.sol\":1437:1717  function subscribeToInstitution() public payable {... */\n    tag_23:\n        /* \"resourceHEI.sol\":1529:1548  minimumContribution */\n      sload(0x01)\n        /* \"resourceHEI.sol\":1517:1526  msg.value */\n      callvalue\n        /* \"resourceHEI.sol\":1517:1548  msg.value > minimumContribution */\n      gt\n        /* \"resourceHEI.sol\":1496:1603  require(... */\n      tag_81\n      jumpi\n      mload(0x40)\n      0x08c379a000000000000000000000000000000000000000000000000000000000\n      dup2\n      mstore\n      0x04\n      add\n      tag_82\n      swap1\n      tag_83\n      jump\t// in\n    tag_82:\n      mload(0x40)\n      dup1\n      swap2\n      sub\n      swap1\n      revert\n    tag_81:\n        /* \"resourceHEI.sol\":1618:1623  users */\n      0x07\n        /* \"resourceHEI.sol\":1618:1635  users[msg.sender] */\n      0x00\n        /* \"resourceHEI.sol\":1624:1634  msg.sender */\n      caller\n        /* \"resourceHEI.sol\":1618:1635  users[msg.sender] */\n      0xffffffffffffffffffffffffffffffffffffffff\n      and\n      0xffffffffffffffffffffffffffffffffffffffff\n      and\n      dup2\n      mstore\n      0x20\n      add\n      swap1\n      dup2\n      mstore\n      0x20\n      add\n      0x00\n      keccak256\n      0x00\n      swap1\n      sload\n      swap1\n      0x0100\n      exp\n      swap1\n      div\n      0xff\n      and\n        /* \"resourceHEI.sol\":1613:1711  if (!users[msg.sender]) {... */\n      tag_84\n      jumpi\n        /* \"resourceHEI.sol\":1671:1675  true */\n      0x01\n        /* \"resourceHEI.sol\":1651:1656  users */\n      0x07\n        /* \"resourceHEI.sol\":1651:1668  users[msg.sender] */\n      0x00\n        /* \"resourceHEI.sol\":1657:1667  msg.sender */\n      caller\n        /* \"resourceHEI.sol\":1651:1668  users[msg.sender] */\n      0xffffffffffffffffffffffffffffffffffffffff\n      and\n      0xffffffffffffffffffffffffffffffffffffffff\n      and\n      dup2\n      mstore\n      0x20\n      add\n      swap1\n      dup2\n      mstore\n      0x20\n      add\n      0x00\n      keccak256\n      0x00\n        /* \"resourceHEI.sol\":1651:1675  users[msg.sender] = true */\n      0x0100\n      exp\n      dup2\n      sload\n      dup2\n      0xff\n      mul\n      not\n      and\n      swap1\n      dup4\n      iszero\n      iszero\n      mul\n      or\n      swap1\n      sstore\n      pop\n        /* \"resourceHEI.sol\":1689:1698  userCount */\n      0x02\n      0x00\n        /* \"resourceHEI.sol\":1689:1700  userCount++ */\n      dup2\n      sload\n      dup1\n      swap3\n      swap2\n      swap1\n      tag_85\n      swap1\n      tag_86\n      jump\t// in\n    tag_85:\n      swap2\n      swap1\n      pop\n      sstore\n      pop\n        /* \"resourceHEI.sol\":1613:1711  if (!users[msg.sender]) {... */\n    tag_84:\n        /* \"resourceHEI.sol\":1437:1717  function subscribeToInstitution() public payable {... */\n      jump\t// out\n        /* \"resourceHEI.sol\":3148:3237  function getfilesCount() public view returns (uint256) {... */\n    tag_26:\n        /* \"resourceHEI.sol\":3194:3201  uint256 */\n      0x00\n        /* \"resourceHEI.sol\":3220:3230  filesCount */\n      sload(0x03)\n        /* \"resourceHEI.sol\":3213:3230  return filesCount */\n      swap1\n      pop\n        /* \"resourceHEI.sol\":3148:3237  function getfilesCount() public view returns (uint256) {... */\n      swap1\n      jump\t// out\n        /* \"resourceHEI.sol\":769:791  address public manager */\n    tag_30:\n      0x00\n      dup1\n      sload\n      swap1\n      0x0100\n      exp\n      swap1\n      div\n      0xffffffffffffffffffffffffffffffffffffffff\n      and\n      dup2\n      jump\t// out\n        /* \"resourceHEI.sol\":2232:2588  function contributeAndDownloadFile(uint id) public payable hasBalance(id) returns(string memory){... */\n    tag_36:\n        /* \"resourceHEI.sol\":2314:2327  string memory */\n      0x60\n        /* \"resourceHEI.sol\":2302:2304  id */\n      dup2\n        /* \"resourceHEI.sol\":1365:1386  address(this).balance */\n      selfbalance\n        /* \"resourceHEI.sol\":1334:1339  files */\n      0x06\n        /* \"resourceHEI.sol\":1340:1342  id */\n      dup3\n        /* \"resourceHEI.sol\":1334:1343  files[id] */\n      dup2\n      sload\n      dup2\n      lt\n      tag_89\n      jumpi\n      tag_90\n      tag_91\n      jump\t// in\n    tag_90:\n    tag_89:\n      swap1\n      0x00\n      mstore\n      keccak256(0x00, 0x20)\n      swap1\n      0x06\n      mul\n      add\n        /* \"resourceHEI.sol\":1334:1363  files[id].minimumContribution */\n      0x03\n      add\n      sload\n        /* \"resourceHEI.sol\":1334:1386  files[id].minimumContribution<=address(this).balance */\n      gt\n      iszero\n        /* \"resourceHEI.sol\":1326:1413  require(files[id].minimumContribution<=address(this).balance, \"Not sufficient balance\") */\n      tag_93\n      jumpi\n      mload(0x40)\n      0x08c379a000000000000000000000000000000000000000000000000000000000\n      dup2\n      mstore\n      0x04\n      add\n      tag_94\n      swap1\n      tag_95\n      jump\t// in\n    tag_94:\n      mload(0x40)\n      dup1\n      swap2\n      sub\n      swap1\n      revert\n    tag_93:\n        /* \"resourceHEI.sol\":2338:2352  file storage r */\n      0x00\n        /* \"resourceHEI.sol\":2355:2360  files */\n      0x06\n        /* \"resourceHEI.sol\":2361:2363  id */\n      dup5\n        /* \"resourceHEI.sol\":2355:2364  files[id] */\n      dup2\n      sload\n      dup2\n      lt\n      tag_97\n      jumpi\n      tag_98\n      tag_91\n      jump\t// in\n    tag_98:\n    tag_97:\n      swap1\n      0x00\n      mstore\n      keccak256(0x00, 0x20)\n      swap1\n      0x06\n      mul\n      add\n        /* \"resourceHEI.sol\":2338:2364  file storage r = files[id] */\n      swap1\n      pop\n        /* \"resourceHEI.sol\":2374:2400  fileConfidential storage h */\n      0x00\n        /* \"resourceHEI.sol\":2402:2408  hashes */\n      0x05\n        /* \"resourceHEI.sol\":2402:2412  hashes[id] */\n      0x00\n        /* \"resourceHEI.sol\":2409:2411  id */\n      dup7\n        /* \"resourceHEI.sol\":2402:2412  hashes[id] */\n      dup2\n      mstore\n      0x20\n      add\n      swap1\n      dup2\n      mstore\n      0x20\n      add\n      0x00\n      keccak256\n        /* \"resourceHEI.sol\":2374:2412  fileConfidential storage h= hashes[id] */\n      swap1\n      pop\n        /* \"resourceHEI.sol\":2422:2423  r */\n      dup2\n        /* \"resourceHEI.sol\":2422:2432  r.uploader */\n      0x01\n      add\n      0x00\n      swap1\n      sload\n      swap1\n      0x0100\n      exp\n      swap1\n      div\n      0xffffffffffffffffffffffffffffffffffffffff\n      and\n        /* \"resourceHEI.sol\":2422:2441  r.uploader.transfer */\n      0xffffffffffffffffffffffffffffffffffffffff\n      and\n        /* \"resourceHEI.sol\":2422:2464  r.uploader.transfer(r.minimumContribution) */\n      0x08fc\n        /* \"resourceHEI.sol\":2442:2443  r */\n      dup4\n        /* \"resourceHEI.sol\":2442:2463  r.minimumContribution */\n      0x03\n      add\n      sload\n        /* \"resourceHEI.sol\":2422:2464  r.uploader.transfer(r.minimumContribution) */\n      swap1\n      dup2\n      iszero\n      mul\n      swap1\n      mload(0x40)\n      0x00\n      mload(0x40)\n      dup1\n      dup4\n      sub\n      dup2\n      dup6\n      dup9\n      dup9\n      call\n      swap4\n      pop\n      pop\n      pop\n      pop\n      iszero\n      dup1\n      iszero\n      tag_101\n      jumpi\n      returndatasize\n      0x00\n      dup1\n      returndatacopy\n      revert(0x00, returndatasize)\n    tag_101:\n      pop\n        /* \"resourceHEI.sol\":2478:2479  h */\n      dup1\n        /* \"resourceHEI.sol\":2478:2491  h.subscribers */\n      0x01\n      add\n        /* \"resourceHEI.sol\":2478:2503  h.subscribers[msg.sender] */\n      0x00\n        /* \"resourceHEI.sol\":2492:2502  msg.sender */\n      caller\n        /* \"resourceHEI.sol\":2478:2503  h.subscribers[msg.sender] */\n      0xffffffffffffffffffffffffffffffffffffffff\n      and\n      0xffffffffffffffffffffffffffffffffffffffff\n      and\n      dup2\n      mstore\n      0x20\n      add\n      swap1\n      dup2\n      mstore\n      0x20\n      add\n      0x00\n      keccak256\n      0x00\n      swap1\n      sload\n      swap1\n      0x0100\n      exp\n      swap1\n      div\n      0xff\n      and\n        /* \"resourceHEI.sol\":2474:2559  if(!h.subscribers[msg.sender]){... */\n      tag_102\n      jumpi\n        /* \"resourceHEI.sol\":2544:2548  true */\n      0x01\n        /* \"resourceHEI.sol\":2518:2519  h */\n      dup2\n        /* \"resourceHEI.sol\":2518:2531  h.subscribers */\n      0x01\n      add\n        /* \"resourceHEI.sol\":2518:2543  h.subscribers[msg.sender] */\n      0x00\n        /* \"resourceHEI.sol\":2532:2542  msg.sender */\n      caller\n        /* \"resourceHEI.sol\":2518:2543  h.subscribers[msg.sender] */\n      0xffffffffffffffffffffffffffffffffffffffff\n      and\n      0xffffffffffffffffffffffffffffffffffffffff\n      and\n      dup2\n      mstore\n      0x20\n      add\n      swap1\n      dup2\n      mstore\n      0x20\n      add\n      0x00\n      keccak256\n      0x00\n        /* \"resourceHEI.sol\":2518:2548  h.subscribers[msg.sender]=true */\n      0x0100\n      exp\n      dup2\n      sload\n      dup2\n      0xff\n      mul\n      not\n      and\n      swap1\n      dup4\n      iszero\n      iszero\n      mul\n      or\n      swap1\n      sstore\n      pop\n        /* \"resourceHEI.sol\":2474:2559  if(!h.subscribers[msg.sender]){... */\n    tag_102:\n        /* \"resourceHEI.sol\":2575:2576  h */\n      dup1\n        /* \"resourceHEI.sol\":2575:2581  h.hash */\n      0x00\n      add\n        /* \"resourceHEI.sol\":2568:2581  return h.hash */\n      dup1\n      sload\n      tag_103\n      swap1\n      tag_104\n      jump\t// in\n    tag_103:\n      dup1\n      0x1f\n      add\n      0x20\n      dup1\n      swap2\n      div\n      mul\n      0x20\n      add\n      mload(0x40)\n      swap1\n      dup2\n      add\n      0x40\n      mstore\n      dup1\n      swap3\n      swap2\n      swap1\n      dup2\n      dup2\n      mstore\n      0x20\n      add\n      dup3\n      dup1\n      sload\n      tag_105\n      swap1\n      tag_104\n      jump\t// in\n    tag_105:\n      dup1\n      iszero\n      tag_106\n      jumpi\n      dup1\n      0x1f\n      lt\n      tag_107\n      jumpi\n      0x0100\n      dup1\n      dup4\n      sload\n      div\n      mul\n      dup4\n      mstore\n      swap2\n      0x20\n      add\n      swap2\n      jump(tag_106)\n    tag_107:\n      dup3\n      add\n      swap2\n      swap1\n      0x00\n      mstore\n      keccak256(0x00, 0x20)\n      swap1\n    tag_108:\n      dup2\n      sload\n      dup2\n      mstore\n      swap1\n      0x01\n      add\n      swap1\n      0x20\n      add\n      dup1\n      dup4\n      gt\n      tag_108\n      jumpi\n      dup3\n      swap1\n      sub\n      0x1f\n      and\n      dup3\n      add\n      swap2\n    tag_106:\n      pop\n      pop\n      pop\n      pop\n      pop\n      swap4\n      pop\n      pop\n      pop\n        /* \"resourceHEI.sol\":2232:2588  function contributeAndDownloadFile(uint id) public payable hasBalance(id) returns(string memory){... */\n      pop\n      swap2\n      swap1\n      pop\n      jump\t// out\n        /* \"resourceHEI.sol\":797:831  uint256 public minimumContribution */\n    tag_41:\n      sload(0x01)\n      dup2\n      jump\t// out\n        /* \"resourceHEI.sol\":2594:2830  function downloadFile(uint id) public view returns(string memory){        ... */\n    tag_46:\n        /* \"resourceHEI.sol\":2645:2658  string memory */\n      0x60\n        /* \"resourceHEI.sol\":2677:2703  fileConfidential storage h */\n      0x00\n        /* \"resourceHEI.sol\":2705:2711  hashes */\n      0x05\n        /* \"resourceHEI.sol\":2705:2715  hashes[id] */\n      0x00\n        /* \"resourceHEI.sol\":2712:2714  id */\n      dup5\n        /* \"resourceHEI.sol\":2705:2715  hashes[id] */\n      dup2\n      mstore\n      0x20\n      add\n      swap1\n      dup2\n      mstore\n      0x20\n      add\n      0x00\n      keccak256\n        /* \"resourceHEI.sol\":2677:2715  fileConfidential storage h= hashes[id] */\n      swap1\n      pop\n        /* \"resourceHEI.sol\":2733:2734  h */\n      dup1\n        /* \"resourceHEI.sol\":2733:2746  h.subscribers */\n      0x01\n      add\n        /* \"resourceHEI.sol\":2733:2758  h.subscribers[msg.sender] */\n      0x00\n        /* \"resourceHEI.sol\":2747:2757  msg.sender */\n      caller\n        /* \"resourceHEI.sol\":2733:2758  h.subscribers[msg.sender] */\n      0xffffffffffffffffffffffffffffffffffffffff\n      and\n      0xffffffffffffffffffffffffffffffffffffffff\n      and\n      dup2\n      mstore\n      0x20\n      add\n      swap1\n      dup2\n      mstore\n      0x20\n      add\n      0x00\n      keccak256\n      0x00\n      swap1\n      sload\n      swap1\n      0x0100\n      exp\n      swap1\n      div\n      0xff\n      and\n        /* \"resourceHEI.sol\":2725:2792  require(h.subscribers[msg.sender],\"Not subscribed to the file yet\") */\n      tag_110\n      jumpi\n      mload(0x40)\n      0x08c379a000000000000000000000000000000000000000000000000000000000\n      dup2\n      mstore\n      0x04\n      add\n      tag_111\n      swap1\n      tag_112\n      jump\t// in\n    tag_111:\n      mload(0x40)\n      dup1\n      swap2\n      sub\n      swap1\n      revert\n    tag_110:\n        /* \"resourceHEI.sol\":2817:2818  h */\n      dup1\n        /* \"resourceHEI.sol\":2817:2823  h.hash */\n      0x00\n      add\n        /* \"resourceHEI.sol\":2810:2823  return h.hash */\n      dup1\n      sload\n      tag_113\n      swap1\n      tag_104\n      jump\t// in\n    tag_113:\n      dup1\n      0x1f\n      add\n      0x20\n      dup1\n      swap2\n      div\n      mul\n      0x20\n      add\n      mload(0x40)\n      swap1\n      dup2\n      add\n      0x40\n      mstore\n      dup1\n      swap3\n      swap2\n      swap1\n      dup2\n      dup2\n      mstore\n      0x20\n      add\n      dup3\n      dup1\n      sload\n      tag_114\n      swap1\n      tag_104\n      jump\t// in\n    tag_114:\n      dup1\n      iszero\n      tag_115\n      jumpi\n      dup1\n      0x1f\n      lt\n      tag_116\n      jumpi\n      0x0100\n      dup1\n      dup4\n      sload\n      div\n      mul\n      dup4\n      mstore\n      swap2\n      0x20\n      add\n      swap2\n      jump(tag_115)\n    tag_116:\n      dup3\n      add\n      swap2\n      swap1\n      0x00\n      mstore\n      keccak256(0x00, 0x20)\n      swap1\n    tag_117:\n      dup2\n      sload\n      dup2\n      mstore\n      swap1\n      0x01\n      add\n      swap1\n      0x20\n      add\n      dup1\n      dup4\n      gt\n      tag_117\n      jumpi\n      dup3\n      swap1\n      sub\n      0x1f\n      and\n      dup3\n      add\n      swap2\n    tag_115:\n      pop\n      pop\n      pop\n      pop\n      pop\n      swap2\n      pop\n      pop\n        /* \"resourceHEI.sol\":2594:2830  function downloadFile(uint id) public view returns(string memory){        ... */\n      swap2\n      swap1\n      pop\n      jump\t// out\n        /* \"resourceHEI.sol\":1000:1037  mapping(address => bool) public users */\n    tag_52:\n      mstore(0x20, 0x07)\n      dup1\n      0x00\n      mstore\n      keccak256(0x00, 0x40)\n      0x00\n      swap2\n      pop\n      sload\n      swap1\n      0x0100\n      exp\n      swap1\n      div\n      0xff\n      and\n      dup2\n      jump\t// out\n        /* \"resourceHEI.sol\":867:892  uint256 public filesCount */\n    tag_57:\n      sload(0x03)\n      dup2\n      jump\t// out\n        /* \"resourceHEI.sol\":1723:2133  function uploadfile(... */\n    tag_63:\n        /* \"resourceHEI.sol\":1895:1914  file memory newfile */\n      0x00\n        /* \"resourceHEI.sol\":1918:1979  file(fileIndex,recipient,description,value,0,block.timestamp) */\n      mload(0x40)\n      dup1\n      0xc0\n      add\n      0x40\n      mstore\n      dup1\n        /* \"resourceHEI.sol\":1923:1932  fileIndex */\n      sload(0x04)\n        /* \"resourceHEI.sol\":1918:1979  file(fileIndex,recipient,description,value,0,block.timestamp) */\n      dup2\n      mstore\n      0x20\n      add\n        /* \"resourceHEI.sol\":1933:1942  recipient */\n      dup4\n        /* \"resourceHEI.sol\":1918:1979  file(fileIndex,recipient,description,value,0,block.timestamp) */\n      0xffffffffffffffffffffffffffffffffffffffff\n      and\n      dup2\n      mstore\n      0x20\n      add\n        /* \"resourceHEI.sol\":1943:1954  description */\n      dup7\n        /* \"resourceHEI.sol\":1918:1979  file(fileIndex,recipient,description,value,0,block.timestamp) */\n      dup2\n      mstore\n      0x20\n      add\n        /* \"resourceHEI.sol\":1955:1960  value */\n      dup5\n        /* \"resourceHEI.sol\":1918:1979  file(fileIndex,recipient,description,value,0,block.timestamp) */\n      dup2\n      mstore\n      0x20\n      add\n        /* \"resourceHEI.sol\":1961:1962  0 */\n      0x00\n        /* \"resourceHEI.sol\":1918:1979  file(fileIndex,recipient,description,value,0,block.timestamp) */\n      dup2\n      mstore\n      0x20\n      add\n        /* \"resourceHEI.sol\":1963:1978  block.timestamp */\n      timestamp\n        /* \"resourceHEI.sol\":1918:1979  file(fileIndex,recipient,description,value,0,block.timestamp) */\n      dup2\n      mstore\n      pop\n        /* \"resourceHEI.sol\":1895:1979  file memory newfile =  file(fileIndex,recipient,description,value,0,block.timestamp) */\n      swap1\n      pop\n        /* \"resourceHEI.sol\":1989:1994  files */\n      0x06\n        /* \"resourceHEI.sol\":2000:2007  newfile */\n      dup2\n        /* \"resourceHEI.sol\":1989:2008  files.push(newfile) */\n      swap1\n      dup1\n      0x01\n      dup2\n      sload\n      add\n      dup1\n      dup3\n      sstore\n      dup1\n      swap2\n      pop\n      pop\n      0x01\n      swap1\n      sub\n      swap1\n      0x00\n      mstore\n      keccak256(0x00, 0x20)\n      swap1\n      0x06\n      mul\n      add\n      0x00\n      swap1\n      swap2\n      swap1\n      swap2\n      swap1\n      swap2\n      pop\n      0x00\n      dup3\n      add\n      mload\n      dup2\n      0x00\n      add\n      sstore\n      0x20\n      dup3\n      add\n      mload\n      dup2\n      0x01\n      add\n      exp(0x0100, 0x00)\n      dup2\n      sload\n      dup2\n      0xffffffffffffffffffffffffffffffffffffffff\n      mul\n      not\n      and\n      swap1\n      dup4\n      0xffffffffffffffffffffffffffffffffffffffff\n      and\n      mul\n      or\n      swap1\n      sstore\n      pop\n      0x40\n      dup3\n      add\n      mload\n      dup2\n      0x02\n      add\n      swap1\n      dup2\n      tag_120\n      swap2\n      swap1\n      tag_121\n      jump\t// in\n    tag_120:\n      pop\n      0x60\n      dup3\n      add\n      mload\n      dup2\n      0x03\n      add\n      sstore\n      0x80\n      dup3\n      add\n      mload\n      dup2\n      0x04\n      add\n      sstore\n      0xa0\n      dup3\n      add\n      mload\n      dup2\n      0x05\n      add\n      sstore\n      pop\n      pop\n        /* \"resourceHEI.sol\":2018:2044  fileConfidential storage h */\n      0x00\n        /* \"resourceHEI.sol\":2045:2051  hashes */\n      0x05\n        /* \"resourceHEI.sol\":2045:2062  hashes[fileIndex] */\n      0x00\n        /* \"resourceHEI.sol\":2052:2061  fileIndex */\n      sload(0x04)\n        /* \"resourceHEI.sol\":2045:2062  hashes[fileIndex] */\n      dup2\n      mstore\n      0x20\n      add\n      swap1\n      dup2\n      mstore\n      0x20\n      add\n      0x00\n      keccak256\n        /* \"resourceHEI.sol\":2018:2062  fileConfidential storage h=hashes[fileIndex] */\n      swap1\n      pop\n        /* \"resourceHEI.sol\":2079:2083  hash */\n      dup5\n        /* \"resourceHEI.sol\":2072:2073  h */\n      dup2\n        /* \"resourceHEI.sol\":2072:2078  h.hash */\n      0x00\n      add\n        /* \"resourceHEI.sol\":2072:2083  h.hash=hash */\n      swap1\n      dup2\n      tag_122\n      swap2\n      swap1\n      tag_121\n      jump\t// in\n    tag_122:\n      pop\n        /* \"resourceHEI.sol\":2093:2102  fileIndex */\n      0x04\n      0x00\n        /* \"resourceHEI.sol\":2093:2104  fileIndex++ */\n      dup2\n      sload\n      dup1\n      swap3\n      swap2\n      swap1\n      tag_123\n      swap1\n      tag_86\n      jump\t// in\n    tag_123:\n      swap2\n      swap1\n      pop\n      sstore\n      pop\n        /* \"resourceHEI.sol\":2114:2124  filesCount */\n      0x03\n      0x00\n        /* \"resourceHEI.sol\":2114:2126  filesCount++ */\n      dup2\n      sload\n      dup1\n      swap3\n      swap2\n      swap1\n      tag_124\n      swap1\n      tag_86\n      jump\t// in\n    tag_124:\n      swap2\n      swap1\n      pop\n      sstore\n      pop\n        /* \"resourceHEI.sol\":1877:2133  {        ... */\n      pop\n      pop\n        /* \"resourceHEI.sol\":1723:2133  function uploadfile(... */\n      pop\n      pop\n      pop\n      pop\n      jump\t// out\n        /* \"resourceHEI.sol\":2836:3142  function getHeiDetails()... */\n    tag_66:\n        /* \"resourceHEI.sol\":2919:2926  uint256 */\n      0x00\n        /* \"resourceHEI.sol\":2940:2947  uint256 */\n      dup1\n        /* \"resourceHEI.sol\":2961:2968  uint256 */\n      0x00\n        /* \"resourceHEI.sol\":2982:2989  address */\n      dup1\n        /* \"resourceHEI.sol\":3038:3057  minimumContribution */\n      sload(0x01)\n        /* \"resourceHEI.sol\":3071:3081  filesCount */\n      sload(0x03)\n        /* \"resourceHEI.sol\":3095:3104  userCount */\n      sload(0x02)\n        /* \"resourceHEI.sol\":3118:3125  manager */\n      0x00\n      dup1\n      sload\n      swap1\n      0x0100\n      exp\n      swap1\n      div\n      0xffffffffffffffffffffffffffffffffffffffff\n      and\n        /* \"resourceHEI.sol\":3017:3135  return (... */\n      swap4\n      pop\n      swap4\n      pop\n      swap4\n      pop\n      swap4\n      pop\n        /* \"resourceHEI.sol\":2836:3142  function getHeiDetails()... */\n      swap1\n      swap2\n      swap3\n      swap4\n      jump\t// out\n        /* \"resourceHEI.sol\":975:994  file[] public files */\n    tag_72:\n      0x06\n      dup2\n      dup2\n      sload\n      dup2\n      lt\n      tag_126\n      jumpi\n      0x00\n      dup1\n      revert\n    tag_126:\n      swap1\n      0x00\n      mstore\n      keccak256(0x00, 0x20)\n      swap1\n      0x06\n      mul\n      add\n      0x00\n      swap2\n      pop\n      swap1\n      pop\n      dup1\n      0x00\n      add\n      sload\n      swap1\n      dup1\n      0x01\n      add\n      0x00\n      swap1\n      sload\n      swap1\n      0x0100\n      exp\n      swap1\n      div\n      0xffffffffffffffffffffffffffffffffffffffff\n      and\n      swap1\n      dup1\n      0x02\n      add\n      dup1\n      sload\n      tag_128\n      swap1\n      tag_104\n      jump\t// in\n    tag_128:\n      dup1\n      0x1f\n      add\n      0x20\n      dup1\n      swap2\n      div\n      mul\n      0x20\n      add\n      mload(0x40)\n      swap1\n      dup2\n      add\n      0x40\n      mstore\n      dup1\n      swap3\n      swap2\n      swap1\n      dup2\n      dup2\n      mstore\n      0x20\n      add\n      dup3\n      dup1\n      sload\n      tag_129\n      swap1\n      tag_104\n      jump\t// in\n    tag_129:\n      dup1\n      iszero\n      tag_130\n      jumpi\n      dup1\n      0x1f\n      lt\n      tag_131\n      jumpi\n      0x0100\n      dup1\n      dup4\n      sload\n      div\n      mul\n      dup4\n      mstore\n      swap2\n      0x20\n      add\n      swap2\n      jump(tag_130)\n    tag_131:\n      dup3\n      add\n      swap2\n      swap1\n      0x00\n      mstore\n      keccak256(0x00, 0x20)\n      swap1\n    tag_132:\n      dup2\n      sload\n      dup2\n      mstore\n      swap1\n      0x01\n      add\n      swap1\n      0x20\n      add\n      dup1\n      dup4\n      gt\n      tag_132\n      jumpi\n      dup3\n      swap1\n      sub\n      0x1f\n      and\n      dup3\n      add\n      swap2\n    tag_130:\n      pop\n      pop\n      pop\n      pop\n      pop\n      swap1\n      dup1\n      0x03\n      add\n      sload\n      swap1\n      dup1\n      0x04\n      add\n      sload\n      swap1\n      dup1\n      0x05\n      add\n      sload\n      swap1\n      pop\n      dup7\n      jump\t// out\n        /* \"resourceHEI.sol\":2139:2227  function getAllFiles() public view returns (file[] memory){... */\n    tag_77:\n        /* \"resourceHEI.sol\":2183:2196  file[] memory */\n      0x60\n        /* \"resourceHEI.sol\":2215:2220  files */\n      0x06\n        /* \"resourceHEI.sol\":2207:2220  return  files */\n      dup1\n      sload\n      dup1\n      0x20\n      mul\n      0x20\n      add\n      mload(0x40)\n      swap1\n      dup2\n      add\n      0x40\n      mstore\n      dup1\n      swap3\n      swap2\n      swap1\n      dup2\n      dup2\n      mstore\n      0x20\n      add\n      0x00\n      swap1\n    tag_134:\n      dup3\n      dup3\n      lt\n      iszero\n      tag_135\n      jumpi\n      dup4\n      dup3\n      swap1\n      0x00\n      mstore\n      keccak256(0x00, 0x20)\n      swap1\n      0x06\n      mul\n      add\n      mload(0x40)\n      dup1\n      0xc0\n      add\n      0x40\n      mstore\n      swap1\n      dup2\n      0x00\n      dup3\n      add\n      sload\n      dup2\n      mstore\n      0x20\n      add\n      0x01\n      dup3\n      add\n      0x00\n      swap1\n      sload\n      swap1\n      0x0100\n      exp\n      swap1\n      div\n      0xffffffffffffffffffffffffffffffffffffffff\n      and\n      0xffffffffffffffffffffffffffffffffffffffff\n      and\n      0xffffffffffffffffffffffffffffffffffffffff\n      and\n      dup2\n      mstore\n      0x20\n      add\n      0x02\n      dup3\n      add\n      dup1\n      sload\n      tag_137\n      swap1\n      tag_104\n      jump\t// in\n    tag_137:\n      dup1\n      0x1f\n      add\n      0x20\n      dup1\n      swap2\n      div\n      mul\n      0x20\n      add\n      mload(0x40)\n      swap1\n      dup2\n      add\n      0x40\n      mstore\n      dup1\n      swap3\n      swap2\n      swap1\n      dup2\n      dup2\n      mstore\n      0x20\n      add\n      dup3\n      dup1\n      sload\n      tag_138\n      swap1\n      tag_104\n      jump\t// in\n    tag_138:\n      dup1\n      iszero\n      tag_139\n      jumpi\n      dup1\n      0x1f\n      lt\n      tag_140\n      jumpi\n      0x0100\n      dup1\n      dup4\n      sload\n      div\n      mul\n      dup4\n      mstore\n      swap2\n      0x20\n      add\n      swap2\n      jump(tag_139)\n    tag_140:\n      dup3\n      add\n      swap2\n      swap1\n      0x00\n      mstore\n      keccak256(0x00, 0x20)\n      swap1\n    tag_141:\n      dup2\n      sload\n      dup2\n      mstore\n      swap1\n      0x01\n      add\n      swap1\n      0x20\n      add\n      dup1\n      dup4\n      gt\n      tag_141\n      jumpi\n      dup3\n      swap1\n      sub\n      0x1f\n      and\n      dup3\n      add\n      swap2\n    tag_139:\n      pop\n      pop\n      pop\n      pop\n      pop\n      dup2\n      mstore\n      0x20\n      add\n      0x03\n      dup3\n      add\n      sload\n      dup2\n      mstore\n      0x20\n      add\n      0x04\n      dup3\n      add\n      sload\n      dup2\n      mstore\n      0x20\n      add\n      0x05\n      dup3\n      add\n      sload\n      dup2\n      mstore\n      pop\n      pop\n      dup2\n      mstore\n      0x20\n      add\n      swap1\n      0x01\n      add\n      swap1\n      jump(tag_134)\n    tag_135:\n      pop\n      pop\n      pop\n      pop\n      swap1\n      pop\n        /* \"resourceHEI.sol\":2139:2227  function getAllFiles() public view returns (file[] memory){... */\n      swap1\n      jump\t// out\n        /* \"#utility.yul\":7:84   */\n    tag_142:\n        /* \"#utility.yul\":44:51   */\n      0x00\n        /* \"#utility.yul\":73:78   */\n      dup2\n        /* \"#utility.yul\":62:78   */\n      swap1\n      pop\n        /* \"#utility.yul\":7:84   */\n      swap2\n      swap1\n      pop\n      jump\t// out\n        /* \"#utility.yul\":90:208   */\n    tag_143:\n        /* \"#utility.yul\":177:201   */\n      tag_211\n        /* \"#utility.yul\":195:200   */\n      dup2\n        /* \"#utility.yul\":177:201   */\n      tag_142\n      jump\t// in\n    tag_211:\n        /* \"#utility.yul\":172:175   */\n      dup3\n        /* \"#utility.yul\":165:202   */\n      mstore\n        /* \"#utility.yul\":90:208   */\n      pop\n      pop\n      jump\t// out\n        /* \"#utility.yul\":214:436   */\n    tag_21:\n        /* \"#utility.yul\":307:311   */\n      0x00\n        /* \"#utility.yul\":345:347   */\n      0x20\n        /* \"#utility.yul\":334:343   */\n      dup3\n        /* \"#utility.yul\":330:348   */\n      add\n        /* \"#utility.yul\":322:348   */\n      swap1\n      pop\n        /* \"#utility.yul\":358:429   */\n      tag_213\n        /* \"#utility.yul\":426:427   */\n      0x00\n        /* \"#utility.yul\":415:424   */\n      dup4\n        /* \"#utility.yul\":411:428   */\n      add\n        /* \"#utility.yul\":402:408   */\n      dup5\n        /* \"#utility.yul\":358:429   */\n      tag_143\n      jump\t// in\n    tag_213:\n        /* \"#utility.yul\":214:436   */\n      swap3\n      swap2\n      pop\n      pop\n      jump\t// out\n        /* \"#utility.yul\":442:568   */\n    tag_144:\n        /* \"#utility.yul\":479:486   */\n      0x00\n        /* \"#utility.yul\":519:561   */\n      0xffffffffffffffffffffffffffffffffffffffff\n        /* \"#utility.yul\":512:517   */\n      dup3\n        /* \"#utility.yul\":508:562   */\n      and\n        /* \"#utility.yul\":497:562   */\n      swap1\n      pop\n        /* \"#utility.yul\":442:568   */\n      swap2\n      swap1\n      pop\n      jump\t// out\n        /* \"#utility.yul\":574:670   */\n    tag_145:\n        /* \"#utility.yul\":611:618   */\n      0x00\n        /* \"#utility.yul\":640:664   */\n      tag_216\n        /* \"#utility.yul\":658:663   */\n      dup3\n        /* \"#utility.yul\":640:664   */\n      tag_144\n      jump\t// in\n    tag_216:\n        /* \"#utility.yul\":629:664   */\n      swap1\n      pop\n        /* \"#utility.yul\":574:670   */\n      swap2\n      swap1\n      pop\n      jump\t// out\n        /* \"#utility.yul\":676:794   */\n    tag_146:\n        /* \"#utility.yul\":763:787   */\n      tag_218\n        /* \"#utility.yul\":781:786   */\n      dup2\n        /* \"#utility.yul\":763:787   */\n      tag_145\n      jump\t// in\n    tag_218:\n        /* \"#utility.yul\":758:761   */\n      dup3\n        /* \"#utility.yul\":751:788   */\n      mstore\n        /* \"#utility.yul\":676:794   */\n      pop\n      pop\n      jump\t// out\n        /* \"#utility.yul\":800:1022   */\n    tag_32:\n        /* \"#utility.yul\":893:897   */\n      0x00\n        /* \"#utility.yul\":931:933   */\n      0x20\n        /* \"#utility.yul\":920:929   */\n      dup3\n        /* \"#utility.yul\":916:934   */\n      add\n        /* \"#utility.yul\":908:934   */\n      swap1\n      pop\n        /* \"#utility.yul\":944:1015   */\n      tag_220\n        /* \"#utility.yul\":1012:1013   */\n      0x00\n        /* \"#utility.yul\":1001:1010   */\n      dup4\n        /* \"#utility.yul\":997:1014   */\n      add\n        /* \"#utility.yul\":988:994   */\n      dup5\n        /* \"#utility.yul\":944:1015   */\n      tag_146\n      jump\t// in\n    tag_220:\n        /* \"#utility.yul\":800:1022   */\n      swap3\n      swap2\n      pop\n      pop\n      jump\t// out\n        /* \"#utility.yul\":1028:1103   */\n    tag_147:\n        /* \"#utility.yul\":1061:1067   */\n      0x00\n        /* \"#utility.yul\":1094:1096   */\n      0x40\n        /* \"#utility.yul\":1088:1097   */\n      mload\n        /* \"#utility.yul\":1078:1097   */\n      swap1\n      pop\n        /* \"#utility.yul\":1028:1103   */\n      swap1\n      jump\t// out\n        /* \"#utility.yul\":1109:1226   */\n    tag_148:\n        /* \"#utility.yul\":1218:1219   */\n      0x00\n        /* \"#utility.yul\":1215:1216   */\n      dup1\n        /* \"#utility.yul\":1208:1220   */\n      revert\n        /* \"#utility.yul\":1232:1349   */\n    tag_149:\n        /* \"#utility.yul\":1341:1342   */\n      0x00\n        /* \"#utility.yul\":1338:1339   */\n      dup1\n        /* \"#utility.yul\":1331:1343   */\n      revert\n        /* \"#utility.yul\":1355:1477   */\n    tag_150:\n        /* \"#utility.yul\":1428:1452   */\n      tag_225\n        /* \"#utility.yul\":1446:1451   */\n      dup2\n        /* \"#utility.yul\":1428:1452   */\n      tag_142\n      jump\t// in\n    tag_225:\n        /* \"#utility.yul\":1421:1426   */\n      dup2\n        /* \"#utility.yul\":1418:1453   */\n      eq\n        /* \"#utility.yul\":1408:1471   */\n      tag_226\n      jumpi\n        /* \"#utility.yul\":1467:1468   */\n      0x00\n        /* \"#utility.yul\":1464:1465   */\n      dup1\n        /* \"#utility.yul\":1457:1469   */\n      revert\n        /* \"#utility.yul\":1408:1471   */\n    tag_226:\n        /* \"#utility.yul\":1355:1477   */\n      pop\n      jump\t// out\n        /* \"#utility.yul\":1483:1622   */\n    tag_151:\n        /* \"#utility.yul\":1529:1534   */\n      0x00\n        /* \"#utility.yul\":1567:1573   */\n      dup2\n        /* \"#utility.yul\":1554:1574   */\n      calldataload\n        /* \"#utility.yul\":1545:1574   */\n      swap1\n      pop\n        /* \"#utility.yul\":1583:1616   */\n      tag_228\n        /* \"#utility.yul\":1610:1615   */\n      dup2\n        /* \"#utility.yul\":1583:1616   */\n      tag_150\n      jump\t// in\n    tag_228:\n        /* \"#utility.yul\":1483:1622   */\n      swap3\n      swap2\n      pop\n      pop\n      jump\t// out\n        /* \"#utility.yul\":1628:1957   */\n    tag_35:\n        /* \"#utility.yul\":1687:1693   */\n      0x00\n        /* \"#utility.yul\":1736:1738   */\n      0x20\n        /* \"#utility.yul\":1724:1733   */\n      dup3\n        /* \"#utility.yul\":1715:1722   */\n      dup5\n        /* \"#utility.yul\":1711:1734   */\n      sub\n        /* \"#utility.yul\":1707:1739   */\n      slt\n        /* \"#utility.yul\":1704:1823   */\n      iszero\n      tag_230\n      jumpi\n        /* \"#utility.yul\":1742:1821   */\n      tag_231\n      tag_148\n      jump\t// in\n    tag_231:\n        /* \"#utility.yul\":1704:1823   */\n    tag_230:\n        /* \"#utility.yul\":1862:1863   */\n      0x00\n        /* \"#utility.yul\":1887:1940   */\n      tag_232\n        /* \"#utility.yul\":1932:1939   */\n      dup5\n        /* \"#utility.yul\":1923:1929   */\n      dup3\n        /* \"#utility.yul\":1912:1921   */\n      dup6\n        /* \"#utility.yul\":1908:1930   */\n      add\n        /* \"#utility.yul\":1887:1940   */\n      tag_151\n      jump\t// in\n    tag_232:\n        /* \"#utility.yul\":1877:1940   */\n      swap2\n      pop\n        /* \"#utility.yul\":1833:1950   */\n      pop\n        /* \"#utility.yul\":1628:1957   */\n      swap3\n      swap2\n      pop\n      pop\n      jump\t// out\n        /* \"#utility.yul\":1963:2062   */\n    tag_152:\n        /* \"#utility.yul\":2015:2021   */\n      0x00\n        /* \"#utility.yul\":2049:2054   */\n      dup2\n        /* \"#utility.yul\":2043:2055   */\n      mload\n        /* \"#utility.yul\":2033:2055   */\n      swap1\n      pop\n        /* \"#utility.yul\":1963:2062   */\n      swap2\n      swap1\n      pop\n      jump\t// out\n        /* \"#utility.yul\":2068:2237   */\n    tag_153:\n        /* \"#utility.yul\":2152:2163   */\n      0x00\n        /* \"#utility.yul\":2186:2192   */\n      dup3\n        /* \"#utility.yul\":2181:2184   */\n      dup3\n        /* \"#utility.yul\":2174:2193   */\n      mstore\n        /* \"#utility.yul\":2226:2230   */\n      0x20\n        /* \"#utility.yul\":2221:2224   */\n      dup3\n        /* \"#utility.yul\":2217:2231   */\n      add\n        /* \"#utility.yul\":2202:2231   */\n      swap1\n      pop\n        /* \"#utility.yul\":2068:2237   */\n      swap3\n      swap2\n      pop\n      pop\n      jump\t// out\n        /* \"#utility.yul\":2243:2489   */\n    tag_154:\n        /* \"#utility.yul\":2324:2325   */\n      0x00\n        /* \"#utility.yul\":2334:2447   */\n    tag_236:\n        /* \"#utility.yul\":2348:2354   */\n      dup4\n        /* \"#utility.yul\":2345:2346   */\n      dup2\n        /* \"#utility.yul\":2342:2355   */\n      lt\n        /* \"#utility.yul\":2334:2447   */\n      iszero\n      tag_238\n      jumpi\n        /* \"#utility.yul\":2433:2434   */\n      dup1\n        /* \"#utility.yul\":2428:2431   */\n      dup3\n        /* \"#utility.yul\":2424:2435   */\n      add\n        /* \"#utility.yul\":2418:2436   */\n      mload\n        /* \"#utility.yul\":2414:2415   */\n      dup2\n        /* \"#utility.yul\":2409:2412   */\n      dup5\n        /* \"#utility.yul\":2405:2416   */\n      add\n        /* \"#utility.yul\":2398:2437   */\n      mstore\n        /* \"#utility.yul\":2370:2372   */\n      0x20\n        /* \"#utility.yul\":2367:2368   */\n      dup2\n        /* \"#utility.yul\":2363:2373   */\n      add\n        /* \"#utility.yul\":2358:2373   */\n      swap1\n      pop\n        /* \"#utility.yul\":2334:2447   */\n      jump(tag_236)\n    tag_238:\n        /* \"#utility.yul\":2481:2482   */\n      0x00\n        /* \"#utility.yul\":2472:2478   */\n      dup5\n        /* \"#utility.yul\":2467:2470   */\n      dup5\n        /* \"#utility.yul\":2463:2479   */\n      add\n        /* \"#utility.yul\":2456:2483   */\n      mstore\n        /* \"#utility.yul\":2305:2489   */\n      pop\n        /* \"#utility.yul\":2243:2489   */\n      pop\n      pop\n      pop\n      jump\t// out\n        /* \"#utility.yul\":2495:2597   */\n    tag_155:\n        /* \"#utility.yul\":2536:2542   */\n      0x00\n        /* \"#utility.yul\":2587:2589   */\n      0x1f\n        /* \"#utility.yul\":2583:2590   */\n      not\n        /* \"#utility.yul\":2578:2580   */\n      0x1f\n        /* \"#utility.yul\":2571:2576   */\n      dup4\n        /* \"#utility.yul\":2567:2581   */\n      add\n        /* \"#utility.yul\":2563:2591   */\n      and\n        /* \"#utility.yul\":2553:2591   */\n      swap1\n      pop\n        /* \"#utility.yul\":2495:2597   */\n      swap2\n      swap1\n      pop\n      jump\t// out\n        /* \"#utility.yul\":2603:2980   */\n    tag_156:\n        /* \"#utility.yul\":2691:2694   */\n      0x00\n        /* \"#utility.yul\":2719:2758   */\n      tag_241\n        /* \"#utility.yul\":2752:2757   */\n      dup3\n        /* \"#utility.yul\":2719:2758   */\n      tag_152\n      jump\t// in\n    tag_241:\n        /* \"#utility.yul\":2774:2845   */\n      tag_242\n        /* \"#utility.yul\":2838:2844   */\n      dup2\n        /* \"#utility.yul\":2833:2836   */\n      dup6\n        /* \"#utility.yul\":2774:2845   */\n      tag_153\n      jump\t// in\n    tag_242:\n        /* \"#utility.yul\":2767:2845   */\n      swap4\n      pop\n        /* \"#utility.yul\":2854:2919   */\n      tag_243\n        /* \"#utility.yul\":2912:2918   */\n      dup2\n        /* \"#utility.yul\":2907:2910   */\n      dup6\n        /* \"#utility.yul\":2900:2904   */\n      0x20\n        /* \"#utility.yul\":2893:2898   */\n      dup7\n        /* \"#utility.yul\":2889:2905   */\n      add\n        /* \"#utility.yul\":2854:2919   */\n      tag_154\n      jump\t// in\n    tag_243:\n        /* \"#utility.yul\":2944:2973   */\n      tag_244\n        /* \"#utility.yul\":2966:2972   */\n      dup2\n        /* \"#utility.yul\":2944:2973   */\n      tag_155\n      jump\t// in\n    tag_244:\n        /* \"#utility.yul\":2939:2942   */\n      dup5\n        /* \"#utility.yul\":2935:2974   */\n      add\n        /* \"#utility.yul\":2928:2974   */\n      swap2\n      pop\n        /* \"#utility.yul\":2695:2980   */\n      pop\n        /* \"#utility.yul\":2603:2980   */\n      swap3\n      swap2\n      pop\n      pop\n      jump\t// out\n        /* \"#utility.yul\":2986:3299   */\n    tag_38:\n        /* \"#utility.yul\":3099:3103   */\n      0x00\n        /* \"#utility.yul\":3137:3139   */\n      0x20\n        /* \"#utility.yul\":3126:3135   */\n      dup3\n        /* \"#utility.yul\":3122:3140   */\n      add\n        /* \"#utility.yul\":3114:3140   */\n      swap1\n      pop\n        /* \"#utility.yul\":3186:3195   */\n      dup2\n        /* \"#utility.yul\":3180:3184   */\n      dup2\n        /* \"#utility.yul\":3176:3196   */\n      sub\n        /* \"#utility.yul\":3172:3173   */\n      0x00\n        /* \"#utility.yul\":3161:3170   */\n      dup4\n        /* \"#utility.yul\":3157:3174   */\n      add\n        /* \"#utility.yul\":3150:3197   */\n      mstore\n        /* \"#utility.yul\":3214:3292   */\n      tag_246\n        /* \"#utility.yul\":3287:3291   */\n      dup2\n        /* \"#utility.yul\":3278:3284   */\n      dup5\n        /* \"#utility.yul\":3214:3292   */\n      tag_156\n      jump\t// in\n    tag_246:\n        /* \"#utility.yul\":3206:3292   */\n      swap1\n      pop\n        /* \"#utility.yul\":2986:3299   */\n      swap3\n      swap2\n      pop\n      pop\n      jump\t// out\n        /* \"#utility.yul\":3305:3427   */\n    tag_157:\n        /* \"#utility.yul\":3378:3402   */\n      tag_248\n        /* \"#utility.yul\":3396:3401   */\n      dup2\n        /* \"#utility.yul\":3378:3402   */\n      tag_145\n      jump\t// in\n    tag_248:\n        /* \"#utility.yul\":3371:3376   */\n      dup2\n        /* \"#utility.yul\":3368:3403   */\n      eq\n        /* \"#utility.yul\":3358:3421   */\n      tag_249\n      jumpi\n        /* \"#utility.yul\":3417:3418   */\n      0x00\n        /* \"#utility.yul\":3414:3415   */\n      dup1\n        /* \"#utility.yul\":3407:3419   */\n      revert\n        /* \"#utility.yul\":3358:3421   */\n    tag_249:\n        /* \"#utility.yul\":3305:3427   */\n      pop\n      jump\t// out\n        /* \"#utility.yul\":3433:3572   */\n    tag_158:\n        /* \"#utility.yul\":3479:3484   */\n      0x00\n        /* \"#utility.yul\":3517:3523   */\n      dup2\n        /* \"#utility.yul\":3504:3524   */\n      calldataload\n        /* \"#utility.yul\":3495:3524   */\n      swap1\n      pop\n        /* \"#utility.yul\":3533:3566   */\n      tag_251\n        /* \"#utility.yul\":3560:3565   */\n      dup2\n        /* \"#utility.yul\":3533:3566   */\n      tag_157\n      jump\t// in\n    tag_251:\n        /* \"#utility.yul\":3433:3572   */\n      swap3\n      swap2\n      pop\n      pop\n      jump\t// out\n        /* \"#utility.yul\":3578:3907   */\n    tag_51:\n        /* \"#utility.yul\":3637:3643   */\n      0x00\n        /* \"#utility.yul\":3686:3688   */\n      0x20\n        /* \"#utility.yul\":3674:3683   */\n      dup3\n        /* \"#utility.yul\":3665:3672   */\n      dup5\n        /* \"#utility.yul\":3661:3684   */\n      sub\n        /* \"#utility.yul\":3657:3689   */\n      slt\n        /* \"#utility.yul\":3654:3773   */\n      iszero\n      tag_253\n      jumpi\n        /* \"#utility.yul\":3692:3771   */\n      tag_254\n      tag_148\n      jump\t// in\n    tag_254:\n        /* \"#utility.yul\":3654:3773   */\n    tag_253:\n        /* \"#utility.yul\":3812:3813   */\n      0x00\n        /* \"#utility.yul\":3837:3890   */\n      tag_255\n        /* \"#utility.yul\":3882:3889   */\n      dup5\n        /* \"#utility.yul\":3873:3879   */\n      dup3\n        /* \"#utility.yul\":3862:3871   */\n      dup6\n        /* \"#utility.yul\":3858:3880   */\n      add\n        /* \"#utility.yul\":3837:3890   */\n      tag_158\n      jump\t// in\n    tag_255:\n        /* \"#utility.yul\":3827:3890   */\n      swap2\n      pop\n        /* \"#utility.yul\":3783:3900   */\n      pop\n        /* \"#utility.yul\":3578:3907   */\n      swap3\n      swap2\n      pop\n      pop\n      jump\t// out\n        /* \"#utility.yul\":3913:4003   */\n    tag_159:\n        /* \"#utility.yul\":3947:3954   */\n      0x00\n        /* \"#utility.yul\":3990:3995   */\n      dup2\n        /* \"#utility.yul\":3983:3996   */\n      iszero\n        /* \"#utility.yul\":3976:3997   */\n      iszero\n        /* \"#utility.yul\":3965:3997   */\n      swap1\n      pop\n        /* \"#utility.yul\":3913:4003   */\n      swap2\n      swap1\n      pop\n      jump\t// out\n        /* \"#utility.yul\":4009:4118   */\n    tag_160:\n        /* \"#utility.yul\":4090:4111   */\n      tag_258\n        /* \"#utility.yul\":4105:4110   */\n      dup2\n        /* \"#utility.yul\":4090:4111   */\n      tag_159\n      jump\t// in\n    tag_258:\n        /* \"#utility.yul\":4085:4088   */\n      dup3\n        /* \"#utility.yul\":4078:4112   */\n      mstore\n        /* \"#utility.yul\":4009:4118   */\n      pop\n      pop\n      jump\t// out\n        /* \"#utility.yul\":4124:4334   */\n    tag_54:\n        /* \"#utility.yul\":4211:4215   */\n      0x00\n        /* \"#utility.yul\":4249:4251   */\n      0x20\n        /* \"#utility.yul\":4238:4247   */\n      dup3\n        /* \"#utility.yul\":4234:4252   */\n      add\n        /* \"#utility.yul\":4226:4252   */\n      swap1\n      pop\n        /* \"#utility.yul\":4262:4327   */\n      tag_260\n        /* \"#utility.yul\":4324:4325   */\n      0x00\n        /* \"#utility.yul\":4313:4322   */\n      dup4\n        /* \"#utility.yul\":4309:4326   */\n      add\n        /* \"#utility.yul\":4300:4306   */\n      dup5\n        /* \"#utility.yul\":4262:4327   */\n      tag_160\n      jump\t// in\n    tag_260:\n        /* \"#utility.yul\":4124:4334   */\n      swap3\n      swap2\n      pop\n      pop\n      jump\t// out\n        /* \"#utility.yul\":4340:4457   */\n    tag_161:\n        /* \"#utility.yul\":4449:4450   */\n      0x00\n        /* \"#utility.yul\":4446:4447   */\n      dup1\n        /* \"#utility.yul\":4439:4451   */\n      revert\n        /* \"#utility.yul\":4463:4580   */\n    tag_162:\n        /* \"#utility.yul\":4572:4573   */\n      0x00\n        /* \"#utility.yul\":4569:4570   */\n      dup1\n        /* \"#utility.yul\":4562:4574   */\n      revert\n        /* \"#utility.yul\":4586:4766   */\n    tag_163:\n        /* \"#utility.yul\":4634:4711   */\n      0x4e487b7100000000000000000000000000000000000000000000000000000000\n        /* \"#utility.yul\":4631:4632   */\n      0x00\n        /* \"#utility.yul\":4624:4712   */\n      mstore\n        /* \"#utility.yul\":4731:4735   */\n      0x41\n        /* \"#utility.yul\":4728:4729   */\n      0x04\n        /* \"#utility.yul\":4721:4736   */\n      mstore\n        /* \"#utility.yul\":4755:4759   */\n      0x24\n        /* \"#utility.yul\":4752:4753   */\n      0x00\n        /* \"#utility.yul\":4745:4760   */\n      revert\n        /* \"#utility.yul\":4772:5053   */\n    tag_164:\n        /* \"#utility.yul\":4855:4882   */\n      tag_265\n        /* \"#utility.yul\":4877:4881   */\n      dup3\n        /* \"#utility.yul\":4855:4882   */\n      tag_155\n      jump\t// in\n    tag_265:\n        /* \"#utility.yul\":4847:4853   */\n      dup2\n        /* \"#utility.yul\":4843:4883   */\n      add\n        /* \"#utility.yul\":4985:4991   */\n      dup2\n        /* \"#utility.yul\":4973:4983   */\n      dup2\n        /* \"#utility.yul\":4970:4992   */\n      lt\n        /* \"#utility.yul\":4949:4967   */\n      0xffffffffffffffff\n        /* \"#utility.yul\":4937:4947   */\n      dup3\n        /* \"#utility.yul\":4934:4968   */\n      gt\n        /* \"#utility.yul\":4931:4993   */\n      or\n        /* \"#utility.yul\":4928:5016   */\n      iszero\n      tag_266\n      jumpi\n        /* \"#utility.yul\":4996:5014   */\n      tag_267\n      tag_163\n      jump\t// in\n    tag_267:\n        /* \"#utility.yul\":4928:5016   */\n    tag_266:\n        /* \"#utility.yul\":5036:5046   */\n      dup1\n        /* \"#utility.yul\":5032:5034   */\n      0x40\n        /* \"#utility.yul\":5025:5047   */\n      mstore\n        /* \"#utility.yul\":4815:5053   */\n      pop\n        /* \"#utility.yul\":4772:5053   */\n      pop\n      pop\n      jump\t// out\n        /* \"#utility.yul\":5059:5188   */\n    tag_165:\n        /* \"#utility.yul\":5093:5099   */\n      0x00\n        /* \"#utility.yul\":5120:5140   */\n      tag_269\n      tag_147\n      jump\t// in\n    tag_269:\n        /* \"#utility.yul\":5110:5140   */\n      swap1\n      pop\n        /* \"#utility.yul\":5149:5182   */\n      tag_270\n        /* \"#utility.yul\":5177:5181   */\n      dup3\n        /* \"#utility.yul\":5169:5175   */\n      dup3\n        /* \"#utility.yul\":5149:5182   */\n      tag_164\n      jump\t// in\n    tag_270:\n        /* \"#utility.yul\":5059:5188   */\n      swap2\n      swap1\n      pop\n      jump\t// out\n        /* \"#utility.yul\":5194:5502   */\n    tag_166:\n        /* \"#utility.yul\":5256:5260   */\n      0x00\n        /* \"#utility.yul\":5346:5364   */\n      0xffffffffffffffff\n        /* \"#utility.yul\":5338:5344   */\n      dup3\n        /* \"#utility.yul\":5335:5365   */\n      gt\n        /* \"#utility.yul\":5332:5388   */\n      iszero\n      tag_272\n      jumpi\n        /* \"#utility.yul\":5368:5386   */\n      tag_273\n      tag_163\n      jump\t// in\n    tag_273:\n        /* \"#utility.yul\":5332:5388   */\n    tag_272:\n        /* \"#utility.yul\":5406:5435   */\n      tag_274\n        /* \"#utility.yul\":5428:5434   */\n      dup3\n        /* \"#utility.yul\":5406:5435   */\n      tag_155\n      jump\t// in\n    tag_274:\n        /* \"#utility.yul\":5398:5435   */\n      swap1\n      pop\n        /* \"#utility.yul\":5490:5494   */\n      0x20\n        /* \"#utility.yul\":5484:5488   */\n      dup2\n        /* \"#utility.yul\":5480:5495   */\n      add\n        /* \"#utility.yul\":5472:5495   */\n      swap1\n      pop\n        /* \"#utility.yul\":5194:5502   */\n      swap2\n      swap1\n      pop\n      jump\t// out\n        /* \"#utility.yul\":5508:5654   */\n    tag_167:\n        /* \"#utility.yul\":5605:5611   */\n      dup3\n        /* \"#utility.yul\":5600:5603   */\n      dup2\n        /* \"#utility.yul\":5595:5598   */\n      dup4\n        /* \"#utility.yul\":5582:5612   */\n      calldatacopy\n        /* \"#utility.yul\":5646:5647   */\n      0x00\n        /* \"#utility.yul\":5637:5643   */\n      dup4\n        /* \"#utility.yul\":5632:5635   */\n      dup4\n        /* \"#utility.yul\":5628:5644   */\n      add\n        /* \"#utility.yul\":5621:5648   */\n      mstore\n        /* \"#utility.yul\":5508:5654   */\n      pop\n      pop\n      pop\n      jump\t// out\n        /* \"#utility.yul\":5660:6085   */\n    tag_168:\n        /* \"#utility.yul\":5738:5743   */\n      0x00\n        /* \"#utility.yul\":5763:5829   */\n      tag_277\n        /* \"#utility.yul\":5779:5828   */\n      tag_278\n        /* \"#utility.yul\":5821:5827   */\n      dup5\n        /* \"#utility.yul\":5779:5828   */\n      tag_166\n      jump\t// in\n    tag_278:\n        /* \"#utility.yul\":5763:5829   */\n      tag_165\n      jump\t// in\n    tag_277:\n        /* \"#utility.yul\":5754:5829   */\n      swap1\n      pop\n        /* \"#utility.yul\":5852:5858   */\n      dup3\n        /* \"#utility.yul\":5845:5850   */\n      dup2\n        /* \"#utility.yul\":5838:5859   */\n      mstore\n        /* \"#utility.yul\":5890:5894   */\n      0x20\n        /* \"#utility.yul\":5883:5888   */\n      dup2\n        /* \"#utility.yul\":5879:5895   */\n      add\n        /* \"#utility.yul\":5928:5931   */\n      dup5\n        /* \"#utility.yul\":5919:5925   */\n      dup5\n        /* \"#utility.yul\":5914:5917   */\n      dup5\n        /* \"#utility.yul\":5910:5926   */\n      add\n        /* \"#utility.yul\":5907:5932   */\n      gt\n        /* \"#utility.yul\":5904:6016   */\n      iszero\n      tag_279\n      jumpi\n        /* \"#utility.yul\":5935:6014   */\n      tag_280\n      tag_162\n      jump\t// in\n    tag_280:\n        /* \"#utility.yul\":5904:6016   */\n    tag_279:\n        /* \"#utility.yul\":6025:6079   */\n      tag_281\n        /* \"#utility.yul\":6072:6078   */\n      dup5\n        /* \"#utility.yul\":6067:6070   */\n      dup3\n        /* \"#utility.yul\":6062:6065   */\n      dup6\n        /* \"#utility.yul\":6025:6079   */\n      tag_167\n      jump\t// in\n    tag_281:\n        /* \"#utility.yul\":5744:6085   */\n      pop\n        /* \"#utility.yul\":5660:6085   */\n      swap4\n      swap3\n      pop\n      pop\n      pop\n      jump\t// out\n        /* \"#utility.yul\":6105:6445   */\n    tag_169:\n        /* \"#utility.yul\":6161:6166   */\n      0x00\n        /* \"#utility.yul\":6210:6213   */\n      dup3\n        /* \"#utility.yul\":6203:6207   */\n      0x1f\n        /* \"#utility.yul\":6195:6201   */\n      dup4\n        /* \"#utility.yul\":6191:6208   */\n      add\n        /* \"#utility.yul\":6187:6214   */\n      slt\n        /* \"#utility.yul\":6177:6299   */\n      tag_283\n      jumpi\n        /* \"#utility.yul\":6218:6297   */\n      tag_284\n      tag_161\n      jump\t// in\n    tag_284:\n        /* \"#utility.yul\":6177:6299   */\n    tag_283:\n        /* \"#utility.yul\":6335:6341   */\n      dup2\n        /* \"#utility.yul\":6322:6342   */\n      calldataload\n        /* \"#utility.yul\":6360:6439   */\n      tag_285\n        /* \"#utility.yul\":6435:6438   */\n      dup5\n        /* \"#utility.yul\":6427:6433   */\n      dup3\n        /* \"#utility.yul\":6420:6424   */\n      0x20\n        /* \"#utility.yul\":6412:6418   */\n      dup7\n        /* \"#utility.yul\":6408:6425   */\n      add\n        /* \"#utility.yul\":6360:6439   */\n      tag_168\n      jump\t// in\n    tag_285:\n        /* \"#utility.yul\":6351:6439   */\n      swap2\n      pop\n        /* \"#utility.yul\":6167:6445   */\n      pop\n        /* \"#utility.yul\":6105:6445   */\n      swap3\n      swap2\n      pop\n      pop\n      jump\t// out\n        /* \"#utility.yul\":6451:6555   */\n    tag_170:\n        /* \"#utility.yul\":6496:6503   */\n      0x00\n        /* \"#utility.yul\":6525:6549   */\n      tag_287\n        /* \"#utility.yul\":6543:6548   */\n      dup3\n        /* \"#utility.yul\":6525:6549   */\n      tag_144\n      jump\t// in\n    tag_287:\n        /* \"#utility.yul\":6514:6549   */\n      swap1\n      pop\n        /* \"#utility.yul\":6451:6555   */\n      swap2\n      swap1\n      pop\n      jump\t// out\n        /* \"#utility.yul\":6561:6699   */\n    tag_171:\n        /* \"#utility.yul\":6642:6674   */\n      tag_289\n        /* \"#utility.yul\":6668:6673   */\n      dup2\n        /* \"#utility.yul\":6642:6674   */\n      tag_170\n      jump\t// in\n    tag_289:\n        /* \"#utility.yul\":6635:6640   */\n      dup2\n        /* \"#utility.yul\":6632:6675   */\n      eq\n        /* \"#utility.yul\":6622:6693   */\n      tag_290\n      jumpi\n        /* \"#utility.yul\":6689:6690   */\n      0x00\n        /* \"#utility.yul\":6686:6687   */\n      dup1\n        /* \"#utility.yul\":6679:6691   */\n      revert\n        /* \"#utility.yul\":6622:6693   */\n    tag_290:\n        /* \"#utility.yul\":6561:6699   */\n      pop\n      jump\t// out\n        /* \"#utility.yul\":6705:6860   */\n    tag_172:\n        /* \"#utility.yul\":6759:6764   */\n      0x00\n        /* \"#utility.yul\":6797:6803   */\n      dup2\n        /* \"#utility.yul\":6784:6804   */\n      calldataload\n        /* \"#utility.yul\":6775:6804   */\n      swap1\n      pop\n        /* \"#utility.yul\":6813:6854   */\n      tag_292\n        /* \"#utility.yul\":6848:6853   */\n      dup2\n        /* \"#utility.yul\":6813:6854   */\n      tag_171\n      jump\t// in\n    tag_292:\n        /* \"#utility.yul\":6705:6860   */\n      swap3\n      swap2\n      pop\n      pop\n      jump\t// out\n        /* \"#utility.yul\":6866:8007   */\n    tag_62:\n        /* \"#utility.yul\":6980:6986   */\n      0x00\n        /* \"#utility.yul\":6988:6994   */\n      dup1\n        /* \"#utility.yul\":6996:7002   */\n      0x00\n        /* \"#utility.yul\":7004:7010   */\n      dup1\n        /* \"#utility.yul\":7053:7056   */\n      0x80\n        /* \"#utility.yul\":7041:7050   */\n      dup6\n        /* \"#utility.yul\":7032:7039   */\n      dup8\n        /* \"#utility.yul\":7028:7051   */\n      sub\n        /* \"#utility.yul\":7024:7057   */\n      slt\n        /* \"#utility.yul\":7021:7141   */\n      iszero\n      tag_294\n      jumpi\n        /* \"#utility.yul\":7060:7139   */\n      tag_295\n      tag_148\n      jump\t// in\n    tag_295:\n        /* \"#utility.yul\":7021:7141   */\n    tag_294:\n        /* \"#utility.yul\":7208:7209   */\n      0x00\n        /* \"#utility.yul\":7197:7206   */\n      dup6\n        /* \"#utility.yul\":7193:7210   */\n      add\n        /* \"#utility.yul\":7180:7211   */\n      calldataload\n        /* \"#utility.yul\":7238:7256   */\n      0xffffffffffffffff\n        /* \"#utility.yul\":7230:7236   */\n      dup2\n        /* \"#utility.yul\":7227:7257   */\n      gt\n        /* \"#utility.yul\":7224:7341   */\n      iszero\n      tag_296\n      jumpi\n        /* \"#utility.yul\":7260:7339   */\n      tag_297\n      tag_149\n      jump\t// in\n    tag_297:\n        /* \"#utility.yul\":7224:7341   */\n    tag_296:\n        /* \"#utility.yul\":7365:7428   */\n      tag_298\n        /* \"#utility.yul\":7420:7427   */\n      dup8\n        /* \"#utility.yul\":7411:7417   */\n      dup3\n        /* \"#utility.yul\":7400:7409   */\n      dup9\n        /* \"#utility.yul\":7396:7418   */\n      add\n        /* \"#utility.yul\":7365:7428   */\n      tag_169\n      jump\t// in\n    tag_298:\n        /* \"#utility.yul\":7355:7428   */\n      swap5\n      pop\n        /* \"#utility.yul\":7151:7438   */\n      pop\n        /* \"#utility.yul\":7505:7507   */\n      0x20\n        /* \"#utility.yul\":7494:7503   */\n      dup6\n        /* \"#utility.yul\":7490:7508   */\n      add\n        /* \"#utility.yul\":7477:7509   */\n      calldataload\n        /* \"#utility.yul\":7536:7554   */\n      0xffffffffffffffff\n        /* \"#utility.yul\":7528:7534   */\n      dup2\n        /* \"#utility.yul\":7525:7555   */\n      gt\n        /* \"#utility.yul\":7522:7639   */\n      iszero\n      tag_299\n      jumpi\n        /* \"#utility.yul\":7558:7637   */\n      tag_300\n      tag_149\n      jump\t// in\n    tag_300:\n        /* \"#utility.yul\":7522:7639   */\n    tag_299:\n        /* \"#utility.yul\":7663:7726   */\n      tag_301\n        /* \"#utility.yul\":7718:7725   */\n      dup8\n        /* \"#utility.yul\":7709:7715   */\n      dup3\n        /* \"#utility.yul\":7698:7707   */\n      dup9\n        /* \"#utility.yul\":7694:7716   */\n      add\n        /* \"#utility.yul\":7663:7726   */\n      tag_169\n      jump\t// in\n    tag_301:\n        /* \"#utility.yul\":7653:7726   */\n      swap4\n      pop\n        /* \"#utility.yul\":7448:7736   */\n      pop\n        /* \"#utility.yul\":7775:7777   */\n      0x40\n        /* \"#utility.yul\":7801:7854   */\n      tag_302\n        /* \"#utility.yul\":7846:7853   */\n      dup8\n        /* \"#utility.yul\":7837:7843   */\n      dup3\n        /* \"#utility.yul\":7826:7835   */\n      dup9\n        /* \"#utility.yul\":7822:7844   */\n      add\n        /* \"#utility.yul\":7801:7854   */\n      tag_151\n      jump\t// in\n    tag_302:\n        /* \"#utility.yul\":7791:7854   */\n      swap3\n      pop\n        /* \"#utility.yul\":7746:7864   */\n      pop\n        /* \"#utility.yul\":7903:7905   */\n      0x60\n        /* \"#utility.yul\":7929:7990   */\n      tag_303\n        /* \"#utility.yul\":7982:7989   */\n      dup8\n        /* \"#utility.yul\":7973:7979   */\n      dup3\n        /* \"#utility.yul\":7962:7971   */\n      dup9\n        /* \"#utility.yul\":7958:7980   */\n      add\n        /* \"#utility.yul\":7929:7990   */\n      tag_172\n      jump\t// in\n    tag_303:\n        /* \"#utility.yul\":7919:7990   */\n      swap2\n      pop\n        /* \"#utility.yul\":7874:8000   */\n      pop\n        /* \"#utility.yul\":6866:8007   */\n      swap3\n      swap6\n      swap2\n      swap5\n      pop\n      swap3\n      pop\n      jump\t// out\n        /* \"#utility.yul\":8013:8566   */\n    tag_68:\n        /* \"#utility.yul\":8190:8194   */\n      0x00\n        /* \"#utility.yul\":8228:8231   */\n      0x80\n        /* \"#utility.yul\":8217:8226   */\n      dup3\n        /* \"#utility.yul\":8213:8232   */\n      add\n        /* \"#utility.yul\":8205:8232   */\n      swap1\n      pop\n        /* \"#utility.yul\":8242:8313   */\n      tag_305\n        /* \"#utility.yul\":8310:8311   */\n      0x00\n        /* \"#utility.yul\":8299:8308   */\n      dup4\n        /* \"#utility.yul\":8295:8312   */\n      add\n        /* \"#utility.yul\":8286:8292   */\n      dup8\n        /* \"#utility.yul\":8242:8313   */\n      tag_143\n      jump\t// in\n    tag_305:\n        /* \"#utility.yul\":8323:8395   */\n      tag_306\n        /* \"#utility.yul\":8391:8393   */\n      0x20\n        /* \"#utility.yul\":8380:8389   */\n      dup4\n        /* \"#utility.yul\":8376:8394   */\n      add\n        /* \"#utility.yul\":8367:8373   */\n      dup7\n        /* \"#utility.yul\":8323:8395   */\n      tag_143\n      jump\t// in\n    tag_306:\n        /* \"#utility.yul\":8405:8477   */\n      tag_307\n        /* \"#utility.yul\":8473:8475   */\n      0x40\n        /* \"#utility.yul\":8462:8471   */\n      dup4\n        /* \"#utility.yul\":8458:8476   */\n      add\n        /* \"#utility.yul\":8449:8455   */\n      dup6\n        /* \"#utility.yul\":8405:8477   */\n      tag_143\n      jump\t// in\n    tag_307:\n        /* \"#utility.yul\":8487:8559   */\n      tag_308\n        /* \"#utility.yul\":8555:8557   */\n      0x60\n        /* \"#utility.yul\":8544:8553   */\n      dup4\n        /* \"#utility.yul\":8540:8558   */\n      add\n        /* \"#utility.yul\":8531:8537   */\n      dup5\n        /* \"#utility.yul\":8487:8559   */\n      tag_146\n      jump\t// in\n    tag_308:\n        /* \"#utility.yul\":8013:8566   */\n      swap6\n      swap5\n      pop\n      pop\n      pop\n      pop\n      pop\n      jump\t// out\n        /* \"#utility.yul\":8572:8714   */\n    tag_173:\n        /* \"#utility.yul\":8675:8707   */\n      tag_310\n        /* \"#utility.yul\":8701:8706   */\n      dup2\n        /* \"#utility.yul\":8675:8707   */\n      tag_170\n      jump\t// in\n    tag_310:\n        /* \"#utility.yul\":8670:8673   */\n      dup3\n        /* \"#utility.yul\":8663:8708   */\n      mstore\n        /* \"#utility.yul\":8572:8714   */\n      pop\n      pop\n      jump\t// out\n        /* \"#utility.yul\":8720:9618   */\n    tag_74:\n        /* \"#utility.yul\":8989:8993   */\n      0x00\n        /* \"#utility.yul\":9027:9030   */\n      0xc0\n        /* \"#utility.yul\":9016:9025   */\n      dup3\n        /* \"#utility.yul\":9012:9031   */\n      add\n        /* \"#utility.yul\":9004:9031   */\n      swap1\n      pop\n        /* \"#utility.yul\":9041:9112   */\n      tag_312\n        /* \"#utility.yul\":9109:9110   */\n      0x00\n        /* \"#utility.yul\":9098:9107   */\n      dup4\n        /* \"#utility.yul\":9094:9111   */\n      add\n        /* \"#utility.yul\":9085:9091   */\n      dup10\n        /* \"#utility.yul\":9041:9112   */\n      tag_143\n      jump\t// in\n    tag_312:\n        /* \"#utility.yul\":9122:9210   */\n      tag_313\n        /* \"#utility.yul\":9206:9208   */\n      0x20\n        /* \"#utility.yul\":9195:9204   */\n      dup4\n        /* \"#utility.yul\":9191:9209   */\n      add\n        /* \"#utility.yul\":9182:9188   */\n      dup9\n        /* \"#utility.yul\":9122:9210   */\n      tag_173\n      jump\t// in\n    tag_313:\n        /* \"#utility.yul\":9257:9266   */\n      dup2\n        /* \"#utility.yul\":9251:9255   */\n      dup2\n        /* \"#utility.yul\":9247:9267   */\n      sub\n        /* \"#utility.yul\":9242:9244   */\n      0x40\n        /* \"#utility.yul\":9231:9240   */\n      dup4\n        /* \"#utility.yul\":9227:9245   */\n      add\n        /* \"#utility.yul\":9220:9268   */\n      mstore\n        /* \"#utility.yul\":9285:9363   */\n      tag_314\n        /* \"#utility.yul\":9358:9362   */\n      dup2\n        /* \"#utility.yul\":9349:9355   */\n      dup8\n        /* \"#utility.yul\":9285:9363   */\n      tag_156\n      jump\t// in\n    tag_314:\n        /* \"#utility.yul\":9277:9363   */\n      swap1\n      pop\n        /* \"#utility.yul\":9373:9445   */\n      tag_315\n        /* \"#utility.yul\":9441:9443   */\n      0x60\n        /* \"#utility.yul\":9430:9439   */\n      dup4\n        /* \"#utility.yul\":9426:9444   */\n      add\n        /* \"#utility.yul\":9417:9423   */\n      dup7\n        /* \"#utility.yul\":9373:9445   */\n      tag_143\n      jump\t// in\n    tag_315:\n        /* \"#utility.yul\":9455:9528   */\n      tag_316\n        /* \"#utility.yul\":9523:9526   */\n      0x80\n        /* \"#utility.yul\":9512:9521   */\n      dup4\n        /* \"#utility.yul\":9508:9527   */\n      add\n        /* \"#utility.yul\":9499:9505   */\n      dup6\n        /* \"#utility.yul\":9455:9528   */\n      tag_143\n      jump\t// in\n    tag_316:\n        /* \"#utility.yul\":9538:9611   */\n      tag_317\n        /* \"#utility.yul\":9606:9609   */\n      0xa0\n        /* \"#utility.yul\":9595:9604   */\n      dup4\n        /* \"#utility.yul\":9591:9610   */\n      add\n        /* \"#utility.yul\":9582:9588   */\n      dup5\n        /* \"#utility.yul\":9538:9611   */\n      tag_143\n      jump\t// in\n    tag_317:\n        /* \"#utility.yul\":8720:9618   */\n      swap8\n      swap7\n      pop\n      pop\n      pop\n      pop\n      pop\n      pop\n      pop\n      jump\t// out\n        /* \"#utility.yul\":9624:9758   */\n    tag_174:\n        /* \"#utility.yul\":9711:9717   */\n      0x00\n        /* \"#utility.yul\":9745:9750   */\n      dup2\n        /* \"#utility.yul\":9739:9751   */\n      mload\n        /* \"#utility.yul\":9729:9751   */\n      swap1\n      pop\n        /* \"#utility.yul\":9624:9758   */\n      swap2\n      swap1\n      pop\n      jump\t// out\n        /* \"#utility.yul\":9764:9968   */\n    tag_175:\n        /* \"#utility.yul\":9883:9894   */\n      0x00\n        /* \"#utility.yul\":9917:9923   */\n      dup3\n        /* \"#utility.yul\":9912:9915   */\n      dup3\n        /* \"#utility.yul\":9905:9924   */\n      mstore\n        /* \"#utility.yul\":9957:9961   */\n      0x20\n        /* \"#utility.yul\":9952:9955   */\n      dup3\n        /* \"#utility.yul\":9948:9962   */\n      add\n        /* \"#utility.yul\":9933:9962   */\n      swap1\n      pop\n        /* \"#utility.yul\":9764:9968   */\n      swap3\n      swap2\n      pop\n      pop\n      jump\t// out\n        /* \"#utility.yul\":9974:10126   */\n    tag_176:\n        /* \"#utility.yul\":10061:10065   */\n      0x00\n        /* \"#utility.yul\":10084:10087   */\n      dup2\n        /* \"#utility.yul\":10076:10087   */\n      swap1\n      pop\n        /* \"#utility.yul\":10114:10118   */\n      0x20\n        /* \"#utility.yul\":10109:10112   */\n      dup3\n        /* \"#utility.yul\":10105:10119   */\n      add\n        /* \"#utility.yul\":10097:10119   */\n      swap1\n      pop\n        /* \"#utility.yul\":9974:10126   */\n      swap2\n      swap1\n      pop\n      jump\t// out\n        /* \"#utility.yul\":10132:10240   */\n    tag_177:\n        /* \"#utility.yul\":10209:10233   */\n      tag_322\n        /* \"#utility.yul\":10227:10232   */\n      dup2\n        /* \"#utility.yul\":10209:10233   */\n      tag_142\n      jump\t// in\n    tag_322:\n        /* \"#utility.yul\":10204:10207   */\n      dup3\n        /* \"#utility.yul\":10197:10234   */\n      mstore\n        /* \"#utility.yul\":10132:10240   */\n      pop\n      pop\n      jump\t// out\n        /* \"#utility.yul\":10246:10378   */\n    tag_178:\n        /* \"#utility.yul\":10339:10371   */\n      tag_324\n        /* \"#utility.yul\":10365:10370   */\n      dup2\n        /* \"#utility.yul\":10339:10371   */\n      tag_170\n      jump\t// in\n    tag_324:\n        /* \"#utility.yul\":10334:10337   */\n      dup3\n        /* \"#utility.yul\":10327:10372   */\n      mstore\n        /* \"#utility.yul\":10246:10378   */\n      pop\n      pop\n      jump\t// out\n        /* \"#utility.yul\":10384:10543   */\n    tag_179:\n        /* \"#utility.yul\":10458:10469   */\n      0x00\n        /* \"#utility.yul\":10492:10498   */\n      dup3\n        /* \"#utility.yul\":10487:10490   */\n      dup3\n        /* \"#utility.yul\":10480:10499   */\n      mstore\n        /* \"#utility.yul\":10532:10536   */\n      0x20\n        /* \"#utility.yul\":10527:10530   */\n      dup3\n        /* \"#utility.yul\":10523:10537   */\n      add\n        /* \"#utility.yul\":10508:10537   */\n      swap1\n      pop\n        /* \"#utility.yul\":10384:10543   */\n      swap3\n      swap2\n      pop\n      pop\n      jump\t// out\n        /* \"#utility.yul\":10549:10906   */\n    tag_180:\n        /* \"#utility.yul\":10627:10630   */\n      0x00\n        /* \"#utility.yul\":10655:10694   */\n      tag_327\n        /* \"#utility.yul\":10688:10693   */\n      dup3\n        /* \"#utility.yul\":10655:10694   */\n      tag_152\n      jump\t// in\n    tag_327:\n        /* \"#utility.yul\":10710:10771   */\n      tag_328\n        /* \"#utility.yul\":10764:10770   */\n      dup2\n        /* \"#utility.yul\":10759:10762   */\n      dup6\n        /* \"#utility.yul\":10710:10771   */\n      tag_179\n      jump\t// in\n    tag_328:\n        /* \"#utility.yul\":10703:10771   */\n      swap4\n      pop\n        /* \"#utility.yul\":10780:10845   */\n      tag_329\n        /* \"#utility.yul\":10838:10844   */\n      dup2\n        /* \"#utility.yul\":10833:10836   */\n      dup6\n        /* \"#utility.yul\":10826:10830   */\n      0x20\n        /* \"#utility.yul\":10819:10824   */\n      dup7\n        /* \"#utility.yul\":10815:10831   */\n      add\n        /* \"#utility.yul\":10780:10845   */\n      tag_154\n      jump\t// in\n    tag_329:\n        /* \"#utility.yul\":10870:10899   */\n      tag_330\n        /* \"#utility.yul\":10892:10898   */\n      dup2\n        /* \"#utility.yul\":10870:10899   */\n      tag_155\n      jump\t// in\n    tag_330:\n        /* \"#utility.yul\":10865:10868   */\n      dup5\n        /* \"#utility.yul\":10861:10900   */\n      add\n        /* \"#utility.yul\":10854:10900   */\n      swap2\n      pop\n        /* \"#utility.yul\":10631:10906   */\n      pop\n        /* \"#utility.yul\":10549:10906   */\n      swap3\n      swap2\n      pop\n      pop\n      jump\t// out\n        /* \"#utility.yul\":10964:12303   */\n    tag_181:\n        /* \"#utility.yul\":11063:11066   */\n      0x00\n        /* \"#utility.yul\":11099:11103   */\n      0xc0\n        /* \"#utility.yul\":11094:11097   */\n      dup4\n        /* \"#utility.yul\":11090:11104   */\n      add\n        /* \"#utility.yul\":11184:11188   */\n      0x00\n        /* \"#utility.yul\":11177:11182   */\n      dup4\n        /* \"#utility.yul\":11173:11189   */\n      add\n        /* \"#utility.yul\":11167:11190   */\n      mload\n        /* \"#utility.yul\":11203:11266   */\n      tag_332\n        /* \"#utility.yul\":11260:11264   */\n      0x00\n        /* \"#utility.yul\":11255:11258   */\n      dup7\n        /* \"#utility.yul\":11251:11265   */\n      add\n        /* \"#utility.yul\":11237:11249   */\n      dup3\n        /* \"#utility.yul\":11203:11266   */\n      tag_177\n      jump\t// in\n    tag_332:\n        /* \"#utility.yul\":11114:11276   */\n      pop\n        /* \"#utility.yul\":11362:11366   */\n      0x20\n        /* \"#utility.yul\":11355:11360   */\n      dup4\n        /* \"#utility.yul\":11351:11367   */\n      add\n        /* \"#utility.yul\":11345:11368   */\n      mload\n        /* \"#utility.yul\":11381:11460   */\n      tag_333\n        /* \"#utility.yul\":11454:11458   */\n      0x20\n        /* \"#utility.yul\":11449:11452   */\n      dup7\n        /* \"#utility.yul\":11445:11459   */\n      add\n        /* \"#utility.yul\":11431:11443   */\n      dup3\n        /* \"#utility.yul\":11381:11460   */\n      tag_178\n      jump\t// in\n    tag_333:\n        /* \"#utility.yul\":11286:11470   */\n      pop\n        /* \"#utility.yul\":11559:11563   */\n      0x40\n        /* \"#utility.yul\":11552:11557   */\n      dup4\n        /* \"#utility.yul\":11548:11564   */\n      add\n        /* \"#utility.yul\":11542:11565   */\n      mload\n        /* \"#utility.yul\":11612:11615   */\n      dup5\n        /* \"#utility.yul\":11606:11610   */\n      dup3\n        /* \"#utility.yul\":11602:11616   */\n      sub\n        /* \"#utility.yul\":11595:11599   */\n      0x40\n        /* \"#utility.yul\":11590:11593   */\n      dup7\n        /* \"#utility.yul\":11586:11600   */\n      add\n        /* \"#utility.yul\":11579:11617   */\n      mstore\n        /* \"#utility.yul\":11638:11711   */\n      tag_334\n        /* \"#utility.yul\":11706:11710   */\n      dup3\n        /* \"#utility.yul\":11692:11704   */\n      dup3\n        /* \"#utility.yul\":11638:11711   */\n      tag_180\n      jump\t// in\n    tag_334:\n        /* \"#utility.yul\":11630:11711   */\n      swap2\n      pop\n        /* \"#utility.yul\":11480:11722   */\n      pop\n        /* \"#utility.yul\":11819:11823   */\n      0x60\n        /* \"#utility.yul\":11812:11817   */\n      dup4\n        /* \"#utility.yul\":11808:11824   */\n      add\n        /* \"#utility.yul\":11802:11825   */\n      mload\n        /* \"#utility.yul\":11838:11901   */\n      tag_335\n        /* \"#utility.yul\":11895:11899   */\n      0x60\n        /* \"#utility.yul\":11890:11893   */\n      dup7\n        /* \"#utility.yul\":11886:11900   */\n      add\n        /* \"#utility.yul\":11872:11884   */\n      dup3\n        /* \"#utility.yul\":11838:11901   */\n      tag_177\n      jump\t// in\n    tag_335:\n        /* \"#utility.yul\":11732:11911   */\n      pop\n        /* \"#utility.yul\":12005:12009   */\n      0x80\n        /* \"#utility.yul\":11998:12003   */\n      dup4\n        /* \"#utility.yul\":11994:12010   */\n      add\n        /* \"#utility.yul\":11988:12011   */\n      mload\n        /* \"#utility.yul\":12024:12087   */\n      tag_336\n        /* \"#utility.yul\":12081:12085   */\n      0x80\n        /* \"#utility.yul\":12076:12079   */\n      dup7\n        /* \"#utility.yul\":12072:12086   */\n      add\n        /* \"#utility.yul\":12058:12070   */\n      dup3\n        /* \"#utility.yul\":12024:12087   */\n      tag_177\n      jump\t// in\n    tag_336:\n        /* \"#utility.yul\":11921:12097   */\n      pop\n        /* \"#utility.yul\":12184:12188   */\n      0xa0\n        /* \"#utility.yul\":12177:12182   */\n      dup4\n        /* \"#utility.yul\":12173:12189   */\n      add\n        /* \"#utility.yul\":12167:12190   */\n      mload\n        /* \"#utility.yul\":12203:12266   */\n      tag_337\n        /* \"#utility.yul\":12260:12264   */\n      0xa0\n        /* \"#utility.yul\":12255:12258   */\n      dup7\n        /* \"#utility.yul\":12251:12265   */\n      add\n        /* \"#utility.yul\":12237:12249   */\n      dup3\n        /* \"#utility.yul\":12203:12266   */\n      tag_177\n      jump\t// in\n    tag_337:\n        /* \"#utility.yul\":12107:12276   */\n      pop\n        /* \"#utility.yul\":12293:12297   */\n      dup1\n        /* \"#utility.yul\":12286:12297   */\n      swap2\n      pop\n        /* \"#utility.yul\":11068:12303   */\n      pop\n        /* \"#utility.yul\":10964:12303   */\n      swap3\n      swap2\n      pop\n      pop\n      jump\t// out\n        /* \"#utility.yul\":12309:12545   */\n    tag_182:\n        /* \"#utility.yul\":12418:12428   */\n      0x00\n        /* \"#utility.yul\":12453:12539   */\n      tag_339\n        /* \"#utility.yul\":12535:12538   */\n      dup4\n        /* \"#utility.yul\":12527:12533   */\n      dup4\n        /* \"#utility.yul\":12453:12539   */\n      tag_181\n      jump\t// in\n    tag_339:\n        /* \"#utility.yul\":12439:12539   */\n      swap1\n      pop\n        /* \"#utility.yul\":12309:12545   */\n      swap3\n      swap2\n      pop\n      pop\n      jump\t// out\n        /* \"#utility.yul\":12551:12684   */\n    tag_183:\n        /* \"#utility.yul\":12641:12645   */\n      0x00\n        /* \"#utility.yul\":12673:12677   */\n      0x20\n        /* \"#utility.yul\":12668:12671   */\n      dup3\n        /* \"#utility.yul\":12664:12678   */\n      add\n        /* \"#utility.yul\":12656:12678   */\n      swap1\n      pop\n        /* \"#utility.yul\":12551:12684   */\n      swap2\n      swap1\n      pop\n      jump\t// out\n        /* \"#utility.yul\":12746:13817   */\n    tag_184:\n        /* \"#utility.yul\":12905:12908   */\n      0x00\n        /* \"#utility.yul\":12934:13008   */\n      tag_342\n        /* \"#utility.yul\":13002:13007   */\n      dup3\n        /* \"#utility.yul\":12934:13008   */\n      tag_174\n      jump\t// in\n    tag_342:\n        /* \"#utility.yul\":13024:13130   */\n      tag_343\n        /* \"#utility.yul\":13123:13129   */\n      dup2\n        /* \"#utility.yul\":13118:13121   */\n      dup6\n        /* \"#utility.yul\":13024:13130   */\n      tag_175\n      jump\t// in\n    tag_343:\n        /* \"#utility.yul\":13017:13130   */\n      swap4\n      pop\n        /* \"#utility.yul\":13156:13159   */\n      dup4\n        /* \"#utility.yul\":13201:13205   */\n      0x20\n        /* \"#utility.yul\":13193:13199   */\n      dup3\n        /* \"#utility.yul\":13189:13206   */\n      mul\n        /* \"#utility.yul\":13184:13187   */\n      dup6\n        /* \"#utility.yul\":13180:13207   */\n      add\n        /* \"#utility.yul\":13231:13307   */\n      tag_344\n        /* \"#utility.yul\":13301:13306   */\n      dup6\n        /* \"#utility.yul\":13231:13307   */\n      tag_176\n      jump\t// in\n    tag_344:\n        /* \"#utility.yul\":13330:13337   */\n      dup1\n        /* \"#utility.yul\":13361:13362   */\n      0x00\n        /* \"#utility.yul\":13346:13772   */\n    tag_345:\n        /* \"#utility.yul\":13371:13377   */\n      dup6\n        /* \"#utility.yul\":13368:13369   */\n      dup2\n        /* \"#utility.yul\":13365:13378   */\n      lt\n        /* \"#utility.yul\":13346:13772   */\n      iszero\n      tag_347\n      jumpi\n        /* \"#utility.yul\":13442:13451   */\n      dup5\n        /* \"#utility.yul\":13436:13440   */\n      dup5\n        /* \"#utility.yul\":13432:13452   */\n      sub\n        /* \"#utility.yul\":13427:13430   */\n      dup10\n        /* \"#utility.yul\":13420:13453   */\n      mstore\n        /* \"#utility.yul\":13493:13499   */\n      dup2\n        /* \"#utility.yul\":13487:13500   */\n      mload\n        /* \"#utility.yul\":13521:13625   */\n      tag_348\n        /* \"#utility.yul\":13620:13624   */\n      dup6\n        /* \"#utility.yul\":13605:13618   */\n      dup3\n        /* \"#utility.yul\":13521:13625   */\n      tag_182\n      jump\t// in\n    tag_348:\n        /* \"#utility.yul\":13513:13625   */\n      swap5\n      pop\n        /* \"#utility.yul\":13648:13728   */\n      tag_349\n        /* \"#utility.yul\":13721:13727   */\n      dup4\n        /* \"#utility.yul\":13648:13728   */\n      tag_183\n      jump\t// in\n    tag_349:\n        /* \"#utility.yul\":13638:13728   */\n      swap3\n      pop\n        /* \"#utility.yul\":13757:13761   */\n      0x20\n        /* \"#utility.yul\":13752:13755   */\n      dup11\n        /* \"#utility.yul\":13748:13762   */\n      add\n        /* \"#utility.yul\":13741:13762   */\n      swap10\n      pop\n        /* \"#utility.yul\":13406:13772   */\n      pop\n        /* \"#utility.yul\":13393:13394   */\n      0x01\n        /* \"#utility.yul\":13390:13391   */\n      dup2\n        /* \"#utility.yul\":13386:13395   */\n      add\n        /* \"#utility.yul\":13381:13395   */\n      swap1\n      pop\n        /* \"#utility.yul\":13346:13772   */\n      jump(tag_345)\n    tag_347:\n        /* \"#utility.yul\":13350:13364   */\n      pop\n        /* \"#utility.yul\":13788:13792   */\n      dup3\n        /* \"#utility.yul\":13781:13792   */\n      swap8\n      pop\n        /* \"#utility.yul\":13808:13811   */\n      dup8\n        /* \"#utility.yul\":13801:13811   */\n      swap6\n      pop\n        /* \"#utility.yul\":12910:13817   */\n      pop\n      pop\n      pop\n      pop\n      pop\n        /* \"#utility.yul\":12746:13817   */\n      swap3\n      swap2\n      pop\n      pop\n      jump\t// out\n        /* \"#utility.yul\":13823:14276   */\n    tag_79:\n        /* \"#utility.yul\":14006:14010   */\n      0x00\n        /* \"#utility.yul\":14044:14046   */\n      0x20\n        /* \"#utility.yul\":14033:14042   */\n      dup3\n        /* \"#utility.yul\":14029:14047   */\n      add\n        /* \"#utility.yul\":14021:14047   */\n      swap1\n      pop\n        /* \"#utility.yul\":14093:14102   */\n      dup2\n        /* \"#utility.yul\":14087:14091   */\n      dup2\n        /* \"#utility.yul\":14083:14103   */\n      sub\n        /* \"#utility.yul\":14079:14080   */\n      0x00\n        /* \"#utility.yul\":14068:14077   */\n      dup4\n        /* \"#utility.yul\":14064:14081   */\n      add\n        /* \"#utility.yul\":14057:14104   */\n      mstore\n        /* \"#utility.yul\":14121:14269   */\n      tag_351\n        /* \"#utility.yul\":14264:14268   */\n      dup2\n        /* \"#utility.yul\":14255:14261   */\n      dup5\n        /* \"#utility.yul\":14121:14269   */\n      tag_184\n      jump\t// in\n    tag_351:\n        /* \"#utility.yul\":14113:14269   */\n      swap1\n      pop\n        /* \"#utility.yul\":13823:14276   */\n      swap3\n      swap2\n      pop\n      pop\n      jump\t// out\n        /* \"#utility.yul\":14282:14461   */\n    tag_185:\n        /* \"#utility.yul\":14422:14453   */\n      0x6d696e696d756d20636f6e747269627574696f6e207265717569726564000000\n        /* \"#utility.yul\":14418:14419   */\n      0x00\n        /* \"#utility.yul\":14410:14416   */\n      dup3\n        /* \"#utility.yul\":14406:14420   */\n      add\n        /* \"#utility.yul\":14399:14454   */\n      mstore\n        /* \"#utility.yul\":14282:14461   */\n      pop\n      jump\t// out\n        /* \"#utility.yul\":14467:14833   */\n    tag_186:\n        /* \"#utility.yul\":14609:14612   */\n      0x00\n        /* \"#utility.yul\":14630:14697   */\n      tag_354\n        /* \"#utility.yul\":14694:14696   */\n      0x1d\n        /* \"#utility.yul\":14689:14692   */\n      dup4\n        /* \"#utility.yul\":14630:14697   */\n      tag_153\n      jump\t// in\n    tag_354:\n        /* \"#utility.yul\":14623:14697   */\n      swap2\n      pop\n        /* \"#utility.yul\":14706:14799   */\n      tag_355\n        /* \"#utility.yul\":14795:14798   */\n      dup3\n        /* \"#utility.yul\":14706:14799   */\n      tag_185\n      jump\t// in\n    tag_355:\n        /* \"#utility.yul\":14824:14826   */\n      0x20\n        /* \"#utility.yul\":14819:14822   */\n      dup3\n        /* \"#utility.yul\":14815:14827   */\n      add\n        /* \"#utility.yul\":14808:14827   */\n      swap1\n      pop\n        /* \"#utility.yul\":14467:14833   */\n      swap2\n      swap1\n      pop\n      jump\t// out\n        /* \"#utility.yul\":14839:15258   */\n    tag_83:\n        /* \"#utility.yul\":15005:15009   */\n      0x00\n        /* \"#utility.yul\":15043:15045   */\n      0x20\n        /* \"#utility.yul\":15032:15041   */\n      dup3\n        /* \"#utility.yul\":15028:15046   */\n      add\n        /* \"#utility.yul\":15020:15046   */\n      swap1\n      pop\n        /* \"#utility.yul\":15092:15101   */\n      dup2\n        /* \"#utility.yul\":15086:15090   */\n      dup2\n        /* \"#utility.yul\":15082:15102   */\n      sub\n        /* \"#utility.yul\":15078:15079   */\n      0x00\n        /* \"#utility.yul\":15067:15076   */\n      dup4\n        /* \"#utility.yul\":15063:15080   */\n      add\n        /* \"#utility.yul\":15056:15103   */\n      mstore\n        /* \"#utility.yul\":15120:15251   */\n      tag_357\n        /* \"#utility.yul\":15246:15250   */\n      dup2\n        /* \"#utility.yul\":15120:15251   */\n      tag_186\n      jump\t// in\n    tag_357:\n        /* \"#utility.yul\":15112:15251   */\n      swap1\n      pop\n        /* \"#utility.yul\":14839:15258   */\n      swap2\n      swap1\n      pop\n      jump\t// out\n        /* \"#utility.yul\":15264:15444   */\n    tag_187:\n        /* \"#utility.yul\":15312:15389   */\n      0x4e487b7100000000000000000000000000000000000000000000000000000000\n        /* \"#utility.yul\":15309:15310   */\n      0x00\n        /* \"#utility.yul\":15302:15390   */\n      mstore\n        /* \"#utility.yul\":15409:15413   */\n      0x11\n        /* \"#utility.yul\":15406:15407   */\n      0x04\n        /* \"#utility.yul\":15399:15414   */\n      mstore\n        /* \"#utility.yul\":15433:15437   */\n      0x24\n        /* \"#utility.yul\":15430:15431   */\n      0x00\n        /* \"#utility.yul\":15423:15438   */\n      revert\n        /* \"#utility.yul\":15450:15683   */\n    tag_86:\n        /* \"#utility.yul\":15489:15492   */\n      0x00\n        /* \"#utility.yul\":15512:15536   */\n      tag_360\n        /* \"#utility.yul\":15530:15535   */\n      dup3\n        /* \"#utility.yul\":15512:15536   */\n      tag_142\n      jump\t// in\n    tag_360:\n        /* \"#utility.yul\":15503:15536   */\n      swap2\n      pop\n        /* \"#utility.yul\":15558:15624   */\n      0xffffffffffffffffffffffffffffffffffffffffffffffffffffffffffffffff\n        /* \"#utility.yul\":15551:15556   */\n      dup3\n        /* \"#utility.yul\":15548:15625   */\n      sub\n        /* \"#utility.yul\":15545:15648   */\n      tag_361\n      jumpi\n        /* \"#utility.yul\":15628:15646   */\n      tag_362\n      tag_187\n      jump\t// in\n    tag_362:\n        /* \"#utility.yul\":15545:15648   */\n    tag_361:\n        /* \"#utility.yul\":15675:15676   */\n      0x01\n        /* \"#utility.yul\":15668:15673   */\n      dup3\n        /* \"#utility.yul\":15664:15677   */\n      add\n        /* \"#utility.yul\":15657:15677   */\n      swap1\n      pop\n        /* \"#utility.yul\":15450:15683   */\n      swap2\n      swap1\n      pop\n      jump\t// out\n        /* \"#utility.yul\":15689:15869   */\n    tag_91:\n        /* \"#utility.yul\":15737:15814   */\n      0x4e487b7100000000000000000000000000000000000000000000000000000000\n        /* \"#utility.yul\":15734:15735   */\n      0x00\n        /* \"#utility.yul\":15727:15815   */\n      mstore\n        /* \"#utility.yul\":15834:15838   */\n      0x32\n        /* \"#utility.yul\":15831:15832   */\n      0x04\n        /* \"#utility.yul\":15824:15839   */\n      mstore\n        /* \"#utility.yul\":15858:15862   */\n      0x24\n        /* \"#utility.yul\":15855:15856   */\n      0x00\n        /* \"#utility.yul\":15848:15863   */\n      revert\n        /* \"#utility.yul\":15875:16047   */\n    tag_188:\n        /* \"#utility.yul\":16015:16039   */\n      0x4e6f742073756666696369656e742062616c616e636500000000000000000000\n        /* \"#utility.yul\":16011:16012   */\n      0x00\n        /* \"#utility.yul\":16003:16009   */\n      dup3\n        /* \"#utility.yul\":15999:16013   */\n      add\n        /* \"#utility.yul\":15992:16040   */\n      mstore\n        /* \"#utility.yul\":15875:16047   */\n      pop\n      jump\t// out\n        /* \"#utility.yul\":16053:16419   */\n    tag_189:\n        /* \"#utility.yul\":16195:16198   */\n      0x00\n        /* \"#utility.yul\":16216:16283   */\n      tag_366\n        /* \"#utility.yul\":16280:16282   */\n      0x16\n        /* \"#utility.yul\":16275:16278   */\n      dup4\n        /* \"#utility.yul\":16216:16283   */\n      tag_153\n      jump\t// in\n    tag_366:\n        /* \"#utility.yul\":16209:16283   */\n      swap2\n      pop\n        /* \"#utility.yul\":16292:16385   */\n      tag_367\n        /* \"#utility.yul\":16381:16384   */\n      dup3\n        /* \"#utility.yul\":16292:16385   */\n      tag_188\n      jump\t// in\n    tag_367:\n        /* \"#utility.yul\":16410:16412   */\n      0x20\n        /* \"#utility.yul\":16405:16408   */\n      dup3\n        /* \"#utility.yul\":16401:16413   */\n      add\n        /* \"#utility.yul\":16394:16413   */\n      swap1\n      pop\n        /* \"#utility.yul\":16053:16419   */\n      swap2\n      swap1\n      pop\n      jump\t// out\n        /* \"#utility.yul\":16425:16844   */\n    tag_95:\n        /* \"#utility.yul\":16591:16595   */\n      0x00\n        /* \"#utility.yul\":16629:16631   */\n      0x20\n        /* \"#utility.yul\":16618:16627   */\n      dup3\n        /* \"#utility.yul\":16614:16632   */\n      add\n        /* \"#utility.yul\":16606:16632   */\n      swap1\n      pop\n        /* \"#utility.yul\":16678:16687   */\n      dup2\n        /* \"#utility.yul\":16672:16676   */\n      dup2\n        /* \"#utility.yul\":16668:16688   */\n      sub\n        /* \"#utility.yul\":16664:16665   */\n      0x00\n        /* \"#utility.yul\":16653:16662   */\n      dup4\n        /* \"#utility.yul\":16649:16666   */\n      add\n        /* \"#utility.yul\":16642:16689   */\n      mstore\n        /* \"#utility.yul\":16706:16837   */\n      tag_369\n        /* \"#utility.yul\":16832:16836   */\n      dup2\n        /* \"#utility.yul\":16706:16837   */\n      tag_189\n      jump\t// in\n    tag_369:\n        /* \"#utility.yul\":16698:16837   */\n      swap1\n      pop\n        /* \"#utility.yul\":16425:16844   */\n      swap2\n      swap1\n      pop\n      jump\t// out\n        /* \"#utility.yul\":16850:17030   */\n    tag_190:\n        /* \"#utility.yul\":16898:16975   */\n      0x4e487b7100000000000000000000000000000000000000000000000000000000\n        /* \"#utility.yul\":16895:16896   */\n      0x00\n        /* \"#utility.yul\":16888:16976   */\n      mstore\n        /* \"#utility.yul\":16995:16999   */\n      0x22\n        /* \"#utility.yul\":16992:16993   */\n      0x04\n        /* \"#utility.yul\":16985:17000   */\n      mstore\n        /* \"#utility.yul\":17019:17023   */\n      0x24\n        /* \"#utility.yul\":17016:17017   */\n      0x00\n        /* \"#utility.yul\":17009:17024   */\n      revert\n        /* \"#utility.yul\":17036:17356   */\n    tag_104:\n        /* \"#utility.yul\":17080:17086   */\n      0x00\n        /* \"#utility.yul\":17117:17118   */\n      0x02\n        /* \"#utility.yul\":17111:17115   */\n      dup3\n        /* \"#utility.yul\":17107:17119   */\n      div\n        /* \"#utility.yul\":17097:17119   */\n      swap1\n      pop\n        /* \"#utility.yul\":17164:17165   */\n      0x01\n        /* \"#utility.yul\":17158:17162   */\n      dup3\n        /* \"#utility.yul\":17154:17166   */\n      and\n        /* \"#utility.yul\":17185:17203   */\n      dup1\n        /* \"#utility.yul\":17175:17256   */\n      tag_372\n      jumpi\n        /* \"#utility.yul\":17241:17245   */\n      0x7f\n        /* \"#utility.yul\":17233:17239   */\n      dup3\n        /* \"#utility.yul\":17229:17246   */\n      and\n        /* \"#utility.yul\":17219:17246   */\n      swap2\n      pop\n        /* \"#utility.yul\":17175:17256   */\n    tag_372:\n        /* \"#utility.yul\":17303:17305   */\n      0x20\n        /* \"#utility.yul\":17295:17301   */\n      dup3\n        /* \"#utility.yul\":17292:17306   */\n      lt\n        /* \"#utility.yul\":17272:17290   */\n      dup2\n        /* \"#utility.yul\":17269:17307   */\n      sub\n        /* \"#utility.yul\":17266:17350   */\n      tag_373\n      jumpi\n        /* \"#utility.yul\":17322:17340   */\n      tag_374\n      tag_190\n      jump\t// in\n    tag_374:\n        /* \"#utility.yul\":17266:17350   */\n    tag_373:\n        /* \"#utility.yul\":17087:17356   */\n      pop\n        /* \"#utility.yul\":17036:17356   */\n      swap2\n      swap1\n      pop\n      jump\t// out\n        /* \"#utility.yul\":17362:17542   */\n    tag_191:\n        /* \"#utility.yul\":17502:17534   */\n      0x4e6f74207375627363726962656420746f207468652066696c65207965740000\n        /* \"#utility.yul\":17498:17499   */\n      0x00\n        /* \"#utility.yul\":17490:17496   */\n      dup3\n        /* \"#utility.yul\":17486:17500   */\n      add\n        /* \"#utility.yul\":17479:17535   */\n      mstore\n        /* \"#utility.yul\":17362:17542   */\n      pop\n      jump\t// out\n        /* \"#utility.yul\":17548:17914   */\n    tag_192:\n        /* \"#utility.yul\":17690:17693   */\n      0x00\n        /* \"#utility.yul\":17711:17778   */\n      tag_377\n        /* \"#utility.yul\":17775:17777   */\n      0x1e\n        /* \"#utility.yul\":17770:17773   */\n      dup4\n        /* \"#utility.yul\":17711:17778   */\n      tag_153\n      jump\t// in\n    tag_377:\n        /* \"#utility.yul\":17704:17778   */\n      swap2\n      pop\n        /* \"#utility.yul\":17787:17880   */\n      tag_378\n        /* \"#utility.yul\":17876:17879   */\n      dup3\n        /* \"#utility.yul\":17787:17880   */\n      tag_191\n      jump\t// in\n    tag_378:\n        /* \"#utility.yul\":17905:17907   */\n      0x20\n        /* \"#utility.yul\":17900:17903   */\n      dup3\n        /* \"#utility.yul\":17896:17908   */\n      add\n        /* \"#utility.yul\":17889:17908   */\n      swap1\n      pop\n        /* \"#utility.yul\":17548:17914   */\n      swap2\n      swap1\n      pop\n      jump\t// out\n        /* \"#utility.yul\":17920:18339   */\n    tag_112:\n        /* \"#utility.yul\":18086:18090   */\n      0x00\n        /* \"#utility.yul\":18124:18126   */\n      0x20\n        /* \"#utility.yul\":18113:18122   */\n      dup3\n        /* \"#utility.yul\":18109:18127   */\n      add\n        /* \"#utility.yul\":18101:18127   */\n      swap1\n      pop\n        /* \"#utility.yul\":18173:18182   */\n      dup2\n        /* \"#utility.yul\":18167:18171   */\n      dup2\n        /* \"#utility.yul\":18163:18183   */\n      sub\n        /* \"#utility.yul\":18159:18160   */\n      0x00\n        /* \"#utility.yul\":18148:18157   */\n      dup4\n        /* \"#utility.yul\":18144:18161   */\n      add\n        /* \"#utility.yul\":18137:18184   */\n      mstore\n        /* \"#utility.yul\":18201:18332   */\n      tag_380\n        /* \"#utility.yul\":18327:18331   */\n      dup2\n        /* \"#utility.yul\":18201:18332   */\n      tag_192\n      jump\t// in\n    tag_380:\n        /* \"#utility.yul\":18193:18332   */\n      swap1\n      pop\n        /* \"#utility.yul\":17920:18339   */\n      swap2\n      swap1\n      pop\n      jump\t// out\n        /* \"#utility.yul\":18345:18486   */\n    tag_193:\n        /* \"#utility.yul\":18394:18398   */\n      0x00\n        /* \"#utility.yul\":18417:18420   */\n      dup2\n        /* \"#utility.yul\":18409:18420   */\n      swap1\n      pop\n        /* \"#utility.yul\":18440:18443   */\n      dup2\n        /* \"#utility.yul\":18437:18438   */\n      0x00\n        /* \"#utility.yul\":18430:18444   */\n      mstore\n        /* \"#utility.yul\":18474:18478   */\n      0x20\n        /* \"#utility.yul\":18471:18472   */\n      0x00\n        /* \"#utility.yul\":18461:18479   */\n      keccak256\n        /* \"#utility.yul\":18453:18479   */\n      swap1\n      pop\n        /* \"#utility.yul\":18345:18486   */\n      swap2\n      swap1\n      pop\n      jump\t// out\n        /* \"#utility.yul\":18492:18585   */\n    tag_194:\n        /* \"#utility.yul\":18529:18535   */\n      0x00\n        /* \"#utility.yul\":18576:18578   */\n      0x20\n        /* \"#utility.yul\":18571:18573   */\n      0x1f\n        /* \"#utility.yul\":18564:18569   */\n      dup4\n        /* \"#utility.yul\":18560:18574   */\n      add\n        /* \"#utility.yul\":18556:18579   */\n      div\n        /* \"#utility.yul\":18546:18579   */\n      swap1\n      pop\n        /* \"#utility.yul\":18492:18585   */\n      swap2\n      swap1\n      pop\n      jump\t// out\n        /* \"#utility.yul\":18591:18698   */\n    tag_195:\n        /* \"#utility.yul\":18635:18643   */\n      0x00\n        /* \"#utility.yul\":18685:18690   */\n      dup3\n        /* \"#utility.yul\":18679:18683   */\n      dup3\n        /* \"#utility.yul\":18675:18691   */\n      shl\n        /* \"#utility.yul\":18654:18691   */\n      swap1\n      pop\n        /* \"#utility.yul\":18591:18698   */\n      swap3\n      swap2\n      pop\n      pop\n      jump\t// out\n        /* \"#utility.yul\":18704:19097   */\n    tag_196:\n        /* \"#utility.yul\":18773:18779   */\n      0x00\n        /* \"#utility.yul\":18823:18824   */\n      0x08\n        /* \"#utility.yul\":18811:18821   */\n      dup4\n        /* \"#utility.yul\":18807:18825   */\n      mul\n        /* \"#utility.yul\":18846:18943   */\n      tag_385\n        /* \"#utility.yul\":18876:18942   */\n      0xffffffffffffffffffffffffffffffffffffffffffffffffffffffffffffffff\n        /* \"#utility.yul\":18865:18874   */\n      dup3\n        /* \"#utility.yul\":18846:18943   */\n      tag_195\n      jump\t// in\n    tag_385:\n        /* \"#utility.yul\":18964:19003   */\n      tag_386\n        /* \"#utility.yul\":18994:19002   */\n      dup7\n        /* \"#utility.yul\":18983:18992   */\n      dup4\n        /* \"#utility.yul\":18964:19003   */\n      tag_195\n      jump\t// in\n    tag_386:\n        /* \"#utility.yul\":18952:19003   */\n      swap6\n      pop\n        /* \"#utility.yul\":19036:19040   */\n      dup1\n        /* \"#utility.yul\":19032:19041   */\n      not\n        /* \"#utility.yul\":19025:19030   */\n      dup5\n        /* \"#utility.yul\":19021:19042   */\n      and\n        /* \"#utility.yul\":19012:19042   */\n      swap4\n      pop\n        /* \"#utility.yul\":19085:19089   */\n      dup1\n        /* \"#utility.yul\":19075:19083   */\n      dup7\n        /* \"#utility.yul\":19071:19090   */\n      and\n        /* \"#utility.yul\":19064:19069   */\n      dup5\n        /* \"#utility.yul\":19061:19091   */\n      or\n        /* \"#utility.yul\":19051:19091   */\n      swap3\n      pop\n        /* \"#utility.yul\":18780:19097   */\n      pop\n      pop\n        /* \"#utility.yul\":18704:19097   */\n      swap4\n      swap3\n      pop\n      pop\n      pop\n      jump\t// out\n        /* \"#utility.yul\":19103:19163   */\n    tag_197:\n        /* \"#utility.yul\":19131:19134   */\n      0x00\n        /* \"#utility.yul\":19152:19157   */\n      dup2\n        /* \"#utility.yul\":19145:19157   */\n      swap1\n      pop\n        /* \"#utility.yul\":19103:19163   */\n      swap2\n      swap1\n      pop\n      jump\t// out\n        /* \"#utility.yul\":19169:19311   */\n    tag_198:\n        /* \"#utility.yul\":19219:19228   */\n      0x00\n        /* \"#utility.yul\":19252:19305   */\n      tag_389\n        /* \"#utility.yul\":19270:19304   */\n      tag_390\n        /* \"#utility.yul\":19279:19303   */\n      tag_391\n        /* \"#utility.yul\":19297:19302   */\n      dup5\n        /* \"#utility.yul\":19279:19303   */\n      tag_142\n      jump\t// in\n    tag_391:\n        /* \"#utility.yul\":19270:19304   */\n      tag_197\n      jump\t// in\n    tag_390:\n        /* \"#utility.yul\":19252:19305   */\n      tag_142\n      jump\t// in\n    tag_389:\n        /* \"#utility.yul\":19239:19305   */\n      swap1\n      pop\n        /* \"#utility.yul\":19169:19311   */\n      swap2\n      swap1\n      pop\n      jump\t// out\n        /* \"#utility.yul\":19317:19392   */\n    tag_199:\n        /* \"#utility.yul\":19360:19363   */\n      0x00\n        /* \"#utility.yul\":19381:19386   */\n      dup2\n        /* \"#utility.yul\":19374:19386   */\n      swap1\n      pop\n        /* \"#utility.yul\":19317:19392   */\n      swap2\n      swap1\n      pop\n      jump\t// out\n        /* \"#utility.yul\":19398:19667   */\n    tag_200:\n        /* \"#utility.yul\":19508:19547   */\n      tag_394\n        /* \"#utility.yul\":19539:19546   */\n      dup4\n        /* \"#utility.yul\":19508:19547   */\n      tag_198\n      jump\t// in\n    tag_394:\n        /* \"#utility.yul\":19569:19660   */\n      tag_395\n        /* \"#utility.yul\":19618:19659   */\n      tag_396\n        /* \"#utility.yul\":19642:19658   */\n      dup3\n        /* \"#utility.yul\":19618:19659   */\n      tag_199\n      jump\t// in\n    tag_396:\n        /* \"#utility.yul\":19610:19616   */\n      dup5\n        /* \"#utility.yul\":19603:19607   */\n      dup5\n        /* \"#utility.yul\":19597:19608   */\n      sload\n        /* \"#utility.yul\":19569:19660   */\n      tag_196\n      jump\t// in\n    tag_395:\n        /* \"#utility.yul\":19563:19567   */\n      dup3\n        /* \"#utility.yul\":19556:19661   */\n      sstore\n        /* \"#utility.yul\":19474:19667   */\n      pop\n        /* \"#utility.yul\":19398:19667   */\n      pop\n      pop\n      pop\n      jump\t// out\n        /* \"#utility.yul\":19673:19746   */\n    tag_201:\n        /* \"#utility.yul\":19718:19721   */\n      0x00\n        /* \"#utility.yul\":19673:19746   */\n      swap1\n      jump\t// out\n        /* \"#utility.yul\":19752:19941   */\n    tag_202:\n        /* \"#utility.yul\":19829:19861   */\n      tag_399\n      tag_201\n      jump\t// in\n    tag_399:\n        /* \"#utility.yul\":19870:19935   */\n      tag_400\n        /* \"#utility.yul\":19928:19934   */\n      dup2\n        /* \"#utility.yul\":19920:19926   */\n      dup5\n        /* \"#utility.yul\":19914:19918   */\n      dup5\n        /* \"#utility.yul\":19870:19935   */\n      tag_200\n      jump\t// in\n    tag_400:\n        /* \"#utility.yul\":19805:19941   */\n      pop\n        /* \"#utility.yul\":19752:19941   */\n      pop\n      pop\n      jump\t// out\n        /* \"#utility.yul\":19947:20133   */\n    tag_203:\n        /* \"#utility.yul\":20007:20127   */\n    tag_402:\n        /* \"#utility.yul\":20024:20027   */\n      dup2\n        /* \"#utility.yul\":20017:20022   */\n      dup2\n        /* \"#utility.yul\":20014:20028   */\n      lt\n        /* \"#utility.yul\":20007:20127   */\n      iszero\n      tag_404\n      jumpi\n        /* \"#utility.yul\":20078:20117   */\n      tag_405\n        /* \"#utility.yul\":20115:20116   */\n      0x00\n        /* \"#utility.yul\":20108:20113   */\n      dup3\n        /* \"#utility.yul\":20078:20117   */\n      tag_202\n      jump\t// in\n    tag_405:\n        /* \"#utility.yul\":20051:20052   */\n      0x01\n        /* \"#utility.yul\":20044:20049   */\n      dup2\n        /* \"#utility.yul\":20040:20053   */\n      add\n        /* \"#utility.yul\":20031:20053   */\n      swap1\n      pop\n        /* \"#utility.yul\":20007:20127   */\n      jump(tag_402)\n    tag_404:\n        /* \"#utility.yul\":19947:20133   */\n      pop\n      pop\n      jump\t// out\n        /* \"#utility.yul\":20139:20682   */\n    tag_204:\n        /* \"#utility.yul\":20240:20242   */\n      0x1f\n        /* \"#utility.yul\":20235:20238   */\n      dup3\n        /* \"#utility.yul\":20232:20243   */\n      gt\n        /* \"#utility.yul\":20229:20675   */\n      iszero\n      tag_407\n      jumpi\n        /* \"#utility.yul\":20274:20312   */\n      tag_408\n        /* \"#utility.yul\":20306:20311   */\n      dup2\n        /* \"#utility.yul\":20274:20312   */\n      tag_193\n      jump\t// in\n    tag_408:\n        /* \"#utility.yul\":20358:20387   */\n      tag_409\n        /* \"#utility.yul\":20376:20386   */\n      dup5\n        /* \"#utility.yul\":20358:20387   */\n      tag_194\n      jump\t// in\n    tag_409:\n        /* \"#utility.yul\":20348:20356   */\n      dup2\n        /* \"#utility.yul\":20344:20388   */\n      add\n        /* \"#utility.yul\":20541:20543   */\n      0x20\n        /* \"#utility.yul\":20529:20539   */\n      dup6\n        /* \"#utility.yul\":20526:20544   */\n      lt\n        /* \"#utility.yul\":20523:20572   */\n      iszero\n      tag_410\n      jumpi\n        /* \"#utility.yul\":20562:20570   */\n      dup2\n        /* \"#utility.yul\":20547:20570   */\n      swap1\n      pop\n        /* \"#utility.yul\":20523:20572   */\n    tag_410:\n        /* \"#utility.yul\":20585:20665   */\n      tag_411\n        /* \"#utility.yul\":20641:20663   */\n      tag_412\n        /* \"#utility.yul\":20659:20662   */\n      dup6\n        /* \"#utility.yul\":20641:20663   */\n      tag_194\n      jump\t// in\n    tag_412:\n        /* \"#utility.yul\":20631:20639   */\n      dup4\n        /* \"#utility.yul\":20627:20664   */\n      add\n        /* \"#utility.yul\":20614:20625   */\n      dup3\n        /* \"#utility.yul\":20585:20665   */\n      tag_203\n      jump\t// in\n    tag_411:\n        /* \"#utility.yul\":20244:20675   */\n      pop\n      pop\n        /* \"#utility.yul\":20229:20675   */\n    tag_407:\n        /* \"#utility.yul\":20139:20682   */\n      pop\n      pop\n      pop\n      jump\t// out\n        /* \"#utility.yul\":20688:20805   */\n    tag_205:\n        /* \"#utility.yul\":20742:20750   */\n      0x00\n        /* \"#utility.yul\":20792:20797   */\n      dup3\n        /* \"#utility.yul\":20786:20790   */\n      dup3\n        /* \"#utility.yul\":20782:20798   */\n      shr\n        /* \"#utility.yul\":20761:20798   */\n      swap1\n      pop\n        /* \"#utility.yul\":20688:20805   */\n      swap3\n      swap2\n      pop\n      pop\n      jump\t// out\n        /* \"#utility.yul\":20811:20980   */\n    tag_206:\n        /* \"#utility.yul\":20855:20861   */\n      0x00\n        /* \"#utility.yul\":20888:20939   */\n      tag_415\n        /* \"#utility.yul\":20936:20937   */\n      0x00\n        /* \"#utility.yul\":20932:20938   */\n      not\n        /* \"#utility.yul\":20924:20929   */\n      dup5\n        /* \"#utility.yul\":20921:20922   */\n      0x08\n        /* \"#utility.yul\":20917:20930   */\n      mul\n        /* \"#utility.yul\":20888:20939   */\n      tag_205\n      jump\t// in\n    tag_415:\n        /* \"#utility.yul\":20884:20940   */\n      not\n        /* \"#utility.yul\":20969:20973   */\n      dup1\n        /* \"#utility.yul\":20963:20967   */\n      dup4\n        /* \"#utility.yul\":20959:20974   */\n      and\n        /* \"#utility.yul\":20949:20974   */\n      swap2\n      pop\n        /* \"#utility.yul\":20862:20980   */\n      pop\n        /* \"#utility.yul\":20811:20980   */\n      swap3\n      swap2\n      pop\n      pop\n      jump\t// out\n        /* \"#utility.yul\":20985:21280   */\n    tag_207:\n        /* \"#utility.yul\":21061:21065   */\n      0x00\n        /* \"#utility.yul\":21207:21236   */\n      tag_417\n        /* \"#utility.yul\":21232:21235   */\n      dup4\n        /* \"#utility.yul\":21226:21230   */\n      dup4\n        /* \"#utility.yul\":21207:21236   */\n      tag_206\n      jump\t// in\n    tag_417:\n        /* \"#utility.yul\":21199:21236   */\n      swap2\n      pop\n        /* \"#utility.yul\":21269:21272   */\n      dup3\n        /* \"#utility.yul\":21266:21267   */\n      0x02\n        /* \"#utility.yul\":21262:21273   */\n      mul\n        /* \"#utility.yul\":21256:21260   */\n      dup3\n        /* \"#utility.yul\":21253:21274   */\n      or\n        /* \"#utility.yul\":21245:21274   */\n      swap1\n      pop\n        /* \"#utility.yul\":20985:21280   */\n      swap3\n      swap2\n      pop\n      pop\n      jump\t// out\n        /* \"#utility.yul\":21285:22680   */\n    tag_121:\n        /* \"#utility.yul\":21402:21439   */\n      tag_419\n        /* \"#utility.yul\":21435:21438   */\n      dup3\n        /* \"#utility.yul\":21402:21439   */\n      tag_152\n      jump\t// in\n    tag_419:\n        /* \"#utility.yul\":21504:21522   */\n      0xffffffffffffffff\n        /* \"#utility.yul\":21496:21502   */\n      dup2\n        /* \"#utility.yul\":21493:21523   */\n      gt\n        /* \"#utility.yul\":21490:21546   */\n      iszero\n      tag_420\n      jumpi\n        /* \"#utility.yul\":21526:21544   */\n      tag_421\n      tag_163\n      jump\t// in\n    tag_421:\n        /* \"#utility.yul\":21490:21546   */\n    tag_420:\n        /* \"#utility.yul\":21570:21608   */\n      tag_422\n        /* \"#utility.yul\":21602:21606   */\n      dup3\n        /* \"#utility.yul\":21596:21607   */\n      sload\n        /* \"#utility.yul\":21570:21608   */\n      tag_104\n      jump\t// in\n    tag_422:\n        /* \"#utility.yul\":21655:21722   */\n      tag_423\n        /* \"#utility.yul\":21715:21721   */\n      dup3\n        /* \"#utility.yul\":21707:21713   */\n      dup3\n        /* \"#utility.yul\":21701:21705   */\n      dup6\n        /* \"#utility.yul\":21655:21722   */\n      tag_204\n      jump\t// in\n    tag_423:\n        /* \"#utility.yul\":21749:21750   */\n      0x00\n        /* \"#utility.yul\":21773:21777   */\n      0x20\n        /* \"#utility.yul\":21760:21777   */\n      swap1\n      pop\n        /* \"#utility.yul\":21805:21807   */\n      0x1f\n        /* \"#utility.yul\":21797:21803   */\n      dup4\n        /* \"#utility.yul\":21794:21808   */\n      gt\n        /* \"#utility.yul\":21822:21823   */\n      0x01\n        /* \"#utility.yul\":21817:22435   */\n      dup2\n      eq\n      tag_425\n      jumpi\n        /* \"#utility.yul\":22479:22480   */\n      0x00\n        /* \"#utility.yul\":22496:22502   */\n      dup5\n        /* \"#utility.yul\":22493:22570   */\n      iszero\n      tag_426\n      jumpi\n        /* \"#utility.yul\":22545:22554   */\n      dup3\n        /* \"#utility.yul\":22540:22543   */\n      dup8\n        /* \"#utility.yul\":22536:22555   */\n      add\n        /* \"#utility.yul\":22530:22556   */\n      mload\n        /* \"#utility.yul\":22521:22556   */\n      swap1\n      pop\n        /* \"#utility.yul\":22493:22570   */\n    tag_426:\n        /* \"#utility.yul\":22596:22663   */\n      tag_427\n        /* \"#utility.yul\":22656:22662   */\n      dup6\n        /* \"#utility.yul\":22649:22654   */\n      dup3\n        /* \"#utility.yul\":22596:22663   */\n      tag_207\n      jump\t// in\n    tag_427:\n        /* \"#utility.yul\":22590:22594   */\n      dup7\n        /* \"#utility.yul\":22583:22664   */\n      sstore\n        /* \"#utility.yul\":22452:22674   */\n      pop\n        /* \"#utility.yul\":21787:22674   */\n      jump(tag_424)\n        /* \"#utility.yul\":21817:22435   */\n    tag_425:\n        /* \"#utility.yul\":21869:21873   */\n      0x1f\n        /* \"#utility.yul\":21865:21874   */\n      not\n        /* \"#utility.yul\":21857:21863   */\n      dup5\n        /* \"#utility.yul\":21853:21875   */\n      and\n        /* \"#utility.yul\":21903:21940   */\n      tag_428\n        /* \"#utility.yul\":21935:21939   */\n      dup7\n        /* \"#utility.yul\":21903:21940   */\n      tag_193\n      jump\t// in\n    tag_428:\n        /* \"#utility.yul\":21962:21963   */\n      0x00\n        /* \"#utility.yul\":21976:22184   */\n    tag_429:\n        /* \"#utility.yul\":21990:21997   */\n      dup3\n        /* \"#utility.yul\":21987:21988   */\n      dup2\n        /* \"#utility.yul\":21984:21998   */\n      lt\n        /* \"#utility.yul\":21976:22184   */\n      iszero\n      tag_431\n      jumpi\n        /* \"#utility.yul\":22069:22078   */\n      dup5\n        /* \"#utility.yul\":22064:22067   */\n      dup10\n        /* \"#utility.yul\":22060:22079   */\n      add\n        /* \"#utility.yul\":22054:22080   */\n      mload\n        /* \"#utility.yul\":22046:22052   */\n      dup3\n        /* \"#utility.yul\":22039:22081   */\n      sstore\n        /* \"#utility.yul\":22120:22121   */\n      0x01\n        /* \"#utility.yul\":22112:22118   */\n      dup3\n        /* \"#utility.yul\":22108:22122   */\n      add\n        /* \"#utility.yul\":22098:22122   */\n      swap2\n      pop\n        /* \"#utility.yul\":22167:22169   */\n      0x20\n        /* \"#utility.yul\":22156:22165   */\n      dup6\n        /* \"#utility.yul\":22152:22170   */\n      add\n        /* \"#utility.yul\":22139:22170   */\n      swap5\n      pop\n        /* \"#utility.yul\":22013:22017   */\n      0x20\n        /* \"#utility.yul\":22010:22011   */\n      dup2\n        /* \"#utility.yul\":22006:22018   */\n      add\n        /* \"#utility.yul\":22001:22018   */\n      swap1\n      pop\n        /* \"#utility.yul\":21976:22184   */\n      jump(tag_429)\n    tag_431:\n        /* \"#utility.yul\":22212:22218   */\n      dup7\n        /* \"#utility.yul\":22203:22210   */\n      dup4\n        /* \"#utility.yul\":22200:22219   */\n      lt\n        /* \"#utility.yul\":22197:22376   */\n      iszero\n      tag_432\n      jumpi\n        /* \"#utility.yul\":22270:22279   */\n      dup5\n        /* \"#utility.yul\":22265:22268   */\n      dup10\n        /* \"#utility.yul\":22261:22280   */\n      add\n        /* \"#utility.yul\":22255:22281   */\n      mload\n        /* \"#utility.yul\":22313:22361   */\n      tag_433\n        /* \"#utility.yul\":22355:22359   */\n      0x1f\n        /* \"#utility.yul\":22347:22353   */\n      dup10\n        /* \"#utility.yul\":22343:22360   */\n      and\n        /* \"#utility.yul\":22332:22341   */\n      dup3\n        /* \"#utility.yul\":22313:22361   */\n      tag_206\n      jump\t// in\n    tag_433:\n        /* \"#utility.yul\":22305:22311   */\n      dup4\n        /* \"#utility.yul\":22298:22362   */\n      sstore\n        /* \"#utility.yul\":22220:22376   */\n      pop\n        /* \"#utility.yul\":22197:22376   */\n    tag_432:\n        /* \"#utility.yul\":22422:22423   */\n      0x01\n        /* \"#utility.yul\":22418:22419   */\n      0x02\n        /* \"#utility.yul\":22410:22416   */\n      dup9\n        /* \"#utility.yul\":22406:22420   */\n      mul\n        /* \"#utility.yul\":22402:22424   */\n      add\n        /* \"#utility.yul\":22396:22400   */\n      dup9\n        /* \"#utility.yul\":22389:22425   */\n      sstore\n        /* \"#utility.yul\":21824:22435   */\n      pop\n      pop\n      pop\n        /* \"#utility.yul\":21787:22674   */\n    tag_424:\n      pop\n        /* \"#utility.yul\":21377:22680   */\n      pop\n      pop\n      pop\n        /* \"#utility.yul\":21285:22680   */\n      pop\n      pop\n      jump\t// out\n\n    auxdata: 0xa26469706673582212201ae879e3d4a42adf56d2ae216bbbbe88e1a72a80c9455fed7f003e4ec9a01b0864736f6c63430008100033\n}\n","bytecode":{"linkReferences":{},"object":"608060405260006004553480156200001657600080fd5b506040516200197d3803806200197d83398181016040528101906200003c919062000130565b806000806101000a81548173ffffffffffffffffffffffffffffffffffffffff021916908373ffffffffffffffffffffffffffffffffffffffff16021790555081600181905550505062000177565b600080fd5b6000819050919050565b620000a58162000090565b8114620000b157600080fd5b50565b600081519050620000c5816200009a565b92915050565b600073ffffffffffffffffffffffffffffffffffffffff82169050919050565b6000620000f882620000cb565b9050919050565b6200010a81620000eb565b81146200011657600080fd5b50565b6000815190506200012a81620000ff565b92915050565b600080604083850312156200014a57620001496200008b565b5b60006200015a85828601620000b4565b92505060206200016d8582860162000119565b9150509250929050565b6117f680620001876000396000f3fe6080604052600436106100c25760003560e01c806393df27381161007f578063ea97056a11610059578063ea97056a14610252578063f1bfe13a1461027b578063f4c714b4146102a9578063ff24b5d5146102eb576100c2565b806393df2738146101ad578063a87430ba146101ea578063dfb5e9ba14610227576100c2565b806307973ccf146100c75780631c6727f9146100f2578063395a09c6146100fc578063481c6a751461012757806362d5e48614610152578063937e09b114610182575b600080fd5b3480156100d357600080fd5b506100dc610316565b6040516100e99190610c30565b60405180910390f35b6100fa61031c565b005b34801561010857600080fd5b50610111610424565b60405161011e9190610c30565b60405180910390f35b34801561013357600080fd5b5061013c61042e565b6040516101499190610c8c565b60405180910390f35b61016c60048036038101906101679190610ce7565b610452565b6040516101799190610da4565b60405180910390f35b34801561018e57600080fd5b506101976106ae565b6040516101a49190610c30565b60405180910390f35b3480156101b957600080fd5b506101d460048036038101906101cf9190610ce7565b6106b4565b6040516101e19190610da4565b60405180910390f35b3480156101f657600080fd5b50610211600480360381019061020c9190610df2565b6107f0565b60405161021e9190610e3a565b60405180910390f35b34801561023357600080fd5b5061023c610810565b6040516102499190610c30565b60405180910390f35b34801561025e57600080fd5b5061027960048036038101906102749190610fc8565b610816565b005b34801561028757600080fd5b50610290610976565b6040516102a09493929190611067565b60405180910390f35b3480156102b557600080fd5b506102d060048036038101906102cb9190610ce7565b6109b4565b6040516102e2969594939291906110bb565b60405180910390f35b3480156102f757600080fd5b50610300610aa8565b60405161030d91906112d6565b60405180910390f35b60025481565b6001543411610360576040517f08c379a000000000000000000000000000000000000000000000000000000000815260040161035790611344565b60405180910390fd5b600760003373ffffffffffffffffffffffffffffffffffffffff1673ffffffffffffffffffffffffffffffffffffffff16815260200190815260200160002060009054906101000a900460ff16610422576001600760003373ffffffffffffffffffffffffffffffffffffffff1673ffffffffffffffffffffffffffffffffffffffff16815260200190815260200160002060006101000a81548160ff0219169083151502179055506002600081548092919061041c90611393565b91905055505b565b6000600354905090565b60008054906101000a900473ffffffffffffffffffffffffffffffffffffffff1681565b606081476006828154811061046a576104696113db565b5b90600052602060002090600602016003015411156104bd576040517f08c379a00000000000000000000000000000000000000000000000000000000081526004016104b490611456565b60405180910390fd5b6000600684815481106104d3576104d26113db565b5b9060005260206000209060060201905060006005600086815260200190815260200160002090508160010160009054906101000a900473ffffffffffffffffffffffffffffffffffffffff1673ffffffffffffffffffffffffffffffffffffffff166108fc83600301549081150290604051600060405180830381858888f19350505050158015610568573d6000803e3d6000fd5b508060010160003373ffffffffffffffffffffffffffffffffffffffff1673ffffffffffffffffffffffffffffffffffffffff16815260200190815260200160002060009054906101000a900460ff166106175760018160010160003373ffffffffffffffffffffffffffffffffffffffff1673ffffffffffffffffffffffffffffffffffffffff16815260200190815260200160002060006101000a81548160ff0219169083151502179055505b806000018054610626906114a5565b80601f0160208091040260200160405190810160405280929190818152602001828054610652906114a5565b801561069f5780601f106106745761010080835404028352916020019161069f565b820191906000526020600020905b81548152906001019060200180831161068257829003601f168201915b50505050509350505050919050565b60015481565b606060006005600084815260200190815260200160002090508060010160003373ffffffffffffffffffffffffffffffffffffffff1673ffffffffffffffffffffffffffffffffffffffff16815260200190815260200160002060009054906101000a900460ff1661075b576040517f08c379a000000000000000000000000000000000000000000000000000000000815260040161075290611522565b60405180910390fd5b80600001805461076a906114a5565b80601f0160208091040260200160405190810160405280929190818152602001828054610796906114a5565b80156107e35780601f106107b8576101008083540402835291602001916107e3565b820191906000526020600020905b8154815290600101906020018083116107c657829003601f168201915b5050505050915050919050565b60076020528060005260406000206000915054906101000a900460ff1681565b60035481565b60006040518060c0016040528060045481526020018373ffffffffffffffffffffffffffffffffffffffff1681526020018681526020018481526020016000815260200142815250905060068190806001815401808255809150506001900390600052602060002090600602016000909190919091506000820151816000015560208201518160010160006101000a81548173ffffffffffffffffffffffffffffffffffffffff021916908373ffffffffffffffffffffffffffffffffffffffff16021790555060408201518160020190816108f291906116ee565b50606082015181600301556080820151816004015560a082015181600501555050600060056000600454815260200190815260200160002090508481600001908161093d91906116ee565b506004600081548092919061095190611393565b91905055506003600081548092919061096990611393565b9190505550505050505050565b60008060008060015460035460025460008054906101000a900473ffffffffffffffffffffffffffffffffffffffff16935093509350935090919293565b600681815481106109c457600080fd5b90600052602060002090600602016000915090508060000154908060010160009054906101000a900473ffffffffffffffffffffffffffffffffffffffff1690806002018054610a13906114a5565b80601f0160208091040260200160405190810160405280929190818152602001828054610a3f906114a5565b8015610a8c5780601f10610a6157610100808354040283529160200191610a8c565b820191906000526020600020905b815481529060010190602001808311610a6f57829003601f168201915b5050505050908060030154908060040154908060050154905086565b60606006805480602002602001604051908101604052809291908181526020016000905b82821015610c0e57838290600052602060002090600602016040518060c0016040529081600082015481526020016001820160009054906101000a900473ffffffffffffffffffffffffffffffffffffffff1673ffffffffffffffffffffffffffffffffffffffff1673ffffffffffffffffffffffffffffffffffffffff168152602001600282018054610b5f906114a5565b80601f0160208091040260200160405190810160405280929190818152602001828054610b8b906114a5565b8015610bd85780601f10610bad57610100808354040283529160200191610bd8565b820191906000526020600020905b815481529060010190602001808311610bbb57829003601f168201915b50505050508152602001600382015481526020016004820154815260200160058201548152505081526020019060010190610acc565b50505050905090565b6000819050919050565b610c2a81610c17565b82525050565b6000602082019050610c456000830184610c21565b92915050565b600073ffffffffffffffffffffffffffffffffffffffff82169050919050565b6000610c7682610c4b565b9050919050565b610c8681610c6b565b82525050565b6000602082019050610ca16000830184610c7d565b92915050565b6000604051905090565b600080fd5b600080fd5b610cc481610c17565b8114610ccf57600080fd5b50565b600081359050610ce181610cbb565b92915050565b600060208284031215610cfd57610cfc610cb1565b5b6000610d0b84828501610cd2565b91505092915050565b600081519050919050565b600082825260208201905092915050565b60005b83811015610d4e578082015181840152602081019050610d33565b60008484015250505050565b6000601f19601f8301169050919050565b6000610d7682610d14565b610d808185610d1f565b9350610d90818560208601610d30565b610d9981610d5a565b840191505092915050565b60006020820190508181036000830152610dbe8184610d6b565b905092915050565b610dcf81610c6b565b8114610dda57600080fd5b50565b600081359050610dec81610dc6565b92915050565b600060208284031215610e0857610e07610cb1565b5b6000610e1684828501610ddd565b91505092915050565b60008115159050919050565b610e3481610e1f565b82525050565b6000602082019050610e4f6000830184610e2b565b92915050565b600080fd5b600080fd5b7f4e487b7100000000000000000000000000000000000000000000000000000000600052604160045260246000fd5b610e9782610d5a565b810181811067ffffffffffffffff82111715610eb657610eb5610e5f565b5b80604052505050565b6000610ec9610ca7565b9050610ed58282610e8e565b919050565b600067ffffffffffffffff821115610ef557610ef4610e5f565b5b610efe82610d5a565b9050602081019050919050565b82818337600083830152505050565b6000610f2d610f2884610eda565b610ebf565b905082815260208101848484011115610f4957610f48610e5a565b5b610f54848285610f0b565b509392505050565b600082601f830112610f7157610f70610e55565b5b8135610f81848260208601610f1a565b91505092915050565b6000610f9582610c4b565b9050919050565b610fa581610f8a565b8114610fb057600080fd5b50565b600081359050610fc281610f9c565b92915050565b60008060008060808587031215610fe257610fe1610cb1565b5b600085013567ffffffffffffffff81111561100057610fff610cb6565b5b61100c87828801610f5c565b945050602085013567ffffffffffffffff81111561102d5761102c610cb6565b5b61103987828801610f5c565b935050604061104a87828801610cd2565b925050606061105b87828801610fb3565b91505092959194509250565b600060808201905061107c6000830187610c21565b6110896020830186610c21565b6110966040830185610c21565b6110a36060830184610c7d565b95945050505050565b6110b581610f8a565b82525050565b600060c0820190506110d06000830189610c21565b6110dd60208301886110ac565b81810360408301526110ef8187610d6b565b90506110fe6060830186610c21565b61110b6080830185610c21565b61111860a0830184610c21565b979650505050505050565b600081519050919050565b600082825260208201905092915050565b6000819050602082019050919050565b61115881610c17565b82525050565b61116781610f8a565b82525050565b600082825260208201905092915050565b600061118982610d14565b611193818561116d565b93506111a3818560208601610d30565b6111ac81610d5a565b840191505092915050565b600060c0830160008301516111cf600086018261114f565b5060208301516111e2602086018261115e565b50604083015184820360408601526111fa828261117e565b915050606083015161120f606086018261114f565b506080830151611222608086018261114f565b5060a083015161123560a086018261114f565b508091505092915050565b600061124c83836111b7565b905092915050565b6000602082019050919050565b600061126c82611123565b611276818561112e565b9350836020820285016112888561113f565b8060005b858110156112c457848403895281516112a58582611240565b94506112b083611254565b925060208a0199505060018101905061128c565b50829750879550505050505092915050565b600060208201905081810360008301526112f08184611261565b905092915050565b7f6d696e696d756d20636f6e747269627574696f6e207265717569726564000000600082015250565b600061132e601d83610d1f565b9150611339826112f8565b602082019050919050565b6000602082019050818103600083015261135d81611321565b9050919050565b7f4e487b7100000000000000000000000000000000000000000000000000000000600052601160045260246000fd5b600061139e82610c17565b91507fffffffffffffffffffffffffffffffffffffffffffffffffffffffffffffffff82036113d0576113cf611364565b5b600182019050919050565b7f4e487b7100000000000000000000000000000000000000000000000000000000600052603260045260246000fd5b7f4e6f742073756666696369656e742062616c616e636500000000000000000000600082015250565b6000611440601683610d1f565b915061144b8261140a565b602082019050919050565b6000602082019050818103600083015261146f81611433565b9050919050565b7f4e487b7100000000000000000000000000000000000000000000000000000000600052602260045260246000fd5b600060028204905060018216806114bd57607f821691505b6020821081036114d0576114cf611476565b5b50919050565b7f4e6f74207375627363726962656420746f207468652066696c65207965740000600082015250565b600061150c601e83610d1f565b9150611517826114d6565b602082019050919050565b6000602082019050818103600083015261153b816114ff565b9050919050565b60008190508160005260206000209050919050565b60006020601f8301049050919050565b600082821b905092915050565b6000600883026115a47fffffffffffffffffffffffffffffffffffffffffffffffffffffffffffffffff82611567565b6115ae8683611567565b95508019841693508086168417925050509392505050565b6000819050919050565b60006115eb6115e66115e184610c17565b6115c6565b610c17565b9050919050565b6000819050919050565b611605836115d0565b611619611611826115f2565b848454611574565b825550505050565b600090565b61162e611621565b6116398184846115fc565b505050565b5b8181101561165d57611652600082611626565b60018101905061163f565b5050565b601f8211156116a25761167381611542565b61167c84611557565b8101602085101561168b578190505b61169f61169785611557565b83018261163e565b50505b505050565b600082821c905092915050565b60006116c5600019846008026116a7565b1980831691505092915050565b60006116de83836116b4565b9150826002028217905092915050565b6116f782610d14565b67ffffffffffffffff8111156117105761170f610e5f565b5b61171a82546114a5565b611725828285611661565b600060209050601f8311600181146117585760008415611746578287015190505b61175085826116d2565b8655506117b8565b601f19841661176686611542565b60005b8281101561178e57848901518255600182019150602085019450602081019050611769565b868310156117ab57848901516117a7601f8916826116b4565b8355505b6001600288020188555050505b50505050505056fea26469706673582212201ae879e3d4a42adf56d2ae216bbbbe88e1a72a80c9455fed7f003e4ec9a01b0864736f6c63430008100033","opcodes":"PUSH1 0x80 PUSH1 0x40 MSTORE PUSH1 0x0 PUSH1 0x4 SSTORE CALLVALUE DUP1 ISZERO PUSH3 0x16 JUMPI PUSH1 0x0 DUP1 REVERT JUMPDEST POP PUSH1 0x40 MLOAD PUSH3 0x197D CODESIZE SUB DUP1 PUSH3 0x197D DUP4 CODECOPY DUP2 DUP2 ADD PUSH1 0x40 MSTORE DUP2 ADD SWAP1 PUSH3 0x3C SWAP2 SWAP1 PUSH3 0x130 JUMP JUMPDEST DUP1 PUSH1 0x0 DUP1 PUSH2 0x100 EXP DUP2 SLOAD DUP2 PUSH20 0xFFFFFFFFFFFFFFFFFFFFFFFFFFFFFFFFFFFFFFFF MUL NOT AND SWAP1 DUP4 PUSH20 0xFFFFFFFFFFFFFFFFFFFFFFFFFFFFFFFFFFFFFFFF AND MUL OR SWAP1 SSTORE POP DUP2 PUSH1 0x1 DUP2 SWAP1 SSTORE POP POP POP PUSH3 0x177 JUMP JUMPDEST PUSH1 0x0 DUP1 REVERT JUMPDEST PUSH1 0x0 DUP2 SWAP1 POP SWAP2 SWAP1 POP JUMP JUMPDEST PUSH3 0xA5 DUP2 PUSH3 0x90 JUMP JUMPDEST DUP2 EQ PUSH3 0xB1 JUMPI PUSH1 0x0 DUP1 REVERT JUMPDEST POP JUMP JUMPDEST PUSH1 0x0 DUP2 MLOAD SWAP1 POP PUSH3 0xC5 DUP2 PUSH3 0x9A JUMP JUMPDEST SWAP3 SWAP2 POP POP JUMP JUMPDEST PUSH1 0x0 PUSH20 0xFFFFFFFFFFFFFFFFFFFFFFFFFFFFFFFFFFFFFFFF DUP3 AND SWAP1 POP SWAP2 SWAP1 POP JUMP JUMPDEST PUSH1 0x0 PUSH3 0xF8 DUP3 PUSH3 0xCB JUMP JUMPDEST SWAP1 POP SWAP2 SWAP1 POP JUMP JUMPDEST PUSH3 0x10A DUP2 PUSH3 0xEB JUMP JUMPDEST DUP2 EQ PUSH3 0x116 JUMPI PUSH1 0x0 DUP1 REVERT JUMPDEST POP JUMP JUMPDEST PUSH1 0x0 DUP2 MLOAD SWAP1 POP PUSH3 0x12A DUP2 PUSH3 0xFF JUMP JUMPDEST SWAP3 SWAP2 POP POP JUMP JUMPDEST PUSH1 0x0 DUP1 PUSH1 0x40 DUP4 DUP6 SUB SLT ISZERO PUSH3 0x14A JUMPI PUSH3 0x149 PUSH3 0x8B JUMP JUMPDEST JUMPDEST PUSH1 0x0 PUSH3 0x15A DUP6 DUP3 DUP7 ADD PUSH3 0xB4 JUMP JUMPDEST SWAP3 POP POP PUSH1 0x20 PUSH3 0x16D DUP6 DUP3 DUP7 ADD PUSH3 0x119 JUMP JUMPDEST SWAP2 POP POP SWAP3 POP SWAP3 SWAP1 POP JUMP JUMPDEST PUSH2 0x17F6 DUP1 PUSH3 0x187 PUSH1 0x0 CODECOPY PUSH1 0x0 RETURN INVALID PUSH1 0x80 PUSH1 0x40 MSTORE PUSH1 0x4 CALLDATASIZE LT PUSH2 0xC2 JUMPI PUSH1 0x0 CALLDATALOAD PUSH1 0xE0 SHR DUP1 PUSH4 0x93DF2738 GT PUSH2 0x7F JUMPI DUP1 PUSH4 0xEA97056A GT PUSH2 0x59 JUMPI DUP1 PUSH4 0xEA97056A EQ PUSH2 0x252 JUMPI DUP1 PUSH4 0xF1BFE13A EQ PUSH2 0x27B JUMPI DUP1 PUSH4 0xF4C714B4 EQ PUSH2 0x2A9 JUMPI DUP1 PUSH4 0xFF24B5D5 EQ PUSH2 0x2EB JUMPI PUSH2 0xC2 JUMP JUMPDEST DUP1 PUSH4 0x93DF2738 EQ PUSH2 0x1AD JUMPI DUP1 PUSH4 0xA87430BA EQ PUSH2 0x1EA JUMPI DUP1 PUSH4 0xDFB5E9BA EQ PUSH2 0x227 JUMPI PUSH2 0xC2 JUMP JUMPDEST DUP1 PUSH4 0x7973CCF EQ PUSH2 0xC7 JUMPI DUP1 PUSH4 0x1C6727F9 EQ PUSH2 0xF2 JUMPI DUP1 PUSH4 0x395A09C6 EQ PUSH2 0xFC JUMPI DUP1 PUSH4 0x481C6A75 EQ PUSH2 0x127 JUMPI DUP1 PUSH4 0x62D5E486 EQ PUSH2 0x152 JUMPI DUP1 PUSH4 0x937E09B1 EQ PUSH2 0x182 JUMPI JUMPDEST PUSH1 0x0 DUP1 REVERT JUMPDEST CALLVALUE DUP1 ISZERO PUSH2 0xD3 JUMPI PUSH1 0x0 DUP1 REVERT JUMPDEST POP PUSH2 0xDC PUSH2 0x316 JUMP JUMPDEST PUSH1 0x40 MLOAD PUSH2 0xE9 SWAP2 SWAP1 PUSH2 0xC30 JUMP JUMPDEST PUSH1 0x40 MLOAD DUP1 SWAP2 SUB SWAP1 RETURN JUMPDEST PUSH2 0xFA PUSH2 0x31C JUMP JUMPDEST STOP JUMPDEST CALLVALUE DUP1 ISZERO PUSH2 0x108 JUMPI PUSH1 0x0 DUP1 REVERT JUMPDEST POP PUSH2 0x111 PUSH2 0x424 JUMP JUMPDEST PUSH1 0x40 MLOAD PUSH2 0x11E SWAP2 SWAP1 PUSH2 0xC30 JUMP JUMPDEST PUSH1 0x40 MLOAD DUP1 SWAP2 SUB SWAP1 RETURN JUMPDEST CALLVALUE DUP1 ISZERO PUSH2 0x133 JUMPI PUSH1 0x0 DUP1 REVERT JUMPDEST POP PUSH2 0x13C PUSH2 0x42E JUMP JUMPDEST PUSH1 0x40 MLOAD PUSH2 0x149 SWAP2 SWAP1 PUSH2 0xC8C JUMP JUMPDEST PUSH1 0x40 MLOAD DUP1 SWAP2 SUB SWAP1 RETURN JUMPDEST PUSH2 0x16C PUSH1 0x4 DUP1 CALLDATASIZE SUB DUP2 ADD SWAP1 PUSH2 0x167 SWAP2 SWAP1 PUSH2 0xCE7 JUMP JUMPDEST PUSH2 0x452 JUMP JUMPDEST PUSH1 0x40 MLOAD PUSH2 0x179 SWAP2 SWAP1 PUSH2 0xDA4 JUMP JUMPDEST PUSH1 0x40 MLOAD DUP1 SWAP2 SUB SWAP1 RETURN JUMPDEST CALLVALUE DUP1 ISZERO PUSH2 0x18E JUMPI PUSH1 0x0 DUP1 REVERT JUMPDEST POP PUSH2 0x197 PUSH2 0x6AE JUMP JUMPDEST PUSH1 0x40 MLOAD PUSH2 0x1A4 SWAP2 SWAP1 PUSH2 0xC30 JUMP JUMPDEST PUSH1 0x40 MLOAD DUP1 SWAP2 SUB SWAP1 RETURN JUMPDEST CALLVALUE DUP1 ISZERO PUSH2 0x1B9 JUMPI PUSH1 0x0 DUP1 REVERT JUMPDEST POP PUSH2 0x1D4 PUSH1 0x4 DUP1 CALLDATASIZE SUB DUP2 ADD SWAP1 PUSH2 0x1CF SWAP2 SWAP1 PUSH2 0xCE7 JUMP JUMPDEST PUSH2 0x6B4 JUMP JUMPDEST PUSH1 0x40 MLOAD PUSH2 0x1E1 SWAP2 SWAP1 PUSH2 0xDA4 JUMP JUMPDEST PUSH1 0x40 MLOAD DUP1 SWAP2 SUB SWAP1 RETURN JUMPDEST CALLVALUE DUP1 ISZERO PUSH2 0x1F6 JUMPI PUSH1 0x0 DUP1 REVERT JUMPDEST POP PUSH2 0x211 PUSH1 0x4 DUP1 CALLDATASIZE SUB DUP2 ADD SWAP1 PUSH2 0x20C SWAP2 SWAP1 PUSH2 0xDF2 JUMP JUMPDEST PUSH2 0x7F0 JUMP JUMPDEST PUSH1 0x40 MLOAD PUSH2 0x21E SWAP2 SWAP1 PUSH2 0xE3A JUMP JUMPDEST PUSH1 0x40 MLOAD DUP1 SWAP2 SUB SWAP1 RETURN JUMPDEST CALLVALUE DUP1 ISZERO PUSH2 0x233 JUMPI PUSH1 0x0 DUP1 REVERT JUMPDEST POP PUSH2 0x23C PUSH2 0x810 JUMP JUMPDEST PUSH1 0x40 MLOAD PUSH2 0x249 SWAP2 SWAP1 PUSH2 0xC30 JUMP JUMPDEST PUSH1 0x40 MLOAD DUP1 SWAP2 SUB SWAP1 RETURN JUMPDEST CALLVALUE DUP1 ISZERO PUSH2 0x25E JUMPI PUSH1 0x0 DUP1 REVERT JUMPDEST POP PUSH2 0x279 PUSH1 0x4 DUP1 CALLDATASIZE SUB DUP2 ADD SWAP1 PUSH2 0x274 SWAP2 SWAP1 PUSH2 0xFC8 JUMP JUMPDEST PUSH2 0x816 JUMP JUMPDEST STOP JUMPDEST CALLVALUE DUP1 ISZERO PUSH2 0x287 JUMPI PUSH1 0x0 DUP1 REVERT JUMPDEST POP PUSH2 0x290 PUSH2 0x976 JUMP JUMPDEST PUSH1 0x40 MLOAD PUSH2 0x2A0 SWAP5 SWAP4 SWAP3 SWAP2 SWAP1 PUSH2 0x1067 JUMP JUMPDEST PUSH1 0x40 MLOAD DUP1 SWAP2 SUB SWAP1 RETURN JUMPDEST CALLVALUE DUP1 ISZERO PUSH2 0x2B5 JUMPI PUSH1 0x0 DUP1 REVERT JUMPDEST POP PUSH2 0x2D0 PUSH1 0x4 DUP1 CALLDATASIZE SUB DUP2 ADD SWAP1 PUSH2 0x2CB SWAP2 SWAP1 PUSH2 0xCE7 JUMP JUMPDEST PUSH2 0x9B4 JUMP JUMPDEST PUSH1 0x40 MLOAD PUSH2 0x2E2 SWAP7 SWAP6 SWAP5 SWAP4 SWAP3 SWAP2 SWAP1 PUSH2 0x10BB JUMP JUMPDEST PUSH1 0x40 MLOAD DUP1 SWAP2 SUB SWAP1 RETURN JUMPDEST CALLVALUE DUP1 ISZERO PUSH2 0x2F7 JUMPI PUSH1 0x0 DUP1 REVERT JUMPDEST POP PUSH2 0x300 PUSH2 0xAA8 JUMP JUMPDEST PUSH1 0x40 MLOAD PUSH2 0x30D SWAP2 SWAP1 PUSH2 0x12D6 JUMP JUMPDEST PUSH1 0x40 MLOAD DUP1 SWAP2 SUB SWAP1 RETURN JUMPDEST PUSH1 0x2 SLOAD DUP2 JUMP JUMPDEST PUSH1 0x1 SLOAD CALLVALUE GT PUSH2 0x360 JUMPI PUSH1 0x40 MLOAD PUSH32 0x8C379A000000000000000000000000000000000000000000000000000000000 DUP2 MSTORE PUSH1 0x4 ADD PUSH2 0x357 SWAP1 PUSH2 0x1344 JUMP JUMPDEST PUSH1 0x40 MLOAD DUP1 SWAP2 SUB SWAP1 REVERT JUMPDEST PUSH1 0x7 PUSH1 0x0 CALLER PUSH20 0xFFFFFFFFFFFFFFFFFFFFFFFFFFFFFFFFFFFFFFFF AND PUSH20 0xFFFFFFFFFFFFFFFFFFFFFFFFFFFFFFFFFFFFFFFF AND DUP2 MSTORE PUSH1 0x20 ADD SWAP1 DUP2 MSTORE PUSH1 0x20 ADD PUSH1 0x0 KECCAK256 PUSH1 0x0 SWAP1 SLOAD SWAP1 PUSH2 0x100 EXP SWAP1 DIV PUSH1 0xFF AND PUSH2 0x422 JUMPI PUSH1 0x1 PUSH1 0x7 PUSH1 0x0 CALLER PUSH20 0xFFFFFFFFFFFFFFFFFFFFFFFFFFFFFFFFFFFFFFFF AND PUSH20 0xFFFFFFFFFFFFFFFFFFFFFFFFFFFFFFFFFFFFFFFF AND DUP2 MSTORE PUSH1 0x20 ADD SWAP1 DUP2 MSTORE PUSH1 0x20 ADD PUSH1 0x0 KECCAK256 PUSH1 0x0 PUSH2 0x100 EXP DUP2 SLOAD DUP2 PUSH1 0xFF MUL NOT AND SWAP1 DUP4 ISZERO ISZERO MUL OR SWAP1 SSTORE POP PUSH1 0x2 PUSH1 0x0 DUP2 SLOAD DUP1 SWAP3 SWAP2 SWAP1 PUSH2 0x41C SWAP1 PUSH2 0x1393 JUMP JUMPDEST SWAP2 SWAP1 POP SSTORE POP JUMPDEST JUMP JUMPDEST PUSH1 0x0 PUSH1 0x3 SLOAD SWAP1 POP SWAP1 JUMP JUMPDEST PUSH1 0x0 DUP1 SLOAD SWAP1 PUSH2 0x100 EXP SWAP1 DIV PUSH20 0xFFFFFFFFFFFFFFFFFFFFFFFFFFFFFFFFFFFFFFFF AND DUP2 JUMP JUMPDEST PUSH1 0x60 DUP2 SELFBALANCE PUSH1 0x6 DUP3 DUP2 SLOAD DUP2 LT PUSH2 0x46A JUMPI PUSH2 0x469 PUSH2 0x13DB JUMP JUMPDEST JUMPDEST SWAP1 PUSH1 0x0 MSTORE PUSH1 0x20 PUSH1 0x0 KECCAK256 SWAP1 PUSH1 0x6 MUL ADD PUSH1 0x3 ADD SLOAD GT ISZERO PUSH2 0x4BD JUMPI PUSH1 0x40 MLOAD PUSH32 0x8C379A000000000000000000000000000000000000000000000000000000000 DUP2 MSTORE PUSH1 0x4 ADD PUSH2 0x4B4 SWAP1 PUSH2 0x1456 JUMP JUMPDEST PUSH1 0x40 MLOAD DUP1 SWAP2 SUB SWAP1 REVERT JUMPDEST PUSH1 0x0 PUSH1 0x6 DUP5 DUP2 SLOAD DUP2 LT PUSH2 0x4D3 JUMPI PUSH2 0x4D2 PUSH2 0x13DB JUMP JUMPDEST JUMPDEST SWAP1 PUSH1 0x0 MSTORE PUSH1 0x20 PUSH1 0x0 KECCAK256 SWAP1 PUSH1 0x6 MUL ADD SWAP1 POP PUSH1 0x0 PUSH1 0x5 PUSH1 0x0 DUP7 DUP2 MSTORE PUSH1 0x20 ADD SWAP1 DUP2 MSTORE PUSH1 0x20 ADD PUSH1 0x0 KECCAK256 SWAP1 POP DUP2 PUSH1 0x1 ADD PUSH1 0x0 SWAP1 SLOAD SWAP1 PUSH2 0x100 EXP SWAP1 DIV PUSH20 0xFFFFFFFFFFFFFFFFFFFFFFFFFFFFFFFFFFFFFFFF AND PUSH20 0xFFFFFFFFFFFFFFFFFFFFFFFFFFFFFFFFFFFFFFFF AND PUSH2 0x8FC DUP4 PUSH1 0x3 ADD SLOAD SWAP1 DUP2 ISZERO MUL SWAP1 PUSH1 0x40 MLOAD PUSH1 0x0 PUSH1 0x40 MLOAD DUP1 DUP4 SUB DUP2 DUP6 DUP9 DUP9 CALL SWAP4 POP POP POP POP ISZERO DUP1 ISZERO PUSH2 0x568 JUMPI RETURNDATASIZE PUSH1 0x0 DUP1 RETURNDATACOPY RETURNDATASIZE PUSH1 0x0 REVERT JUMPDEST POP DUP1 PUSH1 0x1 ADD PUSH1 0x0 CALLER PUSH20 0xFFFFFFFFFFFFFFFFFFFFFFFFFFFFFFFFFFFFFFFF AND PUSH20 0xFFFFFFFFFFFFFFFFFFFFFFFFFFFFFFFFFFFFFFFF AND DUP2 MSTORE PUSH1 0x20 ADD SWAP1 DUP2 MSTORE PUSH1 0x20 ADD PUSH1 0x0 KECCAK256 PUSH1 0x0 SWAP1 SLOAD SWAP1 PUSH2 0x100 EXP SWAP1 DIV PUSH1 0xFF AND PUSH2 0x617 JUMPI PUSH1 0x1 DUP2 PUSH1 0x1 ADD PUSH1 0x0 CALLER PUSH20 0xFFFFFFFFFFFFFFFFFFFFFFFFFFFFFFFFFFFFFFFF AND PUSH20 0xFFFFFFFFFFFFFFFFFFFFFFFFFFFFFFFFFFFFFFFF AND DUP2 MSTORE PUSH1 0x20 ADD SWAP1 DUP2 MSTORE PUSH1 0x20 ADD PUSH1 0x0 KECCAK256 PUSH1 0x0 PUSH2 0x100 EXP DUP2 SLOAD DUP2 PUSH1 0xFF MUL NOT AND SWAP1 DUP4 ISZERO ISZERO MUL OR SWAP1 SSTORE POP JUMPDEST DUP1 PUSH1 0x0 ADD DUP1 SLOAD PUSH2 0x626 SWAP1 PUSH2 0x14A5 JUMP JUMPDEST DUP1 PUSH1 0x1F ADD PUSH1 0x20 DUP1 SWAP2 DIV MUL PUSH1 0x20 ADD PUSH1 0x40 MLOAD SWAP1 DUP2 ADD PUSH1 0x40 MSTORE DUP1 SWAP3 SWAP2 SWAP1 DUP2 DUP2 MSTORE PUSH1 0x20 ADD DUP3 DUP1 SLOAD PUSH2 0x652 SWAP1 PUSH2 0x14A5 JUMP JUMPDEST DUP1 ISZERO PUSH2 0x69F JUMPI DUP1 PUSH1 0x1F LT PUSH2 0x674 JUMPI PUSH2 0x100 DUP1 DUP4 SLOAD DIV MUL DUP4 MSTORE SWAP2 PUSH1 0x20 ADD SWAP2 PUSH2 0x69F JUMP JUMPDEST DUP3 ADD SWAP2 SWAP1 PUSH1 0x0 MSTORE PUSH1 0x20 PUSH1 0x0 KECCAK256 SWAP1 JUMPDEST DUP2 SLOAD DUP2 MSTORE SWAP1 PUSH1 0x1 ADD SWAP1 PUSH1 0x20 ADD DUP1 DUP4 GT PUSH2 0x682 JUMPI DUP3 SWAP1 SUB PUSH1 0x1F AND DUP3 ADD SWAP2 JUMPDEST POP POP POP POP POP SWAP4 POP POP POP POP SWAP2 SWAP1 POP JUMP JUMPDEST PUSH1 0x1 SLOAD DUP2 JUMP JUMPDEST PUSH1 0x60 PUSH1 0x0 PUSH1 0x5 PUSH1 0x0 DUP5 DUP2 MSTORE PUSH1 0x20 ADD SWAP1 DUP2 MSTORE PUSH1 0x20 ADD PUSH1 0x0 KECCAK256 SWAP1 POP DUP1 PUSH1 0x1 ADD PUSH1 0x0 CALLER PUSH20 0xFFFFFFFFFFFFFFFFFFFFFFFFFFFFFFFFFFFFFFFF AND PUSH20 0xFFFFFFFFFFFFFFFFFFFFFFFFFFFFFFFFFFFFFFFF AND DUP2 MSTORE PUSH1 0x20 ADD SWAP1 DUP2 MSTORE PUSH1 0x20 ADD PUSH1 0x0 KECCAK256 PUSH1 0x0 SWAP1 SLOAD SWAP1 PUSH2 0x100 EXP SWAP1 DIV PUSH1 0xFF AND PUSH2 0x75B JUMPI PUSH1 0x40 MLOAD PUSH32 0x8C379A000000000000000000000000000000000000000000000000000000000 DUP2 MSTORE PUSH1 0x4 ADD PUSH2 0x752 SWAP1 PUSH2 0x1522 JUMP JUMPDEST PUSH1 0x40 MLOAD DUP1 SWAP2 SUB SWAP1 REVERT JUMPDEST DUP1 PUSH1 0x0 ADD DUP1 SLOAD PUSH2 0x76A SWAP1 PUSH2 0x14A5 JUMP JUMPDEST DUP1 PUSH1 0x1F ADD PUSH1 0x20 DUP1 SWAP2 DIV MUL PUSH1 0x20 ADD PUSH1 0x40 MLOAD SWAP1 DUP2 ADD PUSH1 0x40 MSTORE DUP1 SWAP3 SWAP2 SWAP1 DUP2 DUP2 MSTORE PUSH1 0x20 ADD DUP3 DUP1 SLOAD PUSH2 0x796 SWAP1 PUSH2 0x14A5 JUMP JUMPDEST DUP1 ISZERO PUSH2 0x7E3 JUMPI DUP1 PUSH1 0x1F LT PUSH2 0x7B8 JUMPI PUSH2 0x100 DUP1 DUP4 SLOAD DIV MUL DUP4 MSTORE SWAP2 PUSH1 0x20 ADD SWAP2 PUSH2 0x7E3 JUMP JUMPDEST DUP3 ADD SWAP2 SWAP1 PUSH1 0x0 MSTORE PUSH1 0x20 PUSH1 0x0 KECCAK256 SWAP1 JUMPDEST DUP2 SLOAD DUP2 MSTORE SWAP1 PUSH1 0x1 ADD SWAP1 PUSH1 0x20 ADD DUP1 DUP4 GT PUSH2 0x7C6 JUMPI DUP3 SWAP1 SUB PUSH1 0x1F AND DUP3 ADD SWAP2 JUMPDEST POP POP POP POP POP SWAP2 POP POP SWAP2 SWAP1 POP JUMP JUMPDEST PUSH1 0x7 PUSH1 0x20 MSTORE DUP1 PUSH1 0x0 MSTORE PUSH1 0x40 PUSH1 0x0 KECCAK256 PUSH1 0x0 SWAP2 POP SLOAD SWAP1 PUSH2 0x100 EXP SWAP1 DIV PUSH1 0xFF AND DUP2 JUMP JUMPDEST PUSH1 0x3 SLOAD DUP2 JUMP JUMPDEST PUSH1 0x0 PUSH1 0x40 MLOAD DUP1 PUSH1 0xC0 ADD PUSH1 0x40 MSTORE DUP1 PUSH1 0x4 SLOAD DUP2 MSTORE PUSH1 0x20 ADD DUP4 PUSH20 0xFFFFFFFFFFFFFFFFFFFFFFFFFFFFFFFFFFFFFFFF AND DUP2 MSTORE PUSH1 0x20 ADD DUP7 DUP2 MSTORE PUSH1 0x20 ADD DUP5 DUP2 MSTORE PUSH1 0x20 ADD PUSH1 0x0 DUP2 MSTORE PUSH1 0x20 ADD TIMESTAMP DUP2 MSTORE POP SWAP1 POP PUSH1 0x6 DUP2 SWAP1 DUP1 PUSH1 0x1 DUP2 SLOAD ADD DUP1 DUP3 SSTORE DUP1 SWAP2 POP POP PUSH1 0x1 SWAP1 SUB SWAP1 PUSH1 0x0 MSTORE PUSH1 0x20 PUSH1 0x0 KECCAK256 SWAP1 PUSH1 0x6 MUL ADD PUSH1 0x0 SWAP1 SWAP2 SWAP1 SWAP2 SWAP1 SWAP2 POP PUSH1 0x0 DUP3 ADD MLOAD DUP2 PUSH1 0x0 ADD SSTORE PUSH1 0x20 DUP3 ADD MLOAD DUP2 PUSH1 0x1 ADD PUSH1 0x0 PUSH2 0x100 EXP DUP2 SLOAD DUP2 PUSH20 0xFFFFFFFFFFFFFFFFFFFFFFFFFFFFFFFFFFFFFFFF MUL NOT AND SWAP1 DUP4 PUSH20 0xFFFFFFFFFFFFFFFFFFFFFFFFFFFFFFFFFFFFFFFF AND MUL OR SWAP1 SSTORE POP PUSH1 0x40 DUP3 ADD MLOAD DUP2 PUSH1 0x2 ADD SWAP1 DUP2 PUSH2 0x8F2 SWAP2 SWAP1 PUSH2 0x16EE JUMP JUMPDEST POP PUSH1 0x60 DUP3 ADD MLOAD DUP2 PUSH1 0x3 ADD SSTORE PUSH1 0x80 DUP3 ADD MLOAD DUP2 PUSH1 0x4 ADD SSTORE PUSH1 0xA0 DUP3 ADD MLOAD DUP2 PUSH1 0x5 ADD SSTORE POP POP PUSH1 0x0 PUSH1 0x5 PUSH1 0x0 PUSH1 0x4 SLOAD DUP2 MSTORE PUSH1 0x20 ADD SWAP1 DUP2 MSTORE PUSH1 0x20 ADD PUSH1 0x0 KECCAK256 SWAP1 POP DUP5 DUP2 PUSH1 0x0 ADD SWAP1 DUP2 PUSH2 0x93D SWAP2 SWAP1 PUSH2 0x16EE JUMP JUMPDEST POP PUSH1 0x4 PUSH1 0x0 DUP2 SLOAD DUP1 SWAP3 SWAP2 SWAP1 PUSH2 0x951 SWAP1 PUSH2 0x1393 JUMP JUMPDEST SWAP2 SWAP1 POP SSTORE POP PUSH1 0x3 PUSH1 0x0 DUP2 SLOAD DUP1 SWAP3 SWAP2 SWAP1 PUSH2 0x969 SWAP1 PUSH2 0x1393 JUMP JUMPDEST SWAP2 SWAP1 POP SSTORE POP POP POP POP POP POP POP JUMP JUMPDEST PUSH1 0x0 DUP1 PUSH1 0x0 DUP1 PUSH1 0x1 SLOAD PUSH1 0x3 SLOAD PUSH1 0x2 SLOAD PUSH1 0x0 DUP1 SLOAD SWAP1 PUSH2 0x100 EXP SWAP1 DIV PUSH20 0xFFFFFFFFFFFFFFFFFFFFFFFFFFFFFFFFFFFFFFFF AND SWAP4 POP SWAP4 POP SWAP4 POP SWAP4 POP SWAP1 SWAP2 SWAP3 SWAP4 JUMP JUMPDEST PUSH1 0x6 DUP2 DUP2 SLOAD DUP2 LT PUSH2 0x9C4 JUMPI PUSH1 0x0 DUP1 REVERT JUMPDEST SWAP1 PUSH1 0x0 MSTORE PUSH1 0x20 PUSH1 0x0 KECCAK256 SWAP1 PUSH1 0x6 MUL ADD PUSH1 0x0 SWAP2 POP SWAP1 POP DUP1 PUSH1 0x0 ADD SLOAD SWAP1 DUP1 PUSH1 0x1 ADD PUSH1 0x0 SWAP1 SLOAD SWAP1 PUSH2 0x100 EXP SWAP1 DIV PUSH20 0xFFFFFFFFFFFFFFFFFFFFFFFFFFFFFFFFFFFFFFFF AND SWAP1 DUP1 PUSH1 0x2 ADD DUP1 SLOAD PUSH2 0xA13 SWAP1 PUSH2 0x14A5 JUMP JUMPDEST DUP1 PUSH1 0x1F ADD PUSH1 0x20 DUP1 SWAP2 DIV MUL PUSH1 0x20 ADD PUSH1 0x40 MLOAD SWAP1 DUP2 ADD PUSH1 0x40 MSTORE DUP1 SWAP3 SWAP2 SWAP1 DUP2 DUP2 MSTORE PUSH1 0x20 ADD DUP3 DUP1 SLOAD PUSH2 0xA3F SWAP1 PUSH2 0x14A5 JUMP JUMPDEST DUP1 ISZERO PUSH2 0xA8C JUMPI DUP1 PUSH1 0x1F LT PUSH2 0xA61 JUMPI PUSH2 0x100 DUP1 DUP4 SLOAD DIV MUL DUP4 MSTORE SWAP2 PUSH1 0x20 ADD SWAP2 PUSH2 0xA8C JUMP JUMPDEST DUP3 ADD SWAP2 SWAP1 PUSH1 0x0 MSTORE PUSH1 0x20 PUSH1 0x0 KECCAK256 SWAP1 JUMPDEST DUP2 SLOAD DUP2 MSTORE SWAP1 PUSH1 0x1 ADD SWAP1 PUSH1 0x20 ADD DUP1 DUP4 GT PUSH2 0xA6F JUMPI DUP3 SWAP1 SUB PUSH1 0x1F AND DUP3 ADD SWAP2 JUMPDEST POP POP POP POP POP SWAP1 DUP1 PUSH1 0x3 ADD SLOAD SWAP1 DUP1 PUSH1 0x4 ADD SLOAD SWAP1 DUP1 PUSH1 0x5 ADD SLOAD SWAP1 POP DUP7 JUMP JUMPDEST PUSH1 0x60 PUSH1 0x6 DUP1 SLOAD DUP1 PUSH1 0x20 MUL PUSH1 0x20 ADD PUSH1 0x40 MLOAD SWAP1 DUP2 ADD PUSH1 0x40 MSTORE DUP1 SWAP3 SWAP2 SWAP1 DUP2 DUP2 MSTORE PUSH1 0x20 ADD PUSH1 0x0 SWAP1 JUMPDEST DUP3 DUP3 LT ISZERO PUSH2 0xC0E JUMPI DUP4 DUP3 SWAP1 PUSH1 0x0 MSTORE PUSH1 0x20 PUSH1 0x0 KECCAK256 SWAP1 PUSH1 0x6 MUL ADD PUSH1 0x40 MLOAD DUP1 PUSH1 0xC0 ADD PUSH1 0x40 MSTORE SWAP1 DUP2 PUSH1 0x0 DUP3 ADD SLOAD DUP2 MSTORE PUSH1 0x20 ADD PUSH1 0x1 DUP3 ADD PUSH1 0x0 SWAP1 SLOAD SWAP1 PUSH2 0x100 EXP SWAP1 DIV PUSH20 0xFFFFFFFFFFFFFFFFFFFFFFFFFFFFFFFFFFFFFFFF AND PUSH20 0xFFFFFFFFFFFFFFFFFFFFFFFFFFFFFFFFFFFFFFFF AND PUSH20 0xFFFFFFFFFFFFFFFFFFFFFFFFFFFFFFFFFFFFFFFF AND DUP2 MSTORE PUSH1 0x20 ADD PUSH1 0x2 DUP3 ADD DUP1 SLOAD PUSH2 0xB5F SWAP1 PUSH2 0x14A5 JUMP JUMPDEST DUP1 PUSH1 0x1F ADD PUSH1 0x20 DUP1 SWAP2 DIV MUL PUSH1 0x20 ADD PUSH1 0x40 MLOAD SWAP1 DUP2 ADD PUSH1 0x40 MSTORE DUP1 SWAP3 SWAP2 SWAP1 DUP2 DUP2 MSTORE PUSH1 0x20 ADD DUP3 DUP1 SLOAD PUSH2 0xB8B SWAP1 PUSH2 0x14A5 JUMP JUMPDEST DUP1 ISZERO PUSH2 0xBD8 JUMPI DUP1 PUSH1 0x1F LT PUSH2 0xBAD JUMPI PUSH2 0x100 DUP1 DUP4 SLOAD DIV MUL DUP4 MSTORE SWAP2 PUSH1 0x20 ADD SWAP2 PUSH2 0xBD8 JUMP JUMPDEST DUP3 ADD SWAP2 SWAP1 PUSH1 0x0 MSTORE PUSH1 0x20 PUSH1 0x0 KECCAK256 SWAP1 JUMPDEST DUP2 SLOAD DUP2 MSTORE SWAP1 PUSH1 0x1 ADD SWAP1 PUSH1 0x20 ADD DUP1 DUP4 GT PUSH2 0xBBB JUMPI DUP3 SWAP1 SUB PUSH1 0x1F AND DUP3 ADD SWAP2 JUMPDEST POP POP POP POP POP DUP2 MSTORE PUSH1 0x20 ADD PUSH1 0x3 DUP3 ADD SLOAD DUP2 MSTORE PUSH1 0x20 ADD PUSH1 0x4 DUP3 ADD SLOAD DUP2 MSTORE PUSH1 0x20 ADD PUSH1 0x5 DUP3 ADD SLOAD DUP2 MSTORE POP POP DUP2 MSTORE PUSH1 0x20 ADD SWAP1 PUSH1 0x1 ADD SWAP1 PUSH2 0xACC JUMP JUMPDEST POP POP POP POP SWAP1 POP SWAP1 JUMP JUMPDEST PUSH1 0x0 DUP2 SWAP1 POP SWAP2 SWAP1 POP JUMP JUMPDEST PUSH2 0xC2A DUP2 PUSH2 0xC17 JUMP JUMPDEST DUP3 MSTORE POP POP JUMP JUMPDEST PUSH1 0x0 PUSH1 0x20 DUP3 ADD SWAP1 POP PUSH2 0xC45 PUSH1 0x0 DUP4 ADD DUP5 PUSH2 0xC21 JUMP JUMPDEST SWAP3 SWAP2 POP POP JUMP JUMPDEST PUSH1 0x0 PUSH20 0xFFFFFFFFFFFFFFFFFFFFFFFFFFFFFFFFFFFFFFFF DUP3 AND SWAP1 POP SWAP2 SWAP1 POP JUMP JUMPDEST PUSH1 0x0 PUSH2 0xC76 DUP3 PUSH2 0xC4B JUMP JUMPDEST SWAP1 POP SWAP2 SWAP1 POP JUMP JUMPDEST PUSH2 0xC86 DUP2 PUSH2 0xC6B JUMP JUMPDEST DUP3 MSTORE POP POP JUMP JUMPDEST PUSH1 0x0 PUSH1 0x20 DUP3 ADD SWAP1 POP PUSH2 0xCA1 PUSH1 0x0 DUP4 ADD DUP5 PUSH2 0xC7D JUMP JUMPDEST SWAP3 SWAP2 POP POP JUMP JUMPDEST PUSH1 0x0 PUSH1 0x40 MLOAD SWAP1 POP SWAP1 JUMP JUMPDEST PUSH1 0x0 DUP1 REVERT JUMPDEST PUSH1 0x0 DUP1 REVERT JUMPDEST PUSH2 0xCC4 DUP2 PUSH2 0xC17 JUMP JUMPDEST DUP2 EQ PUSH2 0xCCF JUMPI PUSH1 0x0 DUP1 REVERT JUMPDEST POP JUMP JUMPDEST PUSH1 0x0 DUP2 CALLDATALOAD SWAP1 POP PUSH2 0xCE1 DUP2 PUSH2 0xCBB JUMP JUMPDEST SWAP3 SWAP2 POP POP JUMP JUMPDEST PUSH1 0x0 PUSH1 0x20 DUP3 DUP5 SUB SLT ISZERO PUSH2 0xCFD JUMPI PUSH2 0xCFC PUSH2 0xCB1 JUMP JUMPDEST JUMPDEST PUSH1 0x0 PUSH2 0xD0B DUP5 DUP3 DUP6 ADD PUSH2 0xCD2 JUMP JUMPDEST SWAP2 POP POP SWAP3 SWAP2 POP POP JUMP JUMPDEST PUSH1 0x0 DUP2 MLOAD SWAP1 POP SWAP2 SWAP1 POP JUMP JUMPDEST PUSH1 0x0 DUP3 DUP3 MSTORE PUSH1 0x20 DUP3 ADD SWAP1 POP SWAP3 SWAP2 POP POP JUMP JUMPDEST PUSH1 0x0 JUMPDEST DUP4 DUP2 LT ISZERO PUSH2 0xD4E JUMPI DUP1 DUP3 ADD MLOAD DUP2 DUP5 ADD MSTORE PUSH1 0x20 DUP2 ADD SWAP1 POP PUSH2 0xD33 JUMP JUMPDEST PUSH1 0x0 DUP5 DUP5 ADD MSTORE POP POP POP POP JUMP JUMPDEST PUSH1 0x0 PUSH1 0x1F NOT PUSH1 0x1F DUP4 ADD AND SWAP1 POP SWAP2 SWAP1 POP JUMP JUMPDEST PUSH1 0x0 PUSH2 0xD76 DUP3 PUSH2 0xD14 JUMP JUMPDEST PUSH2 0xD80 DUP2 DUP6 PUSH2 0xD1F JUMP JUMPDEST SWAP4 POP PUSH2 0xD90 DUP2 DUP6 PUSH1 0x20 DUP7 ADD PUSH2 0xD30 JUMP JUMPDEST PUSH2 0xD99 DUP2 PUSH2 0xD5A JUMP JUMPDEST DUP5 ADD SWAP2 POP POP SWAP3 SWAP2 POP POP JUMP JUMPDEST PUSH1 0x0 PUSH1 0x20 DUP3 ADD SWAP1 POP DUP2 DUP2 SUB PUSH1 0x0 DUP4 ADD MSTORE PUSH2 0xDBE DUP2 DUP5 PUSH2 0xD6B JUMP JUMPDEST SWAP1 POP SWAP3 SWAP2 POP POP JUMP JUMPDEST PUSH2 0xDCF DUP2 PUSH2 0xC6B JUMP JUMPDEST DUP2 EQ PUSH2 0xDDA JUMPI PUSH1 0x0 DUP1 REVERT JUMPDEST POP JUMP JUMPDEST PUSH1 0x0 DUP2 CALLDATALOAD SWAP1 POP PUSH2 0xDEC DUP2 PUSH2 0xDC6 JUMP JUMPDEST SWAP3 SWAP2 POP POP JUMP JUMPDEST PUSH1 0x0 PUSH1 0x20 DUP3 DUP5 SUB SLT ISZERO PUSH2 0xE08 JUMPI PUSH2 0xE07 PUSH2 0xCB1 JUMP JUMPDEST JUMPDEST PUSH1 0x0 PUSH2 0xE16 DUP5 DUP3 DUP6 ADD PUSH2 0xDDD JUMP JUMPDEST SWAP2 POP POP SWAP3 SWAP2 POP POP JUMP JUMPDEST PUSH1 0x0 DUP2 ISZERO ISZERO SWAP1 POP SWAP2 SWAP1 POP JUMP JUMPDEST PUSH2 0xE34 DUP2 PUSH2 0xE1F JUMP JUMPDEST DUP3 MSTORE POP POP JUMP JUMPDEST PUSH1 0x0 PUSH1 0x20 DUP3 ADD SWAP1 POP PUSH2 0xE4F PUSH1 0x0 DUP4 ADD DUP5 PUSH2 0xE2B JUMP JUMPDEST SWAP3 SWAP2 POP POP JUMP JUMPDEST PUSH1 0x0 DUP1 REVERT JUMPDEST PUSH1 0x0 DUP1 REVERT JUMPDEST PUSH32 0x4E487B7100000000000000000000000000000000000000000000000000000000 PUSH1 0x0 MSTORE PUSH1 0x41 PUSH1 0x4 MSTORE PUSH1 0x24 PUSH1 0x0 REVERT JUMPDEST PUSH2 0xE97 DUP3 PUSH2 0xD5A JUMP JUMPDEST DUP2 ADD DUP2 DUP2 LT PUSH8 0xFFFFFFFFFFFFFFFF DUP3 GT OR ISZERO PUSH2 0xEB6 JUMPI PUSH2 0xEB5 PUSH2 0xE5F JUMP JUMPDEST JUMPDEST DUP1 PUSH1 0x40 MSTORE POP POP POP JUMP JUMPDEST PUSH1 0x0 PUSH2 0xEC9 PUSH2 0xCA7 JUMP JUMPDEST SWAP1 POP PUSH2 0xED5 DUP3 DUP3 PUSH2 0xE8E JUMP JUMPDEST SWAP2 SWAP1 POP JUMP JUMPDEST PUSH1 0x0 PUSH8 0xFFFFFFFFFFFFFFFF DUP3 GT ISZERO PUSH2 0xEF5 JUMPI PUSH2 0xEF4 PUSH2 0xE5F JUMP JUMPDEST JUMPDEST PUSH2 0xEFE DUP3 PUSH2 0xD5A JUMP JUMPDEST SWAP1 POP PUSH1 0x20 DUP2 ADD SWAP1 POP SWAP2 SWAP1 POP JUMP JUMPDEST DUP3 DUP2 DUP4 CALLDATACOPY PUSH1 0x0 DUP4 DUP4 ADD MSTORE POP POP POP JUMP JUMPDEST PUSH1 0x0 PUSH2 0xF2D PUSH2 0xF28 DUP5 PUSH2 0xEDA JUMP JUMPDEST PUSH2 0xEBF JUMP JUMPDEST SWAP1 POP DUP3 DUP2 MSTORE PUSH1 0x20 DUP2 ADD DUP5 DUP5 DUP5 ADD GT ISZERO PUSH2 0xF49 JUMPI PUSH2 0xF48 PUSH2 0xE5A JUMP JUMPDEST JUMPDEST PUSH2 0xF54 DUP5 DUP3 DUP6 PUSH2 0xF0B JUMP JUMPDEST POP SWAP4 SWAP3 POP POP POP JUMP JUMPDEST PUSH1 0x0 DUP3 PUSH1 0x1F DUP4 ADD SLT PUSH2 0xF71 JUMPI PUSH2 0xF70 PUSH2 0xE55 JUMP JUMPDEST JUMPDEST DUP2 CALLDATALOAD PUSH2 0xF81 DUP5 DUP3 PUSH1 0x20 DUP7 ADD PUSH2 0xF1A JUMP JUMPDEST SWAP2 POP POP SWAP3 SWAP2 POP POP JUMP JUMPDEST PUSH1 0x0 PUSH2 0xF95 DUP3 PUSH2 0xC4B JUMP JUMPDEST SWAP1 POP SWAP2 SWAP1 POP JUMP JUMPDEST PUSH2 0xFA5 DUP2 PUSH2 0xF8A JUMP JUMPDEST DUP2 EQ PUSH2 0xFB0 JUMPI PUSH1 0x0 DUP1 REVERT JUMPDEST POP JUMP JUMPDEST PUSH1 0x0 DUP2 CALLDATALOAD SWAP1 POP PUSH2 0xFC2 DUP2 PUSH2 0xF9C JUMP JUMPDEST SWAP3 SWAP2 POP POP JUMP JUMPDEST PUSH1 0x0 DUP1 PUSH1 0x0 DUP1 PUSH1 0x80 DUP6 DUP8 SUB SLT ISZERO PUSH2 0xFE2 JUMPI PUSH2 0xFE1 PUSH2 0xCB1 JUMP JUMPDEST JUMPDEST PUSH1 0x0 DUP6 ADD CALLDATALOAD PUSH8 0xFFFFFFFFFFFFFFFF DUP2 GT ISZERO PUSH2 0x1000 JUMPI PUSH2 0xFFF PUSH2 0xCB6 JUMP JUMPDEST JUMPDEST PUSH2 0x100C DUP8 DUP3 DUP9 ADD PUSH2 0xF5C JUMP JUMPDEST SWAP5 POP POP PUSH1 0x20 DUP6 ADD CALLDATALOAD PUSH8 0xFFFFFFFFFFFFFFFF DUP2 GT ISZERO PUSH2 0x102D JUMPI PUSH2 0x102C PUSH2 0xCB6 JUMP JUMPDEST JUMPDEST PUSH2 0x1039 DUP8 DUP3 DUP9 ADD PUSH2 0xF5C JUMP JUMPDEST SWAP4 POP POP PUSH1 0x40 PUSH2 0x104A DUP8 DUP3 DUP9 ADD PUSH2 0xCD2 JUMP JUMPDEST SWAP3 POP POP PUSH1 0x60 PUSH2 0x105B DUP8 DUP3 DUP9 ADD PUSH2 0xFB3 JUMP JUMPDEST SWAP2 POP POP SWAP3 SWAP6 SWAP2 SWAP5 POP SWAP3 POP JUMP JUMPDEST PUSH1 0x0 PUSH1 0x80 DUP3 ADD SWAP1 POP PUSH2 0x107C PUSH1 0x0 DUP4 ADD DUP8 PUSH2 0xC21 JUMP JUMPDEST PUSH2 0x1089 PUSH1 0x20 DUP4 ADD DUP7 PUSH2 0xC21 JUMP JUMPDEST PUSH2 0x1096 PUSH1 0x40 DUP4 ADD DUP6 PUSH2 0xC21 JUMP JUMPDEST PUSH2 0x10A3 PUSH1 0x60 DUP4 ADD DUP5 PUSH2 0xC7D JUMP JUMPDEST SWAP6 SWAP5 POP POP POP POP POP JUMP JUMPDEST PUSH2 0x10B5 DUP2 PUSH2 0xF8A JUMP JUMPDEST DUP3 MSTORE POP POP JUMP JUMPDEST PUSH1 0x0 PUSH1 0xC0 DUP3 ADD SWAP1 POP PUSH2 0x10D0 PUSH1 0x0 DUP4 ADD DUP10 PUSH2 0xC21 JUMP JUMPDEST PUSH2 0x10DD PUSH1 0x20 DUP4 ADD DUP9 PUSH2 0x10AC JUMP JUMPDEST DUP2 DUP2 SUB PUSH1 0x40 DUP4 ADD MSTORE PUSH2 0x10EF DUP2 DUP8 PUSH2 0xD6B JUMP JUMPDEST SWAP1 POP PUSH2 0x10FE PUSH1 0x60 DUP4 ADD DUP7 PUSH2 0xC21 JUMP JUMPDEST PUSH2 0x110B PUSH1 0x80 DUP4 ADD DUP6 PUSH2 0xC21 JUMP JUMPDEST PUSH2 0x1118 PUSH1 0xA0 DUP4 ADD DUP5 PUSH2 0xC21 JUMP JUMPDEST SWAP8 SWAP7 POP POP POP POP POP POP POP JUMP JUMPDEST PUSH1 0x0 DUP2 MLOAD SWAP1 POP SWAP2 SWAP1 POP JUMP JUMPDEST PUSH1 0x0 DUP3 DUP3 MSTORE PUSH1 0x20 DUP3 ADD SWAP1 POP SWAP3 SWAP2 POP POP JUMP JUMPDEST PUSH1 0x0 DUP2 SWAP1 POP PUSH1 0x20 DUP3 ADD SWAP1 POP SWAP2 SWAP1 POP JUMP JUMPDEST PUSH2 0x1158 DUP2 PUSH2 0xC17 JUMP JUMPDEST DUP3 MSTORE POP POP JUMP JUMPDEST PUSH2 0x1167 DUP2 PUSH2 0xF8A JUMP JUMPDEST DUP3 MSTORE POP POP JUMP JUMPDEST PUSH1 0x0 DUP3 DUP3 MSTORE PUSH1 0x20 DUP3 ADD SWAP1 POP SWAP3 SWAP2 POP POP JUMP JUMPDEST PUSH1 0x0 PUSH2 0x1189 DUP3 PUSH2 0xD14 JUMP JUMPDEST PUSH2 0x1193 DUP2 DUP6 PUSH2 0x116D JUMP JUMPDEST SWAP4 POP PUSH2 0x11A3 DUP2 DUP6 PUSH1 0x20 DUP7 ADD PUSH2 0xD30 JUMP JUMPDEST PUSH2 0x11AC DUP2 PUSH2 0xD5A JUMP JUMPDEST DUP5 ADD SWAP2 POP POP SWAP3 SWAP2 POP POP JUMP JUMPDEST PUSH1 0x0 PUSH1 0xC0 DUP4 ADD PUSH1 0x0 DUP4 ADD MLOAD PUSH2 0x11CF PUSH1 0x0 DUP7 ADD DUP3 PUSH2 0x114F JUMP JUMPDEST POP PUSH1 0x20 DUP4 ADD MLOAD PUSH2 0x11E2 PUSH1 0x20 DUP7 ADD DUP3 PUSH2 0x115E JUMP JUMPDEST POP PUSH1 0x40 DUP4 ADD MLOAD DUP5 DUP3 SUB PUSH1 0x40 DUP7 ADD MSTORE PUSH2 0x11FA DUP3 DUP3 PUSH2 0x117E JUMP JUMPDEST SWAP2 POP POP PUSH1 0x60 DUP4 ADD MLOAD PUSH2 0x120F PUSH1 0x60 DUP7 ADD DUP3 PUSH2 0x114F JUMP JUMPDEST POP PUSH1 0x80 DUP4 ADD MLOAD PUSH2 0x1222 PUSH1 0x80 DUP7 ADD DUP3 PUSH2 0x114F JUMP JUMPDEST POP PUSH1 0xA0 DUP4 ADD MLOAD PUSH2 0x1235 PUSH1 0xA0 DUP7 ADD DUP3 PUSH2 0x114F JUMP JUMPDEST POP DUP1 SWAP2 POP POP SWAP3 SWAP2 POP POP JUMP JUMPDEST PUSH1 0x0 PUSH2 0x124C DUP4 DUP4 PUSH2 0x11B7 JUMP JUMPDEST SWAP1 POP SWAP3 SWAP2 POP POP JUMP JUMPDEST PUSH1 0x0 PUSH1 0x20 DUP3 ADD SWAP1 POP SWAP2 SWAP1 POP JUMP JUMPDEST PUSH1 0x0 PUSH2 0x126C DUP3 PUSH2 0x1123 JUMP JUMPDEST PUSH2 0x1276 DUP2 DUP6 PUSH2 0x112E JUMP JUMPDEST SWAP4 POP DUP4 PUSH1 0x20 DUP3 MUL DUP6 ADD PUSH2 0x1288 DUP6 PUSH2 0x113F JUMP JUMPDEST DUP1 PUSH1 0x0 JUMPDEST DUP6 DUP2 LT ISZERO PUSH2 0x12C4 JUMPI DUP5 DUP5 SUB DUP10 MSTORE DUP2 MLOAD PUSH2 0x12A5 DUP6 DUP3 PUSH2 0x1240 JUMP JUMPDEST SWAP5 POP PUSH2 0x12B0 DUP4 PUSH2 0x1254 JUMP JUMPDEST SWAP3 POP PUSH1 0x20 DUP11 ADD SWAP10 POP POP PUSH1 0x1 DUP2 ADD SWAP1 POP PUSH2 0x128C JUMP JUMPDEST POP DUP3 SWAP8 POP DUP8 SWAP6 POP POP POP POP POP POP SWAP3 SWAP2 POP POP JUMP JUMPDEST PUSH1 0x0 PUSH1 0x20 DUP3 ADD SWAP1 POP DUP2 DUP2 SUB PUSH1 0x0 DUP4 ADD MSTORE PUSH2 0x12F0 DUP2 DUP5 PUSH2 0x1261 JUMP JUMPDEST SWAP1 POP SWAP3 SWAP2 POP POP JUMP JUMPDEST PUSH32 0x6D696E696D756D20636F6E747269627574696F6E207265717569726564000000 PUSH1 0x0 DUP3 ADD MSTORE POP JUMP JUMPDEST PUSH1 0x0 PUSH2 0x132E PUSH1 0x1D DUP4 PUSH2 0xD1F JUMP JUMPDEST SWAP2 POP PUSH2 0x1339 DUP3 PUSH2 0x12F8 JUMP JUMPDEST PUSH1 0x20 DUP3 ADD SWAP1 POP SWAP2 SWAP1 POP JUMP JUMPDEST PUSH1 0x0 PUSH1 0x20 DUP3 ADD SWAP1 POP DUP2 DUP2 SUB PUSH1 0x0 DUP4 ADD MSTORE PUSH2 0x135D DUP2 PUSH2 0x1321 JUMP JUMPDEST SWAP1 POP SWAP2 SWAP1 POP JUMP JUMPDEST PUSH32 0x4E487B7100000000000000000000000000000000000000000000000000000000 PUSH1 0x0 MSTORE PUSH1 0x11 PUSH1 0x4 MSTORE PUSH1 0x24 PUSH1 0x0 REVERT JUMPDEST PUSH1 0x0 PUSH2 0x139E DUP3 PUSH2 0xC17 JUMP JUMPDEST SWAP2 POP PUSH32 0xFFFFFFFFFFFFFFFFFFFFFFFFFFFFFFFFFFFFFFFFFFFFFFFFFFFFFFFFFFFFFFFF DUP3 SUB PUSH2 0x13D0 JUMPI PUSH2 0x13CF PUSH2 0x1364 JUMP JUMPDEST JUMPDEST PUSH1 0x1 DUP3 ADD SWAP1 POP SWAP2 SWAP1 POP JUMP JUMPDEST PUSH32 0x4E487B7100000000000000000000000000000000000000000000000000000000 PUSH1 0x0 MSTORE PUSH1 0x32 PUSH1 0x4 MSTORE PUSH1 0x24 PUSH1 0x0 REVERT JUMPDEST PUSH32 0x4E6F742073756666696369656E742062616C616E636500000000000000000000 PUSH1 0x0 DUP3 ADD MSTORE POP JUMP JUMPDEST PUSH1 0x0 PUSH2 0x1440 PUSH1 0x16 DUP4 PUSH2 0xD1F JUMP JUMPDEST SWAP2 POP PUSH2 0x144B DUP3 PUSH2 0x140A JUMP JUMPDEST PUSH1 0x20 DUP3 ADD SWAP1 POP SWAP2 SWAP1 POP JUMP JUMPDEST PUSH1 0x0 PUSH1 0x20 DUP3 ADD SWAP1 POP DUP2 DUP2 SUB PUSH1 0x0 DUP4 ADD MSTORE PUSH2 0x146F DUP2 PUSH2 0x1433 JUMP JUMPDEST SWAP1 POP SWAP2 SWAP1 POP JUMP JUMPDEST PUSH32 0x4E487B7100000000000000000000000000000000000000000000000000000000 PUSH1 0x0 MSTORE PUSH1 0x22 PUSH1 0x4 MSTORE PUSH1 0x24 PUSH1 0x0 REVERT JUMPDEST PUSH1 0x0 PUSH1 0x2 DUP3 DIV SWAP1 POP PUSH1 0x1 DUP3 AND DUP1 PUSH2 0x14BD JUMPI PUSH1 0x7F DUP3 AND SWAP2 POP JUMPDEST PUSH1 0x20 DUP3 LT DUP2 SUB PUSH2 0x14D0 JUMPI PUSH2 0x14CF PUSH2 0x1476 JUMP JUMPDEST JUMPDEST POP SWAP2 SWAP1 POP JUMP JUMPDEST PUSH32 0x4E6F74207375627363726962656420746F207468652066696C65207965740000 PUSH1 0x0 DUP3 ADD MSTORE POP JUMP JUMPDEST PUSH1 0x0 PUSH2 0x150C PUSH1 0x1E DUP4 PUSH2 0xD1F JUMP JUMPDEST SWAP2 POP PUSH2 0x1517 DUP3 PUSH2 0x14D6 JUMP JUMPDEST PUSH1 0x20 DUP3 ADD SWAP1 POP SWAP2 SWAP1 POP JUMP JUMPDEST PUSH1 0x0 PUSH1 0x20 DUP3 ADD SWAP1 POP DUP2 DUP2 SUB PUSH1 0x0 DUP4 ADD MSTORE PUSH2 0x153B DUP2 PUSH2 0x14FF JUMP JUMPDEST SWAP1 POP SWAP2 SWAP1 POP JUMP JUMPDEST PUSH1 0x0 DUP2 SWAP1 POP DUP2 PUSH1 0x0 MSTORE PUSH1 0x20 PUSH1 0x0 KECCAK256 SWAP1 POP SWAP2 SWAP1 POP JUMP JUMPDEST PUSH1 0x0 PUSH1 0x20 PUSH1 0x1F DUP4 ADD DIV SWAP1 POP SWAP2 SWAP1 POP JUMP JUMPDEST PUSH1 0x0 DUP3 DUP3 SHL SWAP1 POP SWAP3 SWAP2 POP POP JUMP JUMPDEST PUSH1 0x0 PUSH1 0x8 DUP4 MUL PUSH2 0x15A4 PUSH32 0xFFFFFFFFFFFFFFFFFFFFFFFFFFFFFFFFFFFFFFFFFFFFFFFFFFFFFFFFFFFFFFFF DUP3 PUSH2 0x1567 JUMP JUMPDEST PUSH2 0x15AE DUP7 DUP4 PUSH2 0x1567 JUMP JUMPDEST SWAP6 POP DUP1 NOT DUP5 AND SWAP4 POP DUP1 DUP7 AND DUP5 OR SWAP3 POP POP POP SWAP4 SWAP3 POP POP POP JUMP JUMPDEST PUSH1 0x0 DUP2 SWAP1 POP SWAP2 SWAP1 POP JUMP JUMPDEST PUSH1 0x0 PUSH2 0x15EB PUSH2 0x15E6 PUSH2 0x15E1 DUP5 PUSH2 0xC17 JUMP JUMPDEST PUSH2 0x15C6 JUMP JUMPDEST PUSH2 0xC17 JUMP JUMPDEST SWAP1 POP SWAP2 SWAP1 POP JUMP JUMPDEST PUSH1 0x0 DUP2 SWAP1 POP SWAP2 SWAP1 POP JUMP JUMPDEST PUSH2 0x1605 DUP4 PUSH2 0x15D0 JUMP JUMPDEST PUSH2 0x1619 PUSH2 0x1611 DUP3 PUSH2 0x15F2 JUMP JUMPDEST DUP5 DUP5 SLOAD PUSH2 0x1574 JUMP JUMPDEST DUP3 SSTORE POP POP POP POP JUMP JUMPDEST PUSH1 0x0 SWAP1 JUMP JUMPDEST PUSH2 0x162E PUSH2 0x1621 JUMP JUMPDEST PUSH2 0x1639 DUP2 DUP5 DUP5 PUSH2 0x15FC JUMP JUMPDEST POP POP POP JUMP JUMPDEST JUMPDEST DUP2 DUP2 LT ISZERO PUSH2 0x165D JUMPI PUSH2 0x1652 PUSH1 0x0 DUP3 PUSH2 0x1626 JUMP JUMPDEST PUSH1 0x1 DUP2 ADD SWAP1 POP PUSH2 0x163F JUMP JUMPDEST POP POP JUMP JUMPDEST PUSH1 0x1F DUP3 GT ISZERO PUSH2 0x16A2 JUMPI PUSH2 0x1673 DUP2 PUSH2 0x1542 JUMP JUMPDEST PUSH2 0x167C DUP5 PUSH2 0x1557 JUMP JUMPDEST DUP2 ADD PUSH1 0x20 DUP6 LT ISZERO PUSH2 0x168B JUMPI DUP2 SWAP1 POP JUMPDEST PUSH2 0x169F PUSH2 0x1697 DUP6 PUSH2 0x1557 JUMP JUMPDEST DUP4 ADD DUP3 PUSH2 0x163E JUMP JUMPDEST POP POP JUMPDEST POP POP POP JUMP JUMPDEST PUSH1 0x0 DUP3 DUP3 SHR SWAP1 POP SWAP3 SWAP2 POP POP JUMP JUMPDEST PUSH1 0x0 PUSH2 0x16C5 PUSH1 0x0 NOT DUP5 PUSH1 0x8 MUL PUSH2 0x16A7 JUMP JUMPDEST NOT DUP1 DUP4 AND SWAP2 POP POP SWAP3 SWAP2 POP POP JUMP JUMPDEST PUSH1 0x0 PUSH2 0x16DE DUP4 DUP4 PUSH2 0x16B4 JUMP JUMPDEST SWAP2 POP DUP3 PUSH1 0x2 MUL DUP3 OR SWAP1 POP SWAP3 SWAP2 POP POP JUMP JUMPDEST PUSH2 0x16F7 DUP3 PUSH2 0xD14 JUMP JUMPDEST PUSH8 0xFFFFFFFFFFFFFFFF DUP2 GT ISZERO PUSH2 0x1710 JUMPI PUSH2 0x170F PUSH2 0xE5F JUMP JUMPDEST JUMPDEST PUSH2 0x171A DUP3 SLOAD PUSH2 0x14A5 JUMP JUMPDEST PUSH2 0x1725 DUP3 DUP3 DUP6 PUSH2 0x1661 JUMP JUMPDEST PUSH1 0x0 PUSH1 0x20 SWAP1 POP PUSH1 0x1F DUP4 GT PUSH1 0x1 DUP2 EQ PUSH2 0x1758 JUMPI PUSH1 0x0 DUP5 ISZERO PUSH2 0x1746 JUMPI DUP3 DUP8 ADD MLOAD SWAP1 POP JUMPDEST PUSH2 0x1750 DUP6 DUP3 PUSH2 0x16D2 JUMP JUMPDEST DUP7 SSTORE POP PUSH2 0x17B8 JUMP JUMPDEST PUSH1 0x1F NOT DUP5 AND PUSH2 0x1766 DUP7 PUSH2 0x1542 JUMP JUMPDEST PUSH1 0x0 JUMPDEST DUP3 DUP2 LT ISZERO PUSH2 0x178E JUMPI DUP5 DUP10 ADD MLOAD DUP3 SSTORE PUSH1 0x1 DUP3 ADD SWAP2 POP PUSH1 0x20 DUP6 ADD SWAP5 POP PUSH1 0x20 DUP2 ADD SWAP1 POP PUSH2 0x1769 JUMP JUMPDEST DUP7 DUP4 LT ISZERO PUSH2 0x17AB JUMPI DUP5 DUP10 ADD MLOAD PUSH2 0x17A7 PUSH1 0x1F DUP10 AND DUP3 PUSH2 0x16B4 JUMP JUMPDEST DUP4 SSTORE POP JUMPDEST PUSH1 0x1 PUSH1 0x2 DUP9 MUL ADD DUP9 SSTORE POP POP POP JUMPDEST POP POP POP POP POP POP JUMP INVALID LOG2 PUSH5 0x6970667358 0x22 SLT KECCAK256 BYTE 0xE8 PUSH26 0xE3D4A42ADF56D2AE216BBBBE88E1A72A80C9455FED7F003E4EC9 LOG0 SHL ADDMOD PUSH5 0x736F6C6343 STOP ADDMOD LT STOP CALLER "},"gasEstimates":{"creation":{"codeDepositCost":"1226800","executionCost":"infinite","totalCost":"infinite"},"external":{"contributeAndDownloadFile(uint256)":"infinite","downloadFile(uint256)":"infinite","files(uint256)":"infinite","filesCount()":"2496","getAllFiles()":"infinite","getHeiDetails()":"infinite","getfilesCount()":"2482","manager()":"2578","minimumContribution()":"2540","subscribeToInstitution()":"53220","uploadfile(string,string,uint256,address)":"infinite","userCount()":"2430","users(address)":"2890"}},"methodIdentifiers":{"contributeAndDownloadFile(uint256)":"62d5e486","downloadFile(uint256)":"93df2738","files(uint256)":"f4c714b4","filesCount()":"dfb5e9ba","getAllFiles()":"ff24b5d5","getHeiDetails()":"f1bfe13a","getfilesCount()":"395a09c6","manager()":"481c6a75","minimumContribution()":"937e09b1","subscribeToInstitution()":"1c6727f9","uploadfile(string,string,uint256,address)":"ea97056a","userCount()":"07973ccf","users(address)":"a87430ba"}},"storageLayout":{"storage":[{"astId":66,"contract":"resourceHEI.sol:Resource","label":"manager","offset":0,"slot":"0","type":"t_address"},{"astId":68,"contract":"resourceHEI.sol:Resource","label":"minimumContribution","offset":0,"slot":"1","type":"t_uint256"},{"astId":70,"contract":"resourceHEI.sol:Resource","label":"userCount","offset":0,"slot":"2","type":"t_uint256"},{"astId":72,"contract":"resourceHEI.sol:Resource","label":"filesCount","offset":0,"slot":"3","type":"t_uint256"},{"astId":75,"contract":"resourceHEI.sol:Resource","label":"fileIndex","offset":0,"slot":"4","type":"t_uint256"},{"astId":80,"contract":"resourceHEI.sol:Resource","label":"hashes","offset":0,"slot":"5","type":"t_mapping(t_uint256,t_struct(fileConfidential)64_storage)"},{"astId":84,"contract":"resourceHEI.sol:Resource","label":"files","offset":0,"slot":"6","type":"t_array(t_struct(file)57_storage)dyn_storage"},{"astId":88,"contract":"resourceHEI.sol:Resource","label":"users","offset":0,"slot":"7","type":"t_mapping(t_address,t_bool)"}],"types":{"t_address":{"encoding":"inplace","label":"address","numberOfBytes":"20"},"t_address_payable":{"encoding":"inplace","label":"address payable","numberOfBytes":"20"},"t_array(t_struct(file)57_storage)dyn_storage":{"base":"t_struct(file)57_storage","encoding":"dynamic_array","label":"struct Resource.file[]","numberOfBytes":"32"},"t_bool":{"encoding":"inplace","label":"bool","numberOfBytes":"1"},"t_mapping(t_address,t_bool)":{"encoding":"mapping","key":"t_address","label":"mapping(address => bool)","numberOfBytes":"32","value":"t_bool"},"t_mapping(t_uint256,t_struct(fileConfidential)64_storage)":{"encoding":"mapping","key":"t_uint256","label":"mapping(uint256 => struct Resource.fileConfidential)","numberOfBytes":"32","value":"t_struct(fileConfidential)64_storage"},"t_string_storage":{"encoding":"bytes","label":"string","numberOfBytes":"32"},"t_struct(file)57_storage":{"encoding":"inplace","label":"struct Resource.file","members":[{"astId":46,"contract":"resourceHEI.sol:Resource","label":"id","offset":0,"slot":"0","type":"t_uint256"},{"astId":48,"contract":"resourceHEI.sol:Resource","label":"uploader","offset":0,"slot":"1","type":"t_address_payable"},{"astId":50,"contract":"resourceHEI.sol:Resource","label":"description","offset":0,"slot":"2","type":"t_string_storage"},{"astId":52,"contract":"resourceHEI.sol:Resource","label":"minimumContribution","offset":0,"slot":"3","type":"t_uint256"},{"astId":54,"contract":"resourceHEI.sol:Resource","label":"subscribersCount","offset":0,"slot":"4","type":"t_uint256"},{"astId":56,"contract":"resourceHEI.sol:Resource","label":"timestamp","offset":0,"slot":"5","type":"t_uint256"}],"numberOfBytes":"192"},"t_struct(fileConfidential)64_storage":{"encoding":"inplace","label":"struct Resource.fileConfidential","members":[{"astId":59,"contract":"resourceHEI.sol:Resource","label":"hash","offset":0,"slot":"0","type":"t_string_storage"},{"astId":63,"contract":"resourceHEI.sol:Resource","label":"subscribers","offset":0,"slot":"1","type":"t_mapping(t_address,t_bool)"}],"numberOfBytes":"64"},"t_uint256":{"encoding":"inplace","label":"uint256","numberOfBytes":"32"}}},"userdoc":{"kind":"user","methods":{},"version":1}}